{
	"tc_avax.sol": {
		"tc_avax": {
			"abi": [
				{
					"inputs": [],
					"stateMutability": "nonpayable",
					"type": "constructor"
				},
				{
					"anonymous": false,
					"inputs": [
						{
							"indexed": false,
							"internalType": "string",
							"name": "date",
							"type": "string"
						},
						{
							"indexed": false,
							"internalType": "string",
							"name": "delivery_date",
							"type": "string"
						},
						{
							"indexed": false,
							"internalType": "string",
							"name": "product",
							"type": "string"
						},
						{
							"indexed": false,
							"internalType": "string",
							"name": "price",
							"type": "string"
						},
						{
							"indexed": false,
							"internalType": "string",
							"name": "code",
							"type": "string"
						},
						{
							"indexed": false,
							"internalType": "string",
							"name": "cel_number",
							"type": "string"
						},
						{
							"indexed": false,
							"internalType": "int8",
							"name": "status",
							"type": "int8"
						},
						{
							"indexed": false,
							"internalType": "address",
							"name": "wallet",
							"type": "address"
						}
					],
					"name": "newData",
					"type": "event"
				},
				{
					"inputs": [],
					"name": "data",
					"outputs": [
						{
							"internalType": "string",
							"name": "date",
							"type": "string"
						},
						{
							"internalType": "string",
							"name": "delivery_date",
							"type": "string"
						},
						{
							"internalType": "string",
							"name": "product",
							"type": "string"
						},
						{
							"internalType": "string",
							"name": "price",
							"type": "string"
						},
						{
							"internalType": "string",
							"name": "code",
							"type": "string"
						},
						{
							"internalType": "string",
							"name": "cel_number",
							"type": "string"
						},
						{
							"internalType": "int8",
							"name": "status",
							"type": "int8"
						},
						{
							"internalType": "address",
							"name": "wallet",
							"type": "address"
						}
					],
					"stateMutability": "view",
					"type": "function"
				},
				{
					"inputs": [],
					"name": "getBalance",
					"outputs": [
						{
							"internalType": "uint256",
							"name": "",
							"type": "uint256"
						}
					],
					"stateMutability": "view",
					"type": "function"
				},
				{
					"inputs": [],
					"name": "owner",
					"outputs": [
						{
							"internalType": "address payable",
							"name": "",
							"type": "address"
						}
					],
					"stateMutability": "view",
					"type": "function"
				},
				{
					"inputs": [
						{
							"internalType": "string",
							"name": "_date",
							"type": "string"
						},
						{
							"internalType": "string",
							"name": "_delivery_date",
							"type": "string"
						},
						{
							"internalType": "string",
							"name": "_product",
							"type": "string"
						},
						{
							"internalType": "string",
							"name": "_price",
							"type": "string"
						},
						{
							"internalType": "string",
							"name": "_code",
							"type": "string"
						},
						{
							"internalType": "string",
							"name": "_cel_number",
							"type": "string"
						},
						{
							"internalType": "int8",
							"name": "status",
							"type": "int8"
						}
					],
					"name": "pushData",
					"outputs": [],
					"stateMutability": "payable",
					"type": "function"
				},
				{
					"inputs": [],
					"name": "withdraw",
					"outputs": [],
					"stateMutability": "nonpayable",
					"type": "function"
				}
			],
			"devdoc": {
				"kind": "dev",
				"methods": {},
				"version": 1
			},
			"evm": {
				"assembly": "    /* \"tc_avax.sol\":62:2492  contract tc_avax {... */\n  mstore(0x40, 0x80)\n    /* \"tc_avax.sol\":1069:1128  constructor(){... */\n  callvalue\n  dup1\n  iszero\n  tag_1\n  jumpi\n  0x00\n  dup1\n  revert\ntag_1:\n  pop\n    /* \"tc_avax.sol\":1109:1119  msg.sender */\n  caller\n    /* \"tc_avax.sol\":1093:1098  owner */\n  0x00\n  dup1\n    /* \"tc_avax.sol\":1093:1120  owner = payable(msg.sender) */\n  0x0100\n  exp\n  dup2\n  sload\n  dup2\n  0xffffffffffffffffffffffffffffffffffffffff\n  mul\n  not\n  and\n  swap1\n  dup4\n  0xffffffffffffffffffffffffffffffffffffffff\n  and\n  mul\n  or\n  swap1\n  sstore\n  pop\n    /* \"tc_avax.sol\":62:2492  contract tc_avax {... */\n  dataSize(sub_0)\n  dup1\n  dataOffset(sub_0)\n  0x00\n  codecopy\n  0x00\n  return\nstop\n\nsub_0: assembly {\n        /* \"tc_avax.sol\":62:2492  contract tc_avax {... */\n      mstore(0x40, 0x80)\n      jumpi(tag_1, lt(calldatasize, 0x04))\n      shr(0xe0, calldataload(0x00))\n      dup1\n      0x12065fe0\n      eq\n      tag_2\n      jumpi\n      dup1\n      0x3ccfd60b\n      eq\n      tag_3\n      jumpi\n      dup1\n      0x73d4a13a\n      eq\n      tag_4\n      jumpi\n      dup1\n      0x782154df\n      eq\n      tag_5\n      jumpi\n      dup1\n      0x8da5cb5b\n      eq\n      tag_6\n      jumpi\n    tag_1:\n      0x00\n      dup1\n      revert\n        /* \"tc_avax.sol\":2380:2487  function getBalance() public view returns (uint256) {... */\n    tag_2:\n      callvalue\n      dup1\n      iszero\n      tag_7\n      jumpi\n      0x00\n      dup1\n      revert\n    tag_7:\n      pop\n      tag_8\n      tag_9\n      jump\t// in\n    tag_8:\n      mload(0x40)\n      tag_10\n      swap2\n      swap1\n      tag_11\n      jump\t// in\n    tag_10:\n      mload(0x40)\n      dup1\n      swap2\n      sub\n      swap1\n      return\n        /* \"tc_avax.sol\":2151:2370  function withdraw() public onlyOwner {... */\n    tag_3:\n      callvalue\n      dup1\n      iszero\n      tag_12\n      jumpi\n      0x00\n      dup1\n      revert\n    tag_12:\n      pop\n      tag_13\n      tag_14\n      jump\t// in\n    tag_13:\n      stop\n        /* \"tc_avax.sol\":420:436  Data public data */\n    tag_4:\n      callvalue\n      dup1\n      iszero\n      tag_15\n      jumpi\n      0x00\n      dup1\n      revert\n    tag_15:\n      pop\n      tag_16\n      tag_17\n      jump\t// in\n    tag_16:\n      mload(0x40)\n      tag_18\n      swap9\n      swap8\n      swap7\n      swap6\n      swap5\n      swap4\n      swap3\n      swap2\n      swap1\n      tag_19\n      jump\t// in\n    tag_18:\n      mload(0x40)\n      dup1\n      swap2\n      sub\n      swap1\n      return\n        /* \"tc_avax.sol\":1136:2084  function pushData (string memory _date,... */\n    tag_5:\n      tag_20\n      0x04\n      dup1\n      calldatasize\n      sub\n      dup2\n      add\n      swap1\n      tag_21\n      swap2\n      swap1\n      tag_22\n      jump\t// in\n    tag_21:\n      tag_23\n      jump\t// in\n    tag_20:\n      stop\n        /* \"tc_avax.sol\":157:185  address payable public owner */\n    tag_6:\n      callvalue\n      dup1\n      iszero\n      tag_24\n      jumpi\n      0x00\n      dup1\n      revert\n    tag_24:\n      pop\n      tag_25\n      tag_26\n      jump\t// in\n    tag_25:\n      mload(0x40)\n      tag_27\n      swap2\n      swap1\n      tag_28\n      jump\t// in\n    tag_27:\n      mload(0x40)\n      dup1\n      swap2\n      sub\n      swap1\n      return\n        /* \"tc_avax.sol\":2380:2487  function getBalance() public view returns (uint256) {... */\n    tag_9:\n        /* \"tc_avax.sol\":2423:2430  uint256 */\n      0x00\n        /* \"tc_avax.sol\":2454:2475  address(this).balance */\n      selfbalance\n        /* \"tc_avax.sol\":2447:2475  return address(this).balance */\n      swap1\n      pop\n        /* \"tc_avax.sol\":2380:2487  function getBalance() public view returns (uint256) {... */\n      swap1\n      jump\t// out\n        /* \"tc_avax.sol\":2151:2370  function withdraw() public onlyOwner {... */\n    tag_14:\n        /* \"tc_avax.sol\":724:729  owner */\n      0x00\n      dup1\n      sload\n      swap1\n      0x0100\n      exp\n      swap1\n      div\n      0xffffffffffffffffffffffffffffffffffffffff\n      and\n        /* \"tc_avax.sol\":710:729  msg.sender == owner */\n      0xffffffffffffffffffffffffffffffffffffffff\n      and\n        /* \"tc_avax.sol\":710:720  msg.sender */\n      caller\n        /* \"tc_avax.sol\":710:729  msg.sender == owner */\n      0xffffffffffffffffffffffffffffffffffffffff\n      and\n      eq\n        /* \"tc_avax.sol\":702:778  require(msg.sender == owner, \"Solo el propietario puede retirar los fondos\") */\n      tag_31\n      jumpi\n      mload(0x40)\n      0x08c379a000000000000000000000000000000000000000000000000000000000\n      dup2\n      mstore\n      0x04\n      add\n      tag_32\n      swap1\n      tag_33\n      jump\t// in\n    tag_32:\n      mload(0x40)\n      dup1\n      swap2\n      sub\n      swap1\n      revert\n    tag_31:\n        /* \"tc_avax.sol\":2203:2215  uint balance */\n      0x00\n        /* \"tc_avax.sol\":2218:2239  address(this).balance */\n      selfbalance\n        /* \"tc_avax.sol\":2203:2239  uint balance = address(this).balance */\n      swap1\n      pop\n        /* \"tc_avax.sol\":2272:2273  0 */\n      0x00\n        /* \"tc_avax.sol\":2262:2269  balance */\n      dup2\n        /* \"tc_avax.sol\":2262:2273  balance > 0 */\n      gt\n        /* \"tc_avax.sol\":2254:2320  require(balance > 0, \"No se tienen fondos en el contrato todavia\") */\n      tag_35\n      jumpi\n      mload(0x40)\n      0x08c379a000000000000000000000000000000000000000000000000000000000\n      dup2\n      mstore\n      0x04\n      add\n      tag_36\n      swap1\n      tag_37\n      jump\t// in\n    tag_36:\n      mload(0x40)\n      dup1\n      swap2\n      sub\n      swap1\n      revert\n    tag_35:\n        /* \"tc_avax.sol\":2335:2340  owner */\n      0x00\n      dup1\n      sload\n      swap1\n      0x0100\n      exp\n      swap1\n      div\n      0xffffffffffffffffffffffffffffffffffffffff\n      and\n        /* \"tc_avax.sol\":2335:2349  owner.transfer */\n      0xffffffffffffffffffffffffffffffffffffffff\n      and\n        /* \"tc_avax.sol\":2335:2358  owner.transfer(balance) */\n      0x08fc\n        /* \"tc_avax.sol\":2350:2357  balance */\n      dup3\n        /* \"tc_avax.sol\":2335:2358  owner.transfer(balance) */\n      swap1\n      dup2\n      iszero\n      mul\n      swap1\n      mload(0x40)\n      0x00\n      mload(0x40)\n      dup1\n      dup4\n      sub\n      dup2\n      dup6\n      dup9\n      dup9\n      call\n      swap4\n      pop\n      pop\n      pop\n      pop\n      iszero\n      dup1\n      iszero\n      tag_39\n      jumpi\n      returndatasize\n      0x00\n      dup1\n      returndatacopy\n      revert(0x00, returndatasize)\n    tag_39:\n      pop\n        /* \"tc_avax.sol\":2188:2370  {... */\n      pop\n        /* \"tc_avax.sol\":2151:2370  function withdraw() public onlyOwner {... */\n      jump\t// out\n        /* \"tc_avax.sol\":420:436  Data public data */\n    tag_17:\n      0x01\n      dup1\n      0x00\n      add\n      dup1\n      sload\n      tag_40\n      swap1\n      tag_41\n      jump\t// in\n    tag_40:\n      dup1\n      0x1f\n      add\n      0x20\n      dup1\n      swap2\n      div\n      mul\n      0x20\n      add\n      mload(0x40)\n      swap1\n      dup2\n      add\n      0x40\n      mstore\n      dup1\n      swap3\n      swap2\n      swap1\n      dup2\n      dup2\n      mstore\n      0x20\n      add\n      dup3\n      dup1\n      sload\n      tag_42\n      swap1\n      tag_41\n      jump\t// in\n    tag_42:\n      dup1\n      iszero\n      tag_43\n      jumpi\n      dup1\n      0x1f\n      lt\n      tag_44\n      jumpi\n      0x0100\n      dup1\n      dup4\n      sload\n      div\n      mul\n      dup4\n      mstore\n      swap2\n      0x20\n      add\n      swap2\n      jump(tag_43)\n    tag_44:\n      dup3\n      add\n      swap2\n      swap1\n      0x00\n      mstore\n      keccak256(0x00, 0x20)\n      swap1\n    tag_45:\n      dup2\n      sload\n      dup2\n      mstore\n      swap1\n      0x01\n      add\n      swap1\n      0x20\n      add\n      dup1\n      dup4\n      gt\n      tag_45\n      jumpi\n      dup3\n      swap1\n      sub\n      0x1f\n      and\n      dup3\n      add\n      swap2\n    tag_43:\n      pop\n      pop\n      pop\n      pop\n      pop\n      swap1\n      dup1\n      0x01\n      add\n      dup1\n      sload\n      tag_46\n      swap1\n      tag_41\n      jump\t// in\n    tag_46:\n      dup1\n      0x1f\n      add\n      0x20\n      dup1\n      swap2\n      div\n      mul\n      0x20\n      add\n      mload(0x40)\n      swap1\n      dup2\n      add\n      0x40\n      mstore\n      dup1\n      swap3\n      swap2\n      swap1\n      dup2\n      dup2\n      mstore\n      0x20\n      add\n      dup3\n      dup1\n      sload\n      tag_47\n      swap1\n      tag_41\n      jump\t// in\n    tag_47:\n      dup1\n      iszero\n      tag_48\n      jumpi\n      dup1\n      0x1f\n      lt\n      tag_49\n      jumpi\n      0x0100\n      dup1\n      dup4\n      sload\n      div\n      mul\n      dup4\n      mstore\n      swap2\n      0x20\n      add\n      swap2\n      jump(tag_48)\n    tag_49:\n      dup3\n      add\n      swap2\n      swap1\n      0x00\n      mstore\n      keccak256(0x00, 0x20)\n      swap1\n    tag_50:\n      dup2\n      sload\n      dup2\n      mstore\n      swap1\n      0x01\n      add\n      swap1\n      0x20\n      add\n      dup1\n      dup4\n      gt\n      tag_50\n      jumpi\n      dup3\n      swap1\n      sub\n      0x1f\n      and\n      dup3\n      add\n      swap2\n    tag_48:\n      pop\n      pop\n      pop\n      pop\n      pop\n      swap1\n      dup1\n      0x02\n      add\n      dup1\n      sload\n      tag_51\n      swap1\n      tag_41\n      jump\t// in\n    tag_51:\n      dup1\n      0x1f\n      add\n      0x20\n      dup1\n      swap2\n      div\n      mul\n      0x20\n      add\n      mload(0x40)\n      swap1\n      dup2\n      add\n      0x40\n      mstore\n      dup1\n      swap3\n      swap2\n      swap1\n      dup2\n      dup2\n      mstore\n      0x20\n      add\n      dup3\n      dup1\n      sload\n      tag_52\n      swap1\n      tag_41\n      jump\t// in\n    tag_52:\n      dup1\n      iszero\n      tag_53\n      jumpi\n      dup1\n      0x1f\n      lt\n      tag_54\n      jumpi\n      0x0100\n      dup1\n      dup4\n      sload\n      div\n      mul\n      dup4\n      mstore\n      swap2\n      0x20\n      add\n      swap2\n      jump(tag_53)\n    tag_54:\n      dup3\n      add\n      swap2\n      swap1\n      0x00\n      mstore\n      keccak256(0x00, 0x20)\n      swap1\n    tag_55:\n      dup2\n      sload\n      dup2\n      mstore\n      swap1\n      0x01\n      add\n      swap1\n      0x20\n      add\n      dup1\n      dup4\n      gt\n      tag_55\n      jumpi\n      dup3\n      swap1\n      sub\n      0x1f\n      and\n      dup3\n      add\n      swap2\n    tag_53:\n      pop\n      pop\n      pop\n      pop\n      pop\n      swap1\n      dup1\n      0x03\n      add\n      dup1\n      sload\n      tag_56\n      swap1\n      tag_41\n      jump\t// in\n    tag_56:\n      dup1\n      0x1f\n      add\n      0x20\n      dup1\n      swap2\n      div\n      mul\n      0x20\n      add\n      mload(0x40)\n      swap1\n      dup2\n      add\n      0x40\n      mstore\n      dup1\n      swap3\n      swap2\n      swap1\n      dup2\n      dup2\n      mstore\n      0x20\n      add\n      dup3\n      dup1\n      sload\n      tag_57\n      swap1\n      tag_41\n      jump\t// in\n    tag_57:\n      dup1\n      iszero\n      tag_58\n      jumpi\n      dup1\n      0x1f\n      lt\n      tag_59\n      jumpi\n      0x0100\n      dup1\n      dup4\n      sload\n      div\n      mul\n      dup4\n      mstore\n      swap2\n      0x20\n      add\n      swap2\n      jump(tag_58)\n    tag_59:\n      dup3\n      add\n      swap2\n      swap1\n      0x00\n      mstore\n      keccak256(0x00, 0x20)\n      swap1\n    tag_60:\n      dup2\n      sload\n      dup2\n      mstore\n      swap1\n      0x01\n      add\n      swap1\n      0x20\n      add\n      dup1\n      dup4\n      gt\n      tag_60\n      jumpi\n      dup3\n      swap1\n      sub\n      0x1f\n      and\n      dup3\n      add\n      swap2\n    tag_58:\n      pop\n      pop\n      pop\n      pop\n      pop\n      swap1\n      dup1\n      0x04\n      add\n      dup1\n      sload\n      tag_61\n      swap1\n      tag_41\n      jump\t// in\n    tag_61:\n      dup1\n      0x1f\n      add\n      0x20\n      dup1\n      swap2\n      div\n      mul\n      0x20\n      add\n      mload(0x40)\n      swap1\n      dup2\n      add\n      0x40\n      mstore\n      dup1\n      swap3\n      swap2\n      swap1\n      dup2\n      dup2\n      mstore\n      0x20\n      add\n      dup3\n      dup1\n      sload\n      tag_62\n      swap1\n      tag_41\n      jump\t// in\n    tag_62:\n      dup1\n      iszero\n      tag_63\n      jumpi\n      dup1\n      0x1f\n      lt\n      tag_64\n      jumpi\n      0x0100\n      dup1\n      dup4\n      sload\n      div\n      mul\n      dup4\n      mstore\n      swap2\n      0x20\n      add\n      swap2\n      jump(tag_63)\n    tag_64:\n      dup3\n      add\n      swap2\n      swap1\n      0x00\n      mstore\n      keccak256(0x00, 0x20)\n      swap1\n    tag_65:\n      dup2\n      sload\n      dup2\n      mstore\n      swap1\n      0x01\n      add\n      swap1\n      0x20\n      add\n      dup1\n      dup4\n      gt\n      tag_65\n      jumpi\n      dup3\n      swap1\n      sub\n      0x1f\n      and\n      dup3\n      add\n      swap2\n    tag_63:\n      pop\n      pop\n      pop\n      pop\n      pop\n      swap1\n      dup1\n      0x05\n      add\n      dup1\n      sload\n      tag_66\n      swap1\n      tag_41\n      jump\t// in\n    tag_66:\n      dup1\n      0x1f\n      add\n      0x20\n      dup1\n      swap2\n      div\n      mul\n      0x20\n      add\n      mload(0x40)\n      swap1\n      dup2\n      add\n      0x40\n      mstore\n      dup1\n      swap3\n      swap2\n      swap1\n      dup2\n      dup2\n      mstore\n      0x20\n      add\n      dup3\n      dup1\n      sload\n      tag_67\n      swap1\n      tag_41\n      jump\t// in\n    tag_67:\n      dup1\n      iszero\n      tag_68\n      jumpi\n      dup1\n      0x1f\n      lt\n      tag_69\n      jumpi\n      0x0100\n      dup1\n      dup4\n      sload\n      div\n      mul\n      dup4\n      mstore\n      swap2\n      0x20\n      add\n      swap2\n      jump(tag_68)\n    tag_69:\n      dup3\n      add\n      swap2\n      swap1\n      0x00\n      mstore\n      keccak256(0x00, 0x20)\n      swap1\n    tag_70:\n      dup2\n      sload\n      dup2\n      mstore\n      swap1\n      0x01\n      add\n      swap1\n      0x20\n      add\n      dup1\n      dup4\n      gt\n      tag_70\n      jumpi\n      dup3\n      swap1\n      sub\n      0x1f\n      and\n      dup3\n      add\n      swap2\n    tag_68:\n      pop\n      pop\n      pop\n      pop\n      pop\n      swap1\n      dup1\n      0x06\n      add\n      0x00\n      swap1\n      sload\n      swap1\n      0x0100\n      exp\n      swap1\n      div\n      0x00\n      signextend\n      swap1\n      dup1\n      0x06\n      add\n      0x01\n      swap1\n      sload\n      swap1\n      0x0100\n      exp\n      swap1\n      div\n      0xffffffffffffffffffffffffffffffffffffffff\n      and\n      swap1\n      pop\n      dup9\n      jump\t// out\n        /* \"tc_avax.sol\":1136:2084  function pushData (string memory _date,... */\n    tag_23:\n        /* \"tc_avax.sol\":1478:1496  100000000000000000 */\n      0x016345785d8a0000\n        /* \"tc_avax.sol\":994:1000  amount */\n      dup1\n        /* \"tc_avax.sol\":981:990  msg.value */\n      callvalue\n        /* \"tc_avax.sol\":981:1000  msg.value >= amount */\n      lt\n      iszero\n        /* \"tc_avax.sol\":973:1041  require(msg.value >= amount, \"No tiene saldo en AVAX para ejecutar\") */\n      tag_72\n      jumpi\n      mload(0x40)\n      0x08c379a000000000000000000000000000000000000000000000000000000000\n      dup2\n      mstore\n      0x04\n      add\n      tag_73\n      swap1\n      tag_74\n      jump\t// in\n    tag_73:\n      mload(0x40)\n      dup1\n      swap2\n      sub\n      swap1\n      revert\n    tag_72:\n        /* \"tc_avax.sol\":1525:1788  Data (_date,... */\n      mload(0x40)\n      dup1\n      0x0100\n      add\n      0x40\n      mstore\n      dup1\n        /* \"tc_avax.sol\":1531:1536  _date */\n      dup10\n        /* \"tc_avax.sol\":1525:1788  Data (_date,... */\n      dup2\n      mstore\n      0x20\n      add\n        /* \"tc_avax.sol\":1560:1574  _delivery_date */\n      dup9\n        /* \"tc_avax.sol\":1525:1788  Data (_date,... */\n      dup2\n      mstore\n      0x20\n      add\n        /* \"tc_avax.sol\":1598:1606  _product */\n      dup8\n        /* \"tc_avax.sol\":1525:1788  Data (_date,... */\n      dup2\n      mstore\n      0x20\n      add\n        /* \"tc_avax.sol\":1630:1636  _price */\n      dup7\n        /* \"tc_avax.sol\":1525:1788  Data (_date,... */\n      dup2\n      mstore\n      0x20\n      add\n        /* \"tc_avax.sol\":1660:1665  _code */\n      dup6\n        /* \"tc_avax.sol\":1525:1788  Data (_date,... */\n      dup2\n      mstore\n      0x20\n      add\n        /* \"tc_avax.sol\":1689:1700  _cel_number */\n      dup5\n        /* \"tc_avax.sol\":1525:1788  Data (_date,... */\n      dup2\n      mstore\n      0x20\n      add\n        /* \"tc_avax.sol\":1724:1730  status */\n      dup4\n        /* \"tc_avax.sol\":1525:1788  Data (_date,... */\n      0x00\n      signextend\n      dup2\n      mstore\n      0x20\n      add\n        /* \"tc_avax.sol\":1754:1764  msg.sender */\n      caller\n        /* \"tc_avax.sol\":1525:1788  Data (_date,... */\n      0xffffffffffffffffffffffffffffffffffffffff\n      and\n      dup2\n      mstore\n      pop\n        /* \"tc_avax.sol\":1518:1522  data */\n      0x01\n        /* \"tc_avax.sol\":1518:1788  data = Data (_date,... */\n      0x00\n      dup3\n      add\n      mload\n      dup2\n      0x00\n      add\n      swap1\n      dup2\n      tag_76\n      swap2\n      swap1\n      tag_77\n      jump\t// in\n    tag_76:\n      pop\n      0x20\n      dup3\n      add\n      mload\n      dup2\n      0x01\n      add\n      swap1\n      dup2\n      tag_78\n      swap2\n      swap1\n      tag_77\n      jump\t// in\n    tag_78:\n      pop\n      0x40\n      dup3\n      add\n      mload\n      dup2\n      0x02\n      add\n      swap1\n      dup2\n      tag_79\n      swap2\n      swap1\n      tag_77\n      jump\t// in\n    tag_79:\n      pop\n      0x60\n      dup3\n      add\n      mload\n      dup2\n      0x03\n      add\n      swap1\n      dup2\n      tag_80\n      swap2\n      swap1\n      tag_77\n      jump\t// in\n    tag_80:\n      pop\n      0x80\n      dup3\n      add\n      mload\n      dup2\n      0x04\n      add\n      swap1\n      dup2\n      tag_81\n      swap2\n      swap1\n      tag_77\n      jump\t// in\n    tag_81:\n      pop\n      0xa0\n      dup3\n      add\n      mload\n      dup2\n      0x05\n      add\n      swap1\n      dup2\n      tag_82\n      swap2\n      swap1\n      tag_77\n      jump\t// in\n    tag_82:\n      pop\n      0xc0\n      dup3\n      add\n      mload\n      dup2\n      0x06\n      add\n      exp(0x0100, 0x00)\n      dup2\n      sload\n      dup2\n      0xff\n      mul\n      not\n      and\n      swap1\n      dup4\n      0x00\n      signextend\n      0xff\n      and\n      mul\n      or\n      swap1\n      sstore\n      pop\n      0xe0\n      dup3\n      add\n      mload\n      dup2\n      0x06\n      add\n      exp(0x0100, 0x01)\n      dup2\n      sload\n      dup2\n      0xffffffffffffffffffffffffffffffffffffffff\n      mul\n      not\n      and\n      swap1\n      dup4\n      0xffffffffffffffffffffffffffffffffffffffff\n      and\n      mul\n      or\n      swap1\n      sstore\n      pop\n      swap1\n      pop\n      pop\n        /* \"tc_avax.sol\":1829:2072  newData (_date,... */\n      0x870247eb151fd35c4907322d059c22cbe7eb7930b7b7116d4a107cbbb5378d12\n        /* \"tc_avax.sol\":1838:1843  _date */\n      dup9\n        /* \"tc_avax.sol\":1867:1881  _delivery_date */\n      dup9\n        /* \"tc_avax.sol\":1905:1913  _product */\n      dup9\n        /* \"tc_avax.sol\":1937:1943  _price */\n      dup9\n        /* \"tc_avax.sol\":1967:1972  _code */\n      dup9\n        /* \"tc_avax.sol\":1996:2007  _cel_number */\n      dup9\n        /* \"tc_avax.sol\":2031:2037  status */\n      dup9\n        /* \"tc_avax.sol\":2061:2071  msg.sender */\n      caller\n        /* \"tc_avax.sol\":1829:2072  newData (_date,... */\n      mload(0x40)\n      tag_83\n      swap9\n      swap8\n      swap7\n      swap6\n      swap5\n      swap4\n      swap3\n      swap2\n      swap1\n      tag_19\n      jump\t// in\n    tag_83:\n      mload(0x40)\n      dup1\n      swap2\n      sub\n      swap1\n      log1\n        /* \"tc_avax.sol\":1136:2084  function pushData (string memory _date,... */\n      pop\n      pop\n      pop\n      pop\n      pop\n      pop\n      pop\n      pop\n      jump\t// out\n        /* \"tc_avax.sol\":157:185  address payable public owner */\n    tag_26:\n      0x00\n      dup1\n      sload\n      swap1\n      0x0100\n      exp\n      swap1\n      div\n      0xffffffffffffffffffffffffffffffffffffffff\n      and\n      dup2\n      jump\t// out\n        /* \"#utility.yul\":7:84   */\n    tag_84:\n        /* \"#utility.yul\":44:51   */\n      0x00\n        /* \"#utility.yul\":73:78   */\n      dup2\n        /* \"#utility.yul\":62:78   */\n      swap1\n      pop\n        /* \"#utility.yul\":7:84   */\n      swap2\n      swap1\n      pop\n      jump\t// out\n        /* \"#utility.yul\":90:208   */\n    tag_85:\n        /* \"#utility.yul\":177:201   */\n      tag_137\n        /* \"#utility.yul\":195:200   */\n      dup2\n        /* \"#utility.yul\":177:201   */\n      tag_84\n      jump\t// in\n    tag_137:\n        /* \"#utility.yul\":172:175   */\n      dup3\n        /* \"#utility.yul\":165:202   */\n      mstore\n        /* \"#utility.yul\":90:208   */\n      pop\n      pop\n      jump\t// out\n        /* \"#utility.yul\":214:436   */\n    tag_11:\n        /* \"#utility.yul\":307:311   */\n      0x00\n        /* \"#utility.yul\":345:347   */\n      0x20\n        /* \"#utility.yul\":334:343   */\n      dup3\n        /* \"#utility.yul\":330:348   */\n      add\n        /* \"#utility.yul\":322:348   */\n      swap1\n      pop\n        /* \"#utility.yul\":358:429   */\n      tag_139\n        /* \"#utility.yul\":426:427   */\n      0x00\n        /* \"#utility.yul\":415:424   */\n      dup4\n        /* \"#utility.yul\":411:428   */\n      add\n        /* \"#utility.yul\":402:408   */\n      dup5\n        /* \"#utility.yul\":358:429   */\n      tag_85\n      jump\t// in\n    tag_139:\n        /* \"#utility.yul\":214:436   */\n      swap3\n      swap2\n      pop\n      pop\n      jump\t// out\n        /* \"#utility.yul\":442:541   */\n    tag_86:\n        /* \"#utility.yul\":494:500   */\n      0x00\n        /* \"#utility.yul\":528:533   */\n      dup2\n        /* \"#utility.yul\":522:534   */\n      mload\n        /* \"#utility.yul\":512:534   */\n      swap1\n      pop\n        /* \"#utility.yul\":442:541   */\n      swap2\n      swap1\n      pop\n      jump\t// out\n        /* \"#utility.yul\":547:716   */\n    tag_87:\n        /* \"#utility.yul\":631:642   */\n      0x00\n        /* \"#utility.yul\":665:671   */\n      dup3\n        /* \"#utility.yul\":660:663   */\n      dup3\n        /* \"#utility.yul\":653:672   */\n      mstore\n        /* \"#utility.yul\":705:709   */\n      0x20\n        /* \"#utility.yul\":700:703   */\n      dup3\n        /* \"#utility.yul\":696:710   */\n      add\n        /* \"#utility.yul\":681:710   */\n      swap1\n      pop\n        /* \"#utility.yul\":547:716   */\n      swap3\n      swap2\n      pop\n      pop\n      jump\t// out\n        /* \"#utility.yul\":722:968   */\n    tag_88:\n        /* \"#utility.yul\":803:804   */\n      0x00\n        /* \"#utility.yul\":813:926   */\n    tag_143:\n        /* \"#utility.yul\":827:833   */\n      dup4\n        /* \"#utility.yul\":824:825   */\n      dup2\n        /* \"#utility.yul\":821:834   */\n      lt\n        /* \"#utility.yul\":813:926   */\n      iszero\n      tag_145\n      jumpi\n        /* \"#utility.yul\":912:913   */\n      dup1\n        /* \"#utility.yul\":907:910   */\n      dup3\n        /* \"#utility.yul\":903:914   */\n      add\n        /* \"#utility.yul\":897:915   */\n      mload\n        /* \"#utility.yul\":893:894   */\n      dup2\n        /* \"#utility.yul\":888:891   */\n      dup5\n        /* \"#utility.yul\":884:895   */\n      add\n        /* \"#utility.yul\":877:916   */\n      mstore\n        /* \"#utility.yul\":849:851   */\n      0x20\n        /* \"#utility.yul\":846:847   */\n      dup2\n        /* \"#utility.yul\":842:852   */\n      add\n        /* \"#utility.yul\":837:852   */\n      swap1\n      pop\n        /* \"#utility.yul\":813:926   */\n      jump(tag_143)\n    tag_145:\n        /* \"#utility.yul\":960:961   */\n      0x00\n        /* \"#utility.yul\":951:957   */\n      dup5\n        /* \"#utility.yul\":946:949   */\n      dup5\n        /* \"#utility.yul\":942:958   */\n      add\n        /* \"#utility.yul\":935:962   */\n      mstore\n        /* \"#utility.yul\":784:968   */\n      pop\n        /* \"#utility.yul\":722:968   */\n      pop\n      pop\n      pop\n      jump\t// out\n        /* \"#utility.yul\":974:1076   */\n    tag_89:\n        /* \"#utility.yul\":1015:1021   */\n      0x00\n        /* \"#utility.yul\":1066:1068   */\n      0x1f\n        /* \"#utility.yul\":1062:1069   */\n      not\n        /* \"#utility.yul\":1057:1059   */\n      0x1f\n        /* \"#utility.yul\":1050:1055   */\n      dup4\n        /* \"#utility.yul\":1046:1060   */\n      add\n        /* \"#utility.yul\":1042:1070   */\n      and\n        /* \"#utility.yul\":1032:1070   */\n      swap1\n      pop\n        /* \"#utility.yul\":974:1076   */\n      swap2\n      swap1\n      pop\n      jump\t// out\n        /* \"#utility.yul\":1082:1459   */\n    tag_90:\n        /* \"#utility.yul\":1170:1173   */\n      0x00\n        /* \"#utility.yul\":1198:1237   */\n      tag_148\n        /* \"#utility.yul\":1231:1236   */\n      dup3\n        /* \"#utility.yul\":1198:1237   */\n      tag_86\n      jump\t// in\n    tag_148:\n        /* \"#utility.yul\":1253:1324   */\n      tag_149\n        /* \"#utility.yul\":1317:1323   */\n      dup2\n        /* \"#utility.yul\":1312:1315   */\n      dup6\n        /* \"#utility.yul\":1253:1324   */\n      tag_87\n      jump\t// in\n    tag_149:\n        /* \"#utility.yul\":1246:1324   */\n      swap4\n      pop\n        /* \"#utility.yul\":1333:1398   */\n      tag_150\n        /* \"#utility.yul\":1391:1397   */\n      dup2\n        /* \"#utility.yul\":1386:1389   */\n      dup6\n        /* \"#utility.yul\":1379:1383   */\n      0x20\n        /* \"#utility.yul\":1372:1377   */\n      dup7\n        /* \"#utility.yul\":1368:1384   */\n      add\n        /* \"#utility.yul\":1333:1398   */\n      tag_88\n      jump\t// in\n    tag_150:\n        /* \"#utility.yul\":1423:1452   */\n      tag_151\n        /* \"#utility.yul\":1445:1451   */\n      dup2\n        /* \"#utility.yul\":1423:1452   */\n      tag_89\n      jump\t// in\n    tag_151:\n        /* \"#utility.yul\":1418:1421   */\n      dup5\n        /* \"#utility.yul\":1414:1453   */\n      add\n        /* \"#utility.yul\":1407:1453   */\n      swap2\n      pop\n        /* \"#utility.yul\":1174:1459   */\n      pop\n        /* \"#utility.yul\":1082:1459   */\n      swap3\n      swap2\n      pop\n      pop\n      jump\t// out\n        /* \"#utility.yul\":1465:1554   */\n    tag_91:\n        /* \"#utility.yul\":1499:1506   */\n      0x00\n        /* \"#utility.yul\":1542:1547   */\n      dup2\n        /* \"#utility.yul\":1539:1540   */\n      0x00\n        /* \"#utility.yul\":1528:1548   */\n      signextend\n        /* \"#utility.yul\":1517:1548   */\n      swap1\n      pop\n        /* \"#utility.yul\":1465:1554   */\n      swap2\n      swap1\n      pop\n      jump\t// out\n        /* \"#utility.yul\":1560:1669   */\n    tag_92:\n        /* \"#utility.yul\":1641:1662   */\n      tag_154\n        /* \"#utility.yul\":1656:1661   */\n      dup2\n        /* \"#utility.yul\":1641:1662   */\n      tag_91\n      jump\t// in\n    tag_154:\n        /* \"#utility.yul\":1636:1639   */\n      dup3\n        /* \"#utility.yul\":1629:1663   */\n      mstore\n        /* \"#utility.yul\":1560:1669   */\n      pop\n      pop\n      jump\t// out\n        /* \"#utility.yul\":1675:1801   */\n    tag_93:\n        /* \"#utility.yul\":1712:1719   */\n      0x00\n        /* \"#utility.yul\":1752:1794   */\n      0xffffffffffffffffffffffffffffffffffffffff\n        /* \"#utility.yul\":1745:1750   */\n      dup3\n        /* \"#utility.yul\":1741:1795   */\n      and\n        /* \"#utility.yul\":1730:1795   */\n      swap1\n      pop\n        /* \"#utility.yul\":1675:1801   */\n      swap2\n      swap1\n      pop\n      jump\t// out\n        /* \"#utility.yul\":1807:1903   */\n    tag_94:\n        /* \"#utility.yul\":1844:1851   */\n      0x00\n        /* \"#utility.yul\":1873:1897   */\n      tag_157\n        /* \"#utility.yul\":1891:1896   */\n      dup3\n        /* \"#utility.yul\":1873:1897   */\n      tag_93\n      jump\t// in\n    tag_157:\n        /* \"#utility.yul\":1862:1897   */\n      swap1\n      pop\n        /* \"#utility.yul\":1807:1903   */\n      swap2\n      swap1\n      pop\n      jump\t// out\n        /* \"#utility.yul\":1909:2027   */\n    tag_95:\n        /* \"#utility.yul\":1996:2020   */\n      tag_159\n        /* \"#utility.yul\":2014:2019   */\n      dup2\n        /* \"#utility.yul\":1996:2020   */\n      tag_94\n      jump\t// in\n    tag_159:\n        /* \"#utility.yul\":1991:1994   */\n      dup3\n        /* \"#utility.yul\":1984:2021   */\n      mstore\n        /* \"#utility.yul\":1909:2027   */\n      pop\n      pop\n      jump\t// out\n        /* \"#utility.yul\":2033:3564   */\n    tag_19:\n        /* \"#utility.yul\":2436:2440   */\n      0x00\n        /* \"#utility.yul\":2474:2477   */\n      0x0100\n        /* \"#utility.yul\":2463:2472   */\n      dup3\n        /* \"#utility.yul\":2459:2478   */\n      add\n        /* \"#utility.yul\":2451:2478   */\n      swap1\n      pop\n        /* \"#utility.yul\":2524:2533   */\n      dup2\n        /* \"#utility.yul\":2518:2522   */\n      dup2\n        /* \"#utility.yul\":2514:2534   */\n      sub\n        /* \"#utility.yul\":2510:2511   */\n      0x00\n        /* \"#utility.yul\":2499:2508   */\n      dup4\n        /* \"#utility.yul\":2495:2512   */\n      add\n        /* \"#utility.yul\":2488:2535   */\n      mstore\n        /* \"#utility.yul\":2552:2630   */\n      tag_161\n        /* \"#utility.yul\":2625:2629   */\n      dup2\n        /* \"#utility.yul\":2616:2622   */\n      dup12\n        /* \"#utility.yul\":2552:2630   */\n      tag_90\n      jump\t// in\n    tag_161:\n        /* \"#utility.yul\":2544:2630   */\n      swap1\n      pop\n        /* \"#utility.yul\":2677:2686   */\n      dup2\n        /* \"#utility.yul\":2671:2675   */\n      dup2\n        /* \"#utility.yul\":2667:2687   */\n      sub\n        /* \"#utility.yul\":2662:2664   */\n      0x20\n        /* \"#utility.yul\":2651:2660   */\n      dup4\n        /* \"#utility.yul\":2647:2665   */\n      add\n        /* \"#utility.yul\":2640:2688   */\n      mstore\n        /* \"#utility.yul\":2705:2783   */\n      tag_162\n        /* \"#utility.yul\":2778:2782   */\n      dup2\n        /* \"#utility.yul\":2769:2775   */\n      dup11\n        /* \"#utility.yul\":2705:2783   */\n      tag_90\n      jump\t// in\n    tag_162:\n        /* \"#utility.yul\":2697:2783   */\n      swap1\n      pop\n        /* \"#utility.yul\":2830:2839   */\n      dup2\n        /* \"#utility.yul\":2824:2828   */\n      dup2\n        /* \"#utility.yul\":2820:2840   */\n      sub\n        /* \"#utility.yul\":2815:2817   */\n      0x40\n        /* \"#utility.yul\":2804:2813   */\n      dup4\n        /* \"#utility.yul\":2800:2818   */\n      add\n        /* \"#utility.yul\":2793:2841   */\n      mstore\n        /* \"#utility.yul\":2858:2936   */\n      tag_163\n        /* \"#utility.yul\":2931:2935   */\n      dup2\n        /* \"#utility.yul\":2922:2928   */\n      dup10\n        /* \"#utility.yul\":2858:2936   */\n      tag_90\n      jump\t// in\n    tag_163:\n        /* \"#utility.yul\":2850:2936   */\n      swap1\n      pop\n        /* \"#utility.yul\":2983:2992   */\n      dup2\n        /* \"#utility.yul\":2977:2981   */\n      dup2\n        /* \"#utility.yul\":2973:2993   */\n      sub\n        /* \"#utility.yul\":2968:2970   */\n      0x60\n        /* \"#utility.yul\":2957:2966   */\n      dup4\n        /* \"#utility.yul\":2953:2971   */\n      add\n        /* \"#utility.yul\":2946:2994   */\n      mstore\n        /* \"#utility.yul\":3011:3089   */\n      tag_164\n        /* \"#utility.yul\":3084:3088   */\n      dup2\n        /* \"#utility.yul\":3075:3081   */\n      dup9\n        /* \"#utility.yul\":3011:3089   */\n      tag_90\n      jump\t// in\n    tag_164:\n        /* \"#utility.yul\":3003:3089   */\n      swap1\n      pop\n        /* \"#utility.yul\":3137:3146   */\n      dup2\n        /* \"#utility.yul\":3131:3135   */\n      dup2\n        /* \"#utility.yul\":3127:3147   */\n      sub\n        /* \"#utility.yul\":3121:3124   */\n      0x80\n        /* \"#utility.yul\":3110:3119   */\n      dup4\n        /* \"#utility.yul\":3106:3125   */\n      add\n        /* \"#utility.yul\":3099:3148   */\n      mstore\n        /* \"#utility.yul\":3165:3243   */\n      tag_165\n        /* \"#utility.yul\":3238:3242   */\n      dup2\n        /* \"#utility.yul\":3229:3235   */\n      dup8\n        /* \"#utility.yul\":3165:3243   */\n      tag_90\n      jump\t// in\n    tag_165:\n        /* \"#utility.yul\":3157:3243   */\n      swap1\n      pop\n        /* \"#utility.yul\":3291:3300   */\n      dup2\n        /* \"#utility.yul\":3285:3289   */\n      dup2\n        /* \"#utility.yul\":3281:3301   */\n      sub\n        /* \"#utility.yul\":3275:3278   */\n      0xa0\n        /* \"#utility.yul\":3264:3273   */\n      dup4\n        /* \"#utility.yul\":3260:3279   */\n      add\n        /* \"#utility.yul\":3253:3302   */\n      mstore\n        /* \"#utility.yul\":3319:3397   */\n      tag_166\n        /* \"#utility.yul\":3392:3396   */\n      dup2\n        /* \"#utility.yul\":3383:3389   */\n      dup7\n        /* \"#utility.yul\":3319:3397   */\n      tag_90\n      jump\t// in\n    tag_166:\n        /* \"#utility.yul\":3311:3397   */\n      swap1\n      pop\n        /* \"#utility.yul\":3407:3474   */\n      tag_167\n        /* \"#utility.yul\":3469:3472   */\n      0xc0\n        /* \"#utility.yul\":3458:3467   */\n      dup4\n        /* \"#utility.yul\":3454:3473   */\n      add\n        /* \"#utility.yul\":3445:3451   */\n      dup6\n        /* \"#utility.yul\":3407:3474   */\n      tag_92\n      jump\t// in\n    tag_167:\n        /* \"#utility.yul\":3484:3557   */\n      tag_168\n        /* \"#utility.yul\":3552:3555   */\n      0xe0\n        /* \"#utility.yul\":3541:3550   */\n      dup4\n        /* \"#utility.yul\":3537:3556   */\n      add\n        /* \"#utility.yul\":3528:3534   */\n      dup5\n        /* \"#utility.yul\":3484:3557   */\n      tag_95\n      jump\t// in\n    tag_168:\n        /* \"#utility.yul\":2033:3564   */\n      swap10\n      swap9\n      pop\n      pop\n      pop\n      pop\n      pop\n      pop\n      pop\n      pop\n      pop\n      jump\t// out\n        /* \"#utility.yul\":3570:3645   */\n    tag_96:\n        /* \"#utility.yul\":3603:3609   */\n      0x00\n        /* \"#utility.yul\":3636:3638   */\n      0x40\n        /* \"#utility.yul\":3630:3639   */\n      mload\n        /* \"#utility.yul\":3620:3639   */\n      swap1\n      pop\n        /* \"#utility.yul\":3570:3645   */\n      swap1\n      jump\t// out\n        /* \"#utility.yul\":3651:3768   */\n    tag_97:\n        /* \"#utility.yul\":3760:3761   */\n      0x00\n        /* \"#utility.yul\":3757:3758   */\n      dup1\n        /* \"#utility.yul\":3750:3762   */\n      revert\n        /* \"#utility.yul\":3774:3891   */\n    tag_98:\n        /* \"#utility.yul\":3883:3884   */\n      0x00\n        /* \"#utility.yul\":3880:3881   */\n      dup1\n        /* \"#utility.yul\":3873:3885   */\n      revert\n        /* \"#utility.yul\":3897:4014   */\n    tag_99:\n        /* \"#utility.yul\":4006:4007   */\n      0x00\n        /* \"#utility.yul\":4003:4004   */\n      dup1\n        /* \"#utility.yul\":3996:4008   */\n      revert\n        /* \"#utility.yul\":4020:4137   */\n    tag_100:\n        /* \"#utility.yul\":4129:4130   */\n      0x00\n        /* \"#utility.yul\":4126:4127   */\n      dup1\n        /* \"#utility.yul\":4119:4131   */\n      revert\n        /* \"#utility.yul\":4143:4323   */\n    tag_101:\n        /* \"#utility.yul\":4191:4268   */\n      0x4e487b7100000000000000000000000000000000000000000000000000000000\n        /* \"#utility.yul\":4188:4189   */\n      0x00\n        /* \"#utility.yul\":4181:4269   */\n      mstore\n        /* \"#utility.yul\":4288:4292   */\n      0x41\n        /* \"#utility.yul\":4285:4286   */\n      0x04\n        /* \"#utility.yul\":4278:4293   */\n      mstore\n        /* \"#utility.yul\":4312:4316   */\n      0x24\n        /* \"#utility.yul\":4309:4310   */\n      0x00\n        /* \"#utility.yul\":4302:4317   */\n      revert\n        /* \"#utility.yul\":4329:4610   */\n    tag_102:\n        /* \"#utility.yul\":4412:4439   */\n      tag_176\n        /* \"#utility.yul\":4434:4438   */\n      dup3\n        /* \"#utility.yul\":4412:4439   */\n      tag_89\n      jump\t// in\n    tag_176:\n        /* \"#utility.yul\":4404:4410   */\n      dup2\n        /* \"#utility.yul\":4400:4440   */\n      add\n        /* \"#utility.yul\":4542:4548   */\n      dup2\n        /* \"#utility.yul\":4530:4540   */\n      dup2\n        /* \"#utility.yul\":4527:4549   */\n      lt\n        /* \"#utility.yul\":4506:4524   */\n      0xffffffffffffffff\n        /* \"#utility.yul\":4494:4504   */\n      dup3\n        /* \"#utility.yul\":4491:4525   */\n      gt\n        /* \"#utility.yul\":4488:4550   */\n      or\n        /* \"#utility.yul\":4485:4573   */\n      iszero\n      tag_177\n      jumpi\n        /* \"#utility.yul\":4553:4571   */\n      tag_178\n      tag_101\n      jump\t// in\n    tag_178:\n        /* \"#utility.yul\":4485:4573   */\n    tag_177:\n        /* \"#utility.yul\":4593:4603   */\n      dup1\n        /* \"#utility.yul\":4589:4591   */\n      0x40\n        /* \"#utility.yul\":4582:4604   */\n      mstore\n        /* \"#utility.yul\":4372:4610   */\n      pop\n        /* \"#utility.yul\":4329:4610   */\n      pop\n      pop\n      jump\t// out\n        /* \"#utility.yul\":4616:4745   */\n    tag_103:\n        /* \"#utility.yul\":4650:4656   */\n      0x00\n        /* \"#utility.yul\":4677:4697   */\n      tag_180\n      tag_96\n      jump\t// in\n    tag_180:\n        /* \"#utility.yul\":4667:4697   */\n      swap1\n      pop\n        /* \"#utility.yul\":4706:4739   */\n      tag_181\n        /* \"#utility.yul\":4734:4738   */\n      dup3\n        /* \"#utility.yul\":4726:4732   */\n      dup3\n        /* \"#utility.yul\":4706:4739   */\n      tag_102\n      jump\t// in\n    tag_181:\n        /* \"#utility.yul\":4616:4745   */\n      swap2\n      swap1\n      pop\n      jump\t// out\n        /* \"#utility.yul\":4751:5059   */\n    tag_104:\n        /* \"#utility.yul\":4813:4817   */\n      0x00\n        /* \"#utility.yul\":4903:4921   */\n      0xffffffffffffffff\n        /* \"#utility.yul\":4895:4901   */\n      dup3\n        /* \"#utility.yul\":4892:4922   */\n      gt\n        /* \"#utility.yul\":4889:4945   */\n      iszero\n      tag_183\n      jumpi\n        /* \"#utility.yul\":4925:4943   */\n      tag_184\n      tag_101\n      jump\t// in\n    tag_184:\n        /* \"#utility.yul\":4889:4945   */\n    tag_183:\n        /* \"#utility.yul\":4963:4992   */\n      tag_185\n        /* \"#utility.yul\":4985:4991   */\n      dup3\n        /* \"#utility.yul\":4963:4992   */\n      tag_89\n      jump\t// in\n    tag_185:\n        /* \"#utility.yul\":4955:4992   */\n      swap1\n      pop\n        /* \"#utility.yul\":5047:5051   */\n      0x20\n        /* \"#utility.yul\":5041:5045   */\n      dup2\n        /* \"#utility.yul\":5037:5052   */\n      add\n        /* \"#utility.yul\":5029:5052   */\n      swap1\n      pop\n        /* \"#utility.yul\":4751:5059   */\n      swap2\n      swap1\n      pop\n      jump\t// out\n        /* \"#utility.yul\":5065:5211   */\n    tag_105:\n        /* \"#utility.yul\":5162:5168   */\n      dup3\n        /* \"#utility.yul\":5157:5160   */\n      dup2\n        /* \"#utility.yul\":5152:5155   */\n      dup4\n        /* \"#utility.yul\":5139:5169   */\n      calldatacopy\n        /* \"#utility.yul\":5203:5204   */\n      0x00\n        /* \"#utility.yul\":5194:5200   */\n      dup4\n        /* \"#utility.yul\":5189:5192   */\n      dup4\n        /* \"#utility.yul\":5185:5201   */\n      add\n        /* \"#utility.yul\":5178:5205   */\n      mstore\n        /* \"#utility.yul\":5065:5211   */\n      pop\n      pop\n      pop\n      jump\t// out\n        /* \"#utility.yul\":5217:5642   */\n    tag_106:\n        /* \"#utility.yul\":5295:5300   */\n      0x00\n        /* \"#utility.yul\":5320:5386   */\n      tag_188\n        /* \"#utility.yul\":5336:5385   */\n      tag_189\n        /* \"#utility.yul\":5378:5384   */\n      dup5\n        /* \"#utility.yul\":5336:5385   */\n      tag_104\n      jump\t// in\n    tag_189:\n        /* \"#utility.yul\":5320:5386   */\n      tag_103\n      jump\t// in\n    tag_188:\n        /* \"#utility.yul\":5311:5386   */\n      swap1\n      pop\n        /* \"#utility.yul\":5409:5415   */\n      dup3\n        /* \"#utility.yul\":5402:5407   */\n      dup2\n        /* \"#utility.yul\":5395:5416   */\n      mstore\n        /* \"#utility.yul\":5447:5451   */\n      0x20\n        /* \"#utility.yul\":5440:5445   */\n      dup2\n        /* \"#utility.yul\":5436:5452   */\n      add\n        /* \"#utility.yul\":5485:5488   */\n      dup5\n        /* \"#utility.yul\":5476:5482   */\n      dup5\n        /* \"#utility.yul\":5471:5474   */\n      dup5\n        /* \"#utility.yul\":5467:5483   */\n      add\n        /* \"#utility.yul\":5464:5489   */\n      gt\n        /* \"#utility.yul\":5461:5573   */\n      iszero\n      tag_190\n      jumpi\n        /* \"#utility.yul\":5492:5571   */\n      tag_191\n      tag_100\n      jump\t// in\n    tag_191:\n        /* \"#utility.yul\":5461:5573   */\n    tag_190:\n        /* \"#utility.yul\":5582:5636   */\n      tag_192\n        /* \"#utility.yul\":5629:5635   */\n      dup5\n        /* \"#utility.yul\":5624:5627   */\n      dup3\n        /* \"#utility.yul\":5619:5622   */\n      dup6\n        /* \"#utility.yul\":5582:5636   */\n      tag_105\n      jump\t// in\n    tag_192:\n        /* \"#utility.yul\":5301:5642   */\n      pop\n        /* \"#utility.yul\":5217:5642   */\n      swap4\n      swap3\n      pop\n      pop\n      pop\n      jump\t// out\n        /* \"#utility.yul\":5662:6002   */\n    tag_107:\n        /* \"#utility.yul\":5718:5723   */\n      0x00\n        /* \"#utility.yul\":5767:5770   */\n      dup3\n        /* \"#utility.yul\":5760:5764   */\n      0x1f\n        /* \"#utility.yul\":5752:5758   */\n      dup4\n        /* \"#utility.yul\":5748:5765   */\n      add\n        /* \"#utility.yul\":5744:5771   */\n      slt\n        /* \"#utility.yul\":5734:5856   */\n      tag_194\n      jumpi\n        /* \"#utility.yul\":5775:5854   */\n      tag_195\n      tag_99\n      jump\t// in\n    tag_195:\n        /* \"#utility.yul\":5734:5856   */\n    tag_194:\n        /* \"#utility.yul\":5892:5898   */\n      dup2\n        /* \"#utility.yul\":5879:5899   */\n      calldataload\n        /* \"#utility.yul\":5917:5996   */\n      tag_196\n        /* \"#utility.yul\":5992:5995   */\n      dup5\n        /* \"#utility.yul\":5984:5990   */\n      dup3\n        /* \"#utility.yul\":5977:5981   */\n      0x20\n        /* \"#utility.yul\":5969:5975   */\n      dup7\n        /* \"#utility.yul\":5965:5982   */\n      add\n        /* \"#utility.yul\":5917:5996   */\n      tag_106\n      jump\t// in\n    tag_196:\n        /* \"#utility.yul\":5908:5996   */\n      swap2\n      pop\n        /* \"#utility.yul\":5724:6002   */\n      pop\n        /* \"#utility.yul\":5662:6002   */\n      swap3\n      swap2\n      pop\n      pop\n      jump\t// out\n        /* \"#utility.yul\":6008:6124   */\n    tag_108:\n        /* \"#utility.yul\":6078:6099   */\n      tag_198\n        /* \"#utility.yul\":6093:6098   */\n      dup2\n        /* \"#utility.yul\":6078:6099   */\n      tag_91\n      jump\t// in\n    tag_198:\n        /* \"#utility.yul\":6071:6076   */\n      dup2\n        /* \"#utility.yul\":6068:6100   */\n      eq\n        /* \"#utility.yul\":6058:6118   */\n      tag_199\n      jumpi\n        /* \"#utility.yul\":6114:6115   */\n      0x00\n        /* \"#utility.yul\":6111:6112   */\n      dup1\n        /* \"#utility.yul\":6104:6116   */\n      revert\n        /* \"#utility.yul\":6058:6118   */\n    tag_199:\n        /* \"#utility.yul\":6008:6124   */\n      pop\n      jump\t// out\n        /* \"#utility.yul\":6130:6263   */\n    tag_109:\n        /* \"#utility.yul\":6173:6178   */\n      0x00\n        /* \"#utility.yul\":6211:6217   */\n      dup2\n        /* \"#utility.yul\":6198:6218   */\n      calldataload\n        /* \"#utility.yul\":6189:6218   */\n      swap1\n      pop\n        /* \"#utility.yul\":6227:6257   */\n      tag_201\n        /* \"#utility.yul\":6251:6256   */\n      dup2\n        /* \"#utility.yul\":6227:6257   */\n      tag_108\n      jump\t// in\n    tag_201:\n        /* \"#utility.yul\":6130:6263   */\n      swap3\n      swap2\n      pop\n      pop\n      jump\t// out\n        /* \"#utility.yul\":6269:8546   */\n    tag_22:\n        /* \"#utility.yul\":6439:6445   */\n      0x00\n        /* \"#utility.yul\":6447:6453   */\n      dup1\n        /* \"#utility.yul\":6455:6461   */\n      0x00\n        /* \"#utility.yul\":6463:6469   */\n      dup1\n        /* \"#utility.yul\":6471:6477   */\n      0x00\n        /* \"#utility.yul\":6479:6485   */\n      dup1\n        /* \"#utility.yul\":6487:6493   */\n      0x00\n        /* \"#utility.yul\":6536:6539   */\n      0xe0\n        /* \"#utility.yul\":6524:6533   */\n      dup9\n        /* \"#utility.yul\":6515:6522   */\n      dup11\n        /* \"#utility.yul\":6511:6534   */\n      sub\n        /* \"#utility.yul\":6507:6540   */\n      slt\n        /* \"#utility.yul\":6504:6624   */\n      iszero\n      tag_203\n      jumpi\n        /* \"#utility.yul\":6543:6622   */\n      tag_204\n      tag_97\n      jump\t// in\n    tag_204:\n        /* \"#utility.yul\":6504:6624   */\n    tag_203:\n        /* \"#utility.yul\":6691:6692   */\n      0x00\n        /* \"#utility.yul\":6680:6689   */\n      dup9\n        /* \"#utility.yul\":6676:6693   */\n      add\n        /* \"#utility.yul\":6663:6694   */\n      calldataload\n        /* \"#utility.yul\":6721:6739   */\n      0xffffffffffffffff\n        /* \"#utility.yul\":6713:6719   */\n      dup2\n        /* \"#utility.yul\":6710:6740   */\n      gt\n        /* \"#utility.yul\":6707:6824   */\n      iszero\n      tag_205\n      jumpi\n        /* \"#utility.yul\":6743:6822   */\n      tag_206\n      tag_98\n      jump\t// in\n    tag_206:\n        /* \"#utility.yul\":6707:6824   */\n    tag_205:\n        /* \"#utility.yul\":6848:6911   */\n      tag_207\n        /* \"#utility.yul\":6903:6910   */\n      dup11\n        /* \"#utility.yul\":6894:6900   */\n      dup3\n        /* \"#utility.yul\":6883:6892   */\n      dup12\n        /* \"#utility.yul\":6879:6901   */\n      add\n        /* \"#utility.yul\":6848:6911   */\n      tag_107\n      jump\t// in\n    tag_207:\n        /* \"#utility.yul\":6838:6911   */\n      swap8\n      pop\n        /* \"#utility.yul\":6634:6921   */\n      pop\n        /* \"#utility.yul\":6988:6990   */\n      0x20\n        /* \"#utility.yul\":6977:6986   */\n      dup9\n        /* \"#utility.yul\":6973:6991   */\n      add\n        /* \"#utility.yul\":6960:6992   */\n      calldataload\n        /* \"#utility.yul\":7019:7037   */\n      0xffffffffffffffff\n        /* \"#utility.yul\":7011:7017   */\n      dup2\n        /* \"#utility.yul\":7008:7038   */\n      gt\n        /* \"#utility.yul\":7005:7122   */\n      iszero\n      tag_208\n      jumpi\n        /* \"#utility.yul\":7041:7120   */\n      tag_209\n      tag_98\n      jump\t// in\n    tag_209:\n        /* \"#utility.yul\":7005:7122   */\n    tag_208:\n        /* \"#utility.yul\":7146:7209   */\n      tag_210\n        /* \"#utility.yul\":7201:7208   */\n      dup11\n        /* \"#utility.yul\":7192:7198   */\n      dup3\n        /* \"#utility.yul\":7181:7190   */\n      dup12\n        /* \"#utility.yul\":7177:7199   */\n      add\n        /* \"#utility.yul\":7146:7209   */\n      tag_107\n      jump\t// in\n    tag_210:\n        /* \"#utility.yul\":7136:7209   */\n      swap7\n      pop\n        /* \"#utility.yul\":6931:7219   */\n      pop\n        /* \"#utility.yul\":7286:7288   */\n      0x40\n        /* \"#utility.yul\":7275:7284   */\n      dup9\n        /* \"#utility.yul\":7271:7289   */\n      add\n        /* \"#utility.yul\":7258:7290   */\n      calldataload\n        /* \"#utility.yul\":7317:7335   */\n      0xffffffffffffffff\n        /* \"#utility.yul\":7309:7315   */\n      dup2\n        /* \"#utility.yul\":7306:7336   */\n      gt\n        /* \"#utility.yul\":7303:7420   */\n      iszero\n      tag_211\n      jumpi\n        /* \"#utility.yul\":7339:7418   */\n      tag_212\n      tag_98\n      jump\t// in\n    tag_212:\n        /* \"#utility.yul\":7303:7420   */\n    tag_211:\n        /* \"#utility.yul\":7444:7507   */\n      tag_213\n        /* \"#utility.yul\":7499:7506   */\n      dup11\n        /* \"#utility.yul\":7490:7496   */\n      dup3\n        /* \"#utility.yul\":7479:7488   */\n      dup12\n        /* \"#utility.yul\":7475:7497   */\n      add\n        /* \"#utility.yul\":7444:7507   */\n      tag_107\n      jump\t// in\n    tag_213:\n        /* \"#utility.yul\":7434:7507   */\n      swap6\n      pop\n        /* \"#utility.yul\":7229:7517   */\n      pop\n        /* \"#utility.yul\":7584:7586   */\n      0x60\n        /* \"#utility.yul\":7573:7582   */\n      dup9\n        /* \"#utility.yul\":7569:7587   */\n      add\n        /* \"#utility.yul\":7556:7588   */\n      calldataload\n        /* \"#utility.yul\":7615:7633   */\n      0xffffffffffffffff\n        /* \"#utility.yul\":7607:7613   */\n      dup2\n        /* \"#utility.yul\":7604:7634   */\n      gt\n        /* \"#utility.yul\":7601:7718   */\n      iszero\n      tag_214\n      jumpi\n        /* \"#utility.yul\":7637:7716   */\n      tag_215\n      tag_98\n      jump\t// in\n    tag_215:\n        /* \"#utility.yul\":7601:7718   */\n    tag_214:\n        /* \"#utility.yul\":7742:7805   */\n      tag_216\n        /* \"#utility.yul\":7797:7804   */\n      dup11\n        /* \"#utility.yul\":7788:7794   */\n      dup3\n        /* \"#utility.yul\":7777:7786   */\n      dup12\n        /* \"#utility.yul\":7773:7795   */\n      add\n        /* \"#utility.yul\":7742:7805   */\n      tag_107\n      jump\t// in\n    tag_216:\n        /* \"#utility.yul\":7732:7805   */\n      swap5\n      pop\n        /* \"#utility.yul\":7527:7815   */\n      pop\n        /* \"#utility.yul\":7882:7885   */\n      0x80\n        /* \"#utility.yul\":7871:7880   */\n      dup9\n        /* \"#utility.yul\":7867:7886   */\n      add\n        /* \"#utility.yul\":7854:7887   */\n      calldataload\n        /* \"#utility.yul\":7914:7932   */\n      0xffffffffffffffff\n        /* \"#utility.yul\":7906:7912   */\n      dup2\n        /* \"#utility.yul\":7903:7933   */\n      gt\n        /* \"#utility.yul\":7900:8017   */\n      iszero\n      tag_217\n      jumpi\n        /* \"#utility.yul\":7936:8015   */\n      tag_218\n      tag_98\n      jump\t// in\n    tag_218:\n        /* \"#utility.yul\":7900:8017   */\n    tag_217:\n        /* \"#utility.yul\":8041:8104   */\n      tag_219\n        /* \"#utility.yul\":8096:8103   */\n      dup11\n        /* \"#utility.yul\":8087:8093   */\n      dup3\n        /* \"#utility.yul\":8076:8085   */\n      dup12\n        /* \"#utility.yul\":8072:8094   */\n      add\n        /* \"#utility.yul\":8041:8104   */\n      tag_107\n      jump\t// in\n    tag_219:\n        /* \"#utility.yul\":8031:8104   */\n      swap4\n      pop\n        /* \"#utility.yul\":7825:8114   */\n      pop\n        /* \"#utility.yul\":8181:8184   */\n      0xa0\n        /* \"#utility.yul\":8170:8179   */\n      dup9\n        /* \"#utility.yul\":8166:8185   */\n      add\n        /* \"#utility.yul\":8153:8186   */\n      calldataload\n        /* \"#utility.yul\":8213:8231   */\n      0xffffffffffffffff\n        /* \"#utility.yul\":8205:8211   */\n      dup2\n        /* \"#utility.yul\":8202:8232   */\n      gt\n        /* \"#utility.yul\":8199:8316   */\n      iszero\n      tag_220\n      jumpi\n        /* \"#utility.yul\":8235:8314   */\n      tag_221\n      tag_98\n      jump\t// in\n    tag_221:\n        /* \"#utility.yul\":8199:8316   */\n    tag_220:\n        /* \"#utility.yul\":8340:8403   */\n      tag_222\n        /* \"#utility.yul\":8395:8402   */\n      dup11\n        /* \"#utility.yul\":8386:8392   */\n      dup3\n        /* \"#utility.yul\":8375:8384   */\n      dup12\n        /* \"#utility.yul\":8371:8393   */\n      add\n        /* \"#utility.yul\":8340:8403   */\n      tag_107\n      jump\t// in\n    tag_222:\n        /* \"#utility.yul\":8330:8403   */\n      swap3\n      pop\n        /* \"#utility.yul\":8124:8413   */\n      pop\n        /* \"#utility.yul\":8452:8455   */\n      0xc0\n        /* \"#utility.yul\":8479:8529   */\n      tag_223\n        /* \"#utility.yul\":8521:8528   */\n      dup11\n        /* \"#utility.yul\":8512:8518   */\n      dup3\n        /* \"#utility.yul\":8501:8510   */\n      dup12\n        /* \"#utility.yul\":8497:8519   */\n      add\n        /* \"#utility.yul\":8479:8529   */\n      tag_109\n      jump\t// in\n    tag_223:\n        /* \"#utility.yul\":8469:8529   */\n      swap2\n      pop\n        /* \"#utility.yul\":8423:8539   */\n      pop\n        /* \"#utility.yul\":6269:8546   */\n      swap3\n      swap6\n      swap9\n      swap2\n      swap5\n      swap8\n      pop\n      swap3\n      swap6\n      pop\n      jump\t// out\n        /* \"#utility.yul\":8552:8656   */\n    tag_110:\n        /* \"#utility.yul\":8597:8604   */\n      0x00\n        /* \"#utility.yul\":8626:8650   */\n      tag_225\n        /* \"#utility.yul\":8644:8649   */\n      dup3\n        /* \"#utility.yul\":8626:8650   */\n      tag_93\n      jump\t// in\n    tag_225:\n        /* \"#utility.yul\":8615:8650   */\n      swap1\n      pop\n        /* \"#utility.yul\":8552:8656   */\n      swap2\n      swap1\n      pop\n      jump\t// out\n        /* \"#utility.yul\":8662:8804   */\n    tag_111:\n        /* \"#utility.yul\":8765:8797   */\n      tag_227\n        /* \"#utility.yul\":8791:8796   */\n      dup2\n        /* \"#utility.yul\":8765:8797   */\n      tag_110\n      jump\t// in\n    tag_227:\n        /* \"#utility.yul\":8760:8763   */\n      dup3\n        /* \"#utility.yul\":8753:8798   */\n      mstore\n        /* \"#utility.yul\":8662:8804   */\n      pop\n      pop\n      jump\t// out\n        /* \"#utility.yul\":8810:9064   */\n    tag_28:\n        /* \"#utility.yul\":8919:8923   */\n      0x00\n        /* \"#utility.yul\":8957:8959   */\n      0x20\n        /* \"#utility.yul\":8946:8955   */\n      dup3\n        /* \"#utility.yul\":8942:8960   */\n      add\n        /* \"#utility.yul\":8934:8960   */\n      swap1\n      pop\n        /* \"#utility.yul\":8970:9057   */\n      tag_229\n        /* \"#utility.yul\":9054:9055   */\n      0x00\n        /* \"#utility.yul\":9043:9052   */\n      dup4\n        /* \"#utility.yul\":9039:9056   */\n      add\n        /* \"#utility.yul\":9030:9036   */\n      dup5\n        /* \"#utility.yul\":8970:9057   */\n      tag_111\n      jump\t// in\n    tag_229:\n        /* \"#utility.yul\":8810:9064   */\n      swap3\n      swap2\n      pop\n      pop\n      jump\t// out\n        /* \"#utility.yul\":9070:9301   */\n    tag_112:\n        /* \"#utility.yul\":9210:9244   */\n      0x536f6c6f20656c2070726f706965746172696f20707565646520726574697261\n        /* \"#utility.yul\":9206:9207   */\n      0x00\n        /* \"#utility.yul\":9198:9204   */\n      dup3\n        /* \"#utility.yul\":9194:9208   */\n      add\n        /* \"#utility.yul\":9187:9245   */\n      mstore\n        /* \"#utility.yul\":9279:9293   */\n      0x72206c6f7320666f6e646f730000000000000000000000000000000000000000\n        /* \"#utility.yul\":9274:9276   */\n      0x20\n        /* \"#utility.yul\":9266:9272   */\n      dup3\n        /* \"#utility.yul\":9262:9277   */\n      add\n        /* \"#utility.yul\":9255:9294   */\n      mstore\n        /* \"#utility.yul\":9070:9301   */\n      pop\n      jump\t// out\n        /* \"#utility.yul\":9307:9673   */\n    tag_113:\n        /* \"#utility.yul\":9449:9452   */\n      0x00\n        /* \"#utility.yul\":9470:9537   */\n      tag_232\n        /* \"#utility.yul\":9534:9536   */\n      0x2c\n        /* \"#utility.yul\":9529:9532   */\n      dup4\n        /* \"#utility.yul\":9470:9537   */\n      tag_87\n      jump\t// in\n    tag_232:\n        /* \"#utility.yul\":9463:9537   */\n      swap2\n      pop\n        /* \"#utility.yul\":9546:9639   */\n      tag_233\n        /* \"#utility.yul\":9635:9638   */\n      dup3\n        /* \"#utility.yul\":9546:9639   */\n      tag_112\n      jump\t// in\n    tag_233:\n        /* \"#utility.yul\":9664:9666   */\n      0x40\n        /* \"#utility.yul\":9659:9662   */\n      dup3\n        /* \"#utility.yul\":9655:9667   */\n      add\n        /* \"#utility.yul\":9648:9667   */\n      swap1\n      pop\n        /* \"#utility.yul\":9307:9673   */\n      swap2\n      swap1\n      pop\n      jump\t// out\n        /* \"#utility.yul\":9679:10098   */\n    tag_33:\n        /* \"#utility.yul\":9845:9849   */\n      0x00\n        /* \"#utility.yul\":9883:9885   */\n      0x20\n        /* \"#utility.yul\":9872:9881   */\n      dup3\n        /* \"#utility.yul\":9868:9886   */\n      add\n        /* \"#utility.yul\":9860:9886   */\n      swap1\n      pop\n        /* \"#utility.yul\":9932:9941   */\n      dup2\n        /* \"#utility.yul\":9926:9930   */\n      dup2\n        /* \"#utility.yul\":9922:9942   */\n      sub\n        /* \"#utility.yul\":9918:9919   */\n      0x00\n        /* \"#utility.yul\":9907:9916   */\n      dup4\n        /* \"#utility.yul\":9903:9920   */\n      add\n        /* \"#utility.yul\":9896:9943   */\n      mstore\n        /* \"#utility.yul\":9960:10091   */\n      tag_235\n        /* \"#utility.yul\":10086:10090   */\n      dup2\n        /* \"#utility.yul\":9960:10091   */\n      tag_113\n      jump\t// in\n    tag_235:\n        /* \"#utility.yul\":9952:10091   */\n      swap1\n      pop\n        /* \"#utility.yul\":9679:10098   */\n      swap2\n      swap1\n      pop\n      jump\t// out\n        /* \"#utility.yul\":10104:10333   */\n    tag_114:\n        /* \"#utility.yul\":10244:10278   */\n      0x4e6f207365207469656e656e20666f6e646f7320656e20656c20636f6e747261\n        /* \"#utility.yul\":10240:10241   */\n      0x00\n        /* \"#utility.yul\":10232:10238   */\n      dup3\n        /* \"#utility.yul\":10228:10242   */\n      add\n        /* \"#utility.yul\":10221:10279   */\n      mstore\n        /* \"#utility.yul\":10313:10325   */\n      0x746f20746f646176696100000000000000000000000000000000000000000000\n        /* \"#utility.yul\":10308:10310   */\n      0x20\n        /* \"#utility.yul\":10300:10306   */\n      dup3\n        /* \"#utility.yul\":10296:10311   */\n      add\n        /* \"#utility.yul\":10289:10326   */\n      mstore\n        /* \"#utility.yul\":10104:10333   */\n      pop\n      jump\t// out\n        /* \"#utility.yul\":10339:10705   */\n    tag_115:\n        /* \"#utility.yul\":10481:10484   */\n      0x00\n        /* \"#utility.yul\":10502:10569   */\n      tag_238\n        /* \"#utility.yul\":10566:10568   */\n      0x2a\n        /* \"#utility.yul\":10561:10564   */\n      dup4\n        /* \"#utility.yul\":10502:10569   */\n      tag_87\n      jump\t// in\n    tag_238:\n        /* \"#utility.yul\":10495:10569   */\n      swap2\n      pop\n        /* \"#utility.yul\":10578:10671   */\n      tag_239\n        /* \"#utility.yul\":10667:10670   */\n      dup3\n        /* \"#utility.yul\":10578:10671   */\n      tag_114\n      jump\t// in\n    tag_239:\n        /* \"#utility.yul\":10696:10698   */\n      0x40\n        /* \"#utility.yul\":10691:10694   */\n      dup3\n        /* \"#utility.yul\":10687:10699   */\n      add\n        /* \"#utility.yul\":10680:10699   */\n      swap1\n      pop\n        /* \"#utility.yul\":10339:10705   */\n      swap2\n      swap1\n      pop\n      jump\t// out\n        /* \"#utility.yul\":10711:11130   */\n    tag_37:\n        /* \"#utility.yul\":10877:10881   */\n      0x00\n        /* \"#utility.yul\":10915:10917   */\n      0x20\n        /* \"#utility.yul\":10904:10913   */\n      dup3\n        /* \"#utility.yul\":10900:10918   */\n      add\n        /* \"#utility.yul\":10892:10918   */\n      swap1\n      pop\n        /* \"#utility.yul\":10964:10973   */\n      dup2\n        /* \"#utility.yul\":10958:10962   */\n      dup2\n        /* \"#utility.yul\":10954:10974   */\n      sub\n        /* \"#utility.yul\":10950:10951   */\n      0x00\n        /* \"#utility.yul\":10939:10948   */\n      dup4\n        /* \"#utility.yul\":10935:10952   */\n      add\n        /* \"#utility.yul\":10928:10975   */\n      mstore\n        /* \"#utility.yul\":10992:11123   */\n      tag_241\n        /* \"#utility.yul\":11118:11122   */\n      dup2\n        /* \"#utility.yul\":10992:11123   */\n      tag_115\n      jump\t// in\n    tag_241:\n        /* \"#utility.yul\":10984:11123   */\n      swap1\n      pop\n        /* \"#utility.yul\":10711:11130   */\n      swap2\n      swap1\n      pop\n      jump\t// out\n        /* \"#utility.yul\":11136:11316   */\n    tag_116:\n        /* \"#utility.yul\":11184:11261   */\n      0x4e487b7100000000000000000000000000000000000000000000000000000000\n        /* \"#utility.yul\":11181:11182   */\n      0x00\n        /* \"#utility.yul\":11174:11262   */\n      mstore\n        /* \"#utility.yul\":11281:11285   */\n      0x22\n        /* \"#utility.yul\":11278:11279   */\n      0x04\n        /* \"#utility.yul\":11271:11286   */\n      mstore\n        /* \"#utility.yul\":11305:11309   */\n      0x24\n        /* \"#utility.yul\":11302:11303   */\n      0x00\n        /* \"#utility.yul\":11295:11310   */\n      revert\n        /* \"#utility.yul\":11322:11642   */\n    tag_41:\n        /* \"#utility.yul\":11366:11372   */\n      0x00\n        /* \"#utility.yul\":11403:11404   */\n      0x02\n        /* \"#utility.yul\":11397:11401   */\n      dup3\n        /* \"#utility.yul\":11393:11405   */\n      div\n        /* \"#utility.yul\":11383:11405   */\n      swap1\n      pop\n        /* \"#utility.yul\":11450:11451   */\n      0x01\n        /* \"#utility.yul\":11444:11448   */\n      dup3\n        /* \"#utility.yul\":11440:11452   */\n      and\n        /* \"#utility.yul\":11471:11489   */\n      dup1\n        /* \"#utility.yul\":11461:11542   */\n      tag_244\n      jumpi\n        /* \"#utility.yul\":11527:11531   */\n      0x7f\n        /* \"#utility.yul\":11519:11525   */\n      dup3\n        /* \"#utility.yul\":11515:11532   */\n      and\n        /* \"#utility.yul\":11505:11532   */\n      swap2\n      pop\n        /* \"#utility.yul\":11461:11542   */\n    tag_244:\n        /* \"#utility.yul\":11589:11591   */\n      0x20\n        /* \"#utility.yul\":11581:11587   */\n      dup3\n        /* \"#utility.yul\":11578:11592   */\n      lt\n        /* \"#utility.yul\":11558:11576   */\n      dup2\n        /* \"#utility.yul\":11555:11593   */\n      sub\n        /* \"#utility.yul\":11552:11636   */\n      tag_245\n      jumpi\n        /* \"#utility.yul\":11608:11626   */\n      tag_246\n      tag_116\n      jump\t// in\n    tag_246:\n        /* \"#utility.yul\":11552:11636   */\n    tag_245:\n        /* \"#utility.yul\":11373:11642   */\n      pop\n        /* \"#utility.yul\":11322:11642   */\n      swap2\n      swap1\n      pop\n      jump\t// out\n        /* \"#utility.yul\":11648:11871   */\n    tag_117:\n        /* \"#utility.yul\":11788:11822   */\n      0x4e6f207469656e652073616c646f20656e2041564158207061726120656a6563\n        /* \"#utility.yul\":11784:11785   */\n      0x00\n        /* \"#utility.yul\":11776:11782   */\n      dup3\n        /* \"#utility.yul\":11772:11786   */\n      add\n        /* \"#utility.yul\":11765:11823   */\n      mstore\n        /* \"#utility.yul\":11857:11863   */\n      0x7574617200000000000000000000000000000000000000000000000000000000\n        /* \"#utility.yul\":11852:11854   */\n      0x20\n        /* \"#utility.yul\":11844:11850   */\n      dup3\n        /* \"#utility.yul\":11840:11855   */\n      add\n        /* \"#utility.yul\":11833:11864   */\n      mstore\n        /* \"#utility.yul\":11648:11871   */\n      pop\n      jump\t// out\n        /* \"#utility.yul\":11877:12243   */\n    tag_118:\n        /* \"#utility.yul\":12019:12022   */\n      0x00\n        /* \"#utility.yul\":12040:12107   */\n      tag_249\n        /* \"#utility.yul\":12104:12106   */\n      0x24\n        /* \"#utility.yul\":12099:12102   */\n      dup4\n        /* \"#utility.yul\":12040:12107   */\n      tag_87\n      jump\t// in\n    tag_249:\n        /* \"#utility.yul\":12033:12107   */\n      swap2\n      pop\n        /* \"#utility.yul\":12116:12209   */\n      tag_250\n        /* \"#utility.yul\":12205:12208   */\n      dup3\n        /* \"#utility.yul\":12116:12209   */\n      tag_117\n      jump\t// in\n    tag_250:\n        /* \"#utility.yul\":12234:12236   */\n      0x40\n        /* \"#utility.yul\":12229:12232   */\n      dup3\n        /* \"#utility.yul\":12225:12237   */\n      add\n        /* \"#utility.yul\":12218:12237   */\n      swap1\n      pop\n        /* \"#utility.yul\":11877:12243   */\n      swap2\n      swap1\n      pop\n      jump\t// out\n        /* \"#utility.yul\":12249:12668   */\n    tag_74:\n        /* \"#utility.yul\":12415:12419   */\n      0x00\n        /* \"#utility.yul\":12453:12455   */\n      0x20\n        /* \"#utility.yul\":12442:12451   */\n      dup3\n        /* \"#utility.yul\":12438:12456   */\n      add\n        /* \"#utility.yul\":12430:12456   */\n      swap1\n      pop\n        /* \"#utility.yul\":12502:12511   */\n      dup2\n        /* \"#utility.yul\":12496:12500   */\n      dup2\n        /* \"#utility.yul\":12492:12512   */\n      sub\n        /* \"#utility.yul\":12488:12489   */\n      0x00\n        /* \"#utility.yul\":12477:12486   */\n      dup4\n        /* \"#utility.yul\":12473:12490   */\n      add\n        /* \"#utility.yul\":12466:12513   */\n      mstore\n        /* \"#utility.yul\":12530:12661   */\n      tag_252\n        /* \"#utility.yul\":12656:12660   */\n      dup2\n        /* \"#utility.yul\":12530:12661   */\n      tag_118\n      jump\t// in\n    tag_252:\n        /* \"#utility.yul\":12522:12661   */\n      swap1\n      pop\n        /* \"#utility.yul\":12249:12668   */\n      swap2\n      swap1\n      pop\n      jump\t// out\n        /* \"#utility.yul\":12674:12815   */\n    tag_119:\n        /* \"#utility.yul\":12723:12727   */\n      0x00\n        /* \"#utility.yul\":12746:12749   */\n      dup2\n        /* \"#utility.yul\":12738:12749   */\n      swap1\n      pop\n        /* \"#utility.yul\":12769:12772   */\n      dup2\n        /* \"#utility.yul\":12766:12767   */\n      0x00\n        /* \"#utility.yul\":12759:12773   */\n      mstore\n        /* \"#utility.yul\":12803:12807   */\n      0x20\n        /* \"#utility.yul\":12800:12801   */\n      0x00\n        /* \"#utility.yul\":12790:12808   */\n      keccak256\n        /* \"#utility.yul\":12782:12808   */\n      swap1\n      pop\n        /* \"#utility.yul\":12674:12815   */\n      swap2\n      swap1\n      pop\n      jump\t// out\n        /* \"#utility.yul\":12821:12914   */\n    tag_120:\n        /* \"#utility.yul\":12858:12864   */\n      0x00\n        /* \"#utility.yul\":12905:12907   */\n      0x20\n        /* \"#utility.yul\":12900:12902   */\n      0x1f\n        /* \"#utility.yul\":12893:12898   */\n      dup4\n        /* \"#utility.yul\":12889:12903   */\n      add\n        /* \"#utility.yul\":12885:12908   */\n      div\n        /* \"#utility.yul\":12875:12908   */\n      swap1\n      pop\n        /* \"#utility.yul\":12821:12914   */\n      swap2\n      swap1\n      pop\n      jump\t// out\n        /* \"#utility.yul\":12920:13027   */\n    tag_121:\n        /* \"#utility.yul\":12964:12972   */\n      0x00\n        /* \"#utility.yul\":13014:13019   */\n      dup3\n        /* \"#utility.yul\":13008:13012   */\n      dup3\n        /* \"#utility.yul\":13004:13020   */\n      shl\n        /* \"#utility.yul\":12983:13020   */\n      swap1\n      pop\n        /* \"#utility.yul\":12920:13027   */\n      swap3\n      swap2\n      pop\n      pop\n      jump\t// out\n        /* \"#utility.yul\":13033:13426   */\n    tag_122:\n        /* \"#utility.yul\":13102:13108   */\n      0x00\n        /* \"#utility.yul\":13152:13153   */\n      0x08\n        /* \"#utility.yul\":13140:13150   */\n      dup4\n        /* \"#utility.yul\":13136:13154   */\n      mul\n        /* \"#utility.yul\":13175:13272   */\n      tag_257\n        /* \"#utility.yul\":13205:13271   */\n      0xffffffffffffffffffffffffffffffffffffffffffffffffffffffffffffffff\n        /* \"#utility.yul\":13194:13203   */\n      dup3\n        /* \"#utility.yul\":13175:13272   */\n      tag_121\n      jump\t// in\n    tag_257:\n        /* \"#utility.yul\":13293:13332   */\n      tag_258\n        /* \"#utility.yul\":13323:13331   */\n      dup7\n        /* \"#utility.yul\":13312:13321   */\n      dup4\n        /* \"#utility.yul\":13293:13332   */\n      tag_121\n      jump\t// in\n    tag_258:\n        /* \"#utility.yul\":13281:13332   */\n      swap6\n      pop\n        /* \"#utility.yul\":13365:13369   */\n      dup1\n        /* \"#utility.yul\":13361:13370   */\n      not\n        /* \"#utility.yul\":13354:13359   */\n      dup5\n        /* \"#utility.yul\":13350:13371   */\n      and\n        /* \"#utility.yul\":13341:13371   */\n      swap4\n      pop\n        /* \"#utility.yul\":13414:13418   */\n      dup1\n        /* \"#utility.yul\":13404:13412   */\n      dup7\n        /* \"#utility.yul\":13400:13419   */\n      and\n        /* \"#utility.yul\":13393:13398   */\n      dup5\n        /* \"#utility.yul\":13390:13420   */\n      or\n        /* \"#utility.yul\":13380:13420   */\n      swap3\n      pop\n        /* \"#utility.yul\":13109:13426   */\n      pop\n      pop\n        /* \"#utility.yul\":13033:13426   */\n      swap4\n      swap3\n      pop\n      pop\n      pop\n      jump\t// out\n        /* \"#utility.yul\":13432:13492   */\n    tag_123:\n        /* \"#utility.yul\":13460:13463   */\n      0x00\n        /* \"#utility.yul\":13481:13486   */\n      dup2\n        /* \"#utility.yul\":13474:13486   */\n      swap1\n      pop\n        /* \"#utility.yul\":13432:13492   */\n      swap2\n      swap1\n      pop\n      jump\t// out\n        /* \"#utility.yul\":13498:13640   */\n    tag_124:\n        /* \"#utility.yul\":13548:13557   */\n      0x00\n        /* \"#utility.yul\":13581:13634   */\n      tag_261\n        /* \"#utility.yul\":13599:13633   */\n      tag_262\n        /* \"#utility.yul\":13608:13632   */\n      tag_263\n        /* \"#utility.yul\":13626:13631   */\n      dup5\n        /* \"#utility.yul\":13608:13632   */\n      tag_84\n      jump\t// in\n    tag_263:\n        /* \"#utility.yul\":13599:13633   */\n      tag_123\n      jump\t// in\n    tag_262:\n        /* \"#utility.yul\":13581:13634   */\n      tag_84\n      jump\t// in\n    tag_261:\n        /* \"#utility.yul\":13568:13634   */\n      swap1\n      pop\n        /* \"#utility.yul\":13498:13640   */\n      swap2\n      swap1\n      pop\n      jump\t// out\n        /* \"#utility.yul\":13646:13721   */\n    tag_125:\n        /* \"#utility.yul\":13689:13692   */\n      0x00\n        /* \"#utility.yul\":13710:13715   */\n      dup2\n        /* \"#utility.yul\":13703:13715   */\n      swap1\n      pop\n        /* \"#utility.yul\":13646:13721   */\n      swap2\n      swap1\n      pop\n      jump\t// out\n        /* \"#utility.yul\":13727:13996   */\n    tag_126:\n        /* \"#utility.yul\":13837:13876   */\n      tag_266\n        /* \"#utility.yul\":13868:13875   */\n      dup4\n        /* \"#utility.yul\":13837:13876   */\n      tag_124\n      jump\t// in\n    tag_266:\n        /* \"#utility.yul\":13898:13989   */\n      tag_267\n        /* \"#utility.yul\":13947:13988   */\n      tag_268\n        /* \"#utility.yul\":13971:13987   */\n      dup3\n        /* \"#utility.yul\":13947:13988   */\n      tag_125\n      jump\t// in\n    tag_268:\n        /* \"#utility.yul\":13939:13945   */\n      dup5\n        /* \"#utility.yul\":13932:13936   */\n      dup5\n        /* \"#utility.yul\":13926:13937   */\n      sload\n        /* \"#utility.yul\":13898:13989   */\n      tag_122\n      jump\t// in\n    tag_267:\n        /* \"#utility.yul\":13892:13896   */\n      dup3\n        /* \"#utility.yul\":13885:13990   */\n      sstore\n        /* \"#utility.yul\":13803:13996   */\n      pop\n        /* \"#utility.yul\":13727:13996   */\n      pop\n      pop\n      pop\n      jump\t// out\n        /* \"#utility.yul\":14002:14075   */\n    tag_127:\n        /* \"#utility.yul\":14047:14050   */\n      0x00\n        /* \"#utility.yul\":14002:14075   */\n      swap1\n      jump\t// out\n        /* \"#utility.yul\":14081:14270   */\n    tag_128:\n        /* \"#utility.yul\":14158:14190   */\n      tag_271\n      tag_127\n      jump\t// in\n    tag_271:\n        /* \"#utility.yul\":14199:14264   */\n      tag_272\n        /* \"#utility.yul\":14257:14263   */\n      dup2\n        /* \"#utility.yul\":14249:14255   */\n      dup5\n        /* \"#utility.yul\":14243:14247   */\n      dup5\n        /* \"#utility.yul\":14199:14264   */\n      tag_126\n      jump\t// in\n    tag_272:\n        /* \"#utility.yul\":14134:14270   */\n      pop\n        /* \"#utility.yul\":14081:14270   */\n      pop\n      pop\n      jump\t// out\n        /* \"#utility.yul\":14276:14462   */\n    tag_129:\n        /* \"#utility.yul\":14336:14456   */\n    tag_274:\n        /* \"#utility.yul\":14353:14356   */\n      dup2\n        /* \"#utility.yul\":14346:14351   */\n      dup2\n        /* \"#utility.yul\":14343:14357   */\n      lt\n        /* \"#utility.yul\":14336:14456   */\n      iszero\n      tag_276\n      jumpi\n        /* \"#utility.yul\":14407:14446   */\n      tag_277\n        /* \"#utility.yul\":14444:14445   */\n      0x00\n        /* \"#utility.yul\":14437:14442   */\n      dup3\n        /* \"#utility.yul\":14407:14446   */\n      tag_128\n      jump\t// in\n    tag_277:\n        /* \"#utility.yul\":14380:14381   */\n      0x01\n        /* \"#utility.yul\":14373:14378   */\n      dup2\n        /* \"#utility.yul\":14369:14382   */\n      add\n        /* \"#utility.yul\":14360:14382   */\n      swap1\n      pop\n        /* \"#utility.yul\":14336:14456   */\n      jump(tag_274)\n    tag_276:\n        /* \"#utility.yul\":14276:14462   */\n      pop\n      pop\n      jump\t// out\n        /* \"#utility.yul\":14468:15011   */\n    tag_130:\n        /* \"#utility.yul\":14569:14571   */\n      0x1f\n        /* \"#utility.yul\":14564:14567   */\n      dup3\n        /* \"#utility.yul\":14561:14572   */\n      gt\n        /* \"#utility.yul\":14558:15004   */\n      iszero\n      tag_279\n      jumpi\n        /* \"#utility.yul\":14603:14641   */\n      tag_280\n        /* \"#utility.yul\":14635:14640   */\n      dup2\n        /* \"#utility.yul\":14603:14641   */\n      tag_119\n      jump\t// in\n    tag_280:\n        /* \"#utility.yul\":14687:14716   */\n      tag_281\n        /* \"#utility.yul\":14705:14715   */\n      dup5\n        /* \"#utility.yul\":14687:14716   */\n      tag_120\n      jump\t// in\n    tag_281:\n        /* \"#utility.yul\":14677:14685   */\n      dup2\n        /* \"#utility.yul\":14673:14717   */\n      add\n        /* \"#utility.yul\":14870:14872   */\n      0x20\n        /* \"#utility.yul\":14858:14868   */\n      dup6\n        /* \"#utility.yul\":14855:14873   */\n      lt\n        /* \"#utility.yul\":14852:14901   */\n      iszero\n      tag_282\n      jumpi\n        /* \"#utility.yul\":14891:14899   */\n      dup2\n        /* \"#utility.yul\":14876:14899   */\n      swap1\n      pop\n        /* \"#utility.yul\":14852:14901   */\n    tag_282:\n        /* \"#utility.yul\":14914:14994   */\n      tag_283\n        /* \"#utility.yul\":14970:14992   */\n      tag_284\n        /* \"#utility.yul\":14988:14991   */\n      dup6\n        /* \"#utility.yul\":14970:14992   */\n      tag_120\n      jump\t// in\n    tag_284:\n        /* \"#utility.yul\":14960:14968   */\n      dup4\n        /* \"#utility.yul\":14956:14993   */\n      add\n        /* \"#utility.yul\":14943:14954   */\n      dup3\n        /* \"#utility.yul\":14914:14994   */\n      tag_129\n      jump\t// in\n    tag_283:\n        /* \"#utility.yul\":14573:15004   */\n      pop\n      pop\n        /* \"#utility.yul\":14558:15004   */\n    tag_279:\n        /* \"#utility.yul\":14468:15011   */\n      pop\n      pop\n      pop\n      jump\t// out\n        /* \"#utility.yul\":15017:15134   */\n    tag_131:\n        /* \"#utility.yul\":15071:15079   */\n      0x00\n        /* \"#utility.yul\":15121:15126   */\n      dup3\n        /* \"#utility.yul\":15115:15119   */\n      dup3\n        /* \"#utility.yul\":15111:15127   */\n      shr\n        /* \"#utility.yul\":15090:15127   */\n      swap1\n      pop\n        /* \"#utility.yul\":15017:15134   */\n      swap3\n      swap2\n      pop\n      pop\n      jump\t// out\n        /* \"#utility.yul\":15140:15309   */\n    tag_132:\n        /* \"#utility.yul\":15184:15190   */\n      0x00\n        /* \"#utility.yul\":15217:15268   */\n      tag_287\n        /* \"#utility.yul\":15265:15266   */\n      0x00\n        /* \"#utility.yul\":15261:15267   */\n      not\n        /* \"#utility.yul\":15253:15258   */\n      dup5\n        /* \"#utility.yul\":15250:15251   */\n      0x08\n        /* \"#utility.yul\":15246:15259   */\n      mul\n        /* \"#utility.yul\":15217:15268   */\n      tag_131\n      jump\t// in\n    tag_287:\n        /* \"#utility.yul\":15213:15269   */\n      not\n        /* \"#utility.yul\":15298:15302   */\n      dup1\n        /* \"#utility.yul\":15292:15296   */\n      dup4\n        /* \"#utility.yul\":15288:15303   */\n      and\n        /* \"#utility.yul\":15278:15303   */\n      swap2\n      pop\n        /* \"#utility.yul\":15191:15309   */\n      pop\n        /* \"#utility.yul\":15140:15309   */\n      swap3\n      swap2\n      pop\n      pop\n      jump\t// out\n        /* \"#utility.yul\":15314:15609   */\n    tag_133:\n        /* \"#utility.yul\":15390:15394   */\n      0x00\n        /* \"#utility.yul\":15536:15565   */\n      tag_289\n        /* \"#utility.yul\":15561:15564   */\n      dup4\n        /* \"#utility.yul\":15555:15559   */\n      dup4\n        /* \"#utility.yul\":15536:15565   */\n      tag_132\n      jump\t// in\n    tag_289:\n        /* \"#utility.yul\":15528:15565   */\n      swap2\n      pop\n        /* \"#utility.yul\":15598:15601   */\n      dup3\n        /* \"#utility.yul\":15595:15596   */\n      0x02\n        /* \"#utility.yul\":15591:15602   */\n      mul\n        /* \"#utility.yul\":15585:15589   */\n      dup3\n        /* \"#utility.yul\":15582:15603   */\n      or\n        /* \"#utility.yul\":15574:15603   */\n      swap1\n      pop\n        /* \"#utility.yul\":15314:15609   */\n      swap3\n      swap2\n      pop\n      pop\n      jump\t// out\n        /* \"#utility.yul\":15614:17009   */\n    tag_77:\n        /* \"#utility.yul\":15731:15768   */\n      tag_291\n        /* \"#utility.yul\":15764:15767   */\n      dup3\n        /* \"#utility.yul\":15731:15768   */\n      tag_86\n      jump\t// in\n    tag_291:\n        /* \"#utility.yul\":15833:15851   */\n      0xffffffffffffffff\n        /* \"#utility.yul\":15825:15831   */\n      dup2\n        /* \"#utility.yul\":15822:15852   */\n      gt\n        /* \"#utility.yul\":15819:15875   */\n      iszero\n      tag_292\n      jumpi\n        /* \"#utility.yul\":15855:15873   */\n      tag_293\n      tag_101\n      jump\t// in\n    tag_293:\n        /* \"#utility.yul\":15819:15875   */\n    tag_292:\n        /* \"#utility.yul\":15899:15937   */\n      tag_294\n        /* \"#utility.yul\":15931:15935   */\n      dup3\n        /* \"#utility.yul\":15925:15936   */\n      sload\n        /* \"#utility.yul\":15899:15937   */\n      tag_41\n      jump\t// in\n    tag_294:\n        /* \"#utility.yul\":15984:16051   */\n      tag_295\n        /* \"#utility.yul\":16044:16050   */\n      dup3\n        /* \"#utility.yul\":16036:16042   */\n      dup3\n        /* \"#utility.yul\":16030:16034   */\n      dup6\n        /* \"#utility.yul\":15984:16051   */\n      tag_130\n      jump\t// in\n    tag_295:\n        /* \"#utility.yul\":16078:16079   */\n      0x00\n        /* \"#utility.yul\":16102:16106   */\n      0x20\n        /* \"#utility.yul\":16089:16106   */\n      swap1\n      pop\n        /* \"#utility.yul\":16134:16136   */\n      0x1f\n        /* \"#utility.yul\":16126:16132   */\n      dup4\n        /* \"#utility.yul\":16123:16137   */\n      gt\n        /* \"#utility.yul\":16151:16152   */\n      0x01\n        /* \"#utility.yul\":16146:16764   */\n      dup2\n      eq\n      tag_297\n      jumpi\n        /* \"#utility.yul\":16808:16809   */\n      0x00\n        /* \"#utility.yul\":16825:16831   */\n      dup5\n        /* \"#utility.yul\":16822:16899   */\n      iszero\n      tag_298\n      jumpi\n        /* \"#utility.yul\":16874:16883   */\n      dup3\n        /* \"#utility.yul\":16869:16872   */\n      dup8\n        /* \"#utility.yul\":16865:16884   */\n      add\n        /* \"#utility.yul\":16859:16885   */\n      mload\n        /* \"#utility.yul\":16850:16885   */\n      swap1\n      pop\n        /* \"#utility.yul\":16822:16899   */\n    tag_298:\n        /* \"#utility.yul\":16925:16992   */\n      tag_299\n        /* \"#utility.yul\":16985:16991   */\n      dup6\n        /* \"#utility.yul\":16978:16983   */\n      dup3\n        /* \"#utility.yul\":16925:16992   */\n      tag_133\n      jump\t// in\n    tag_299:\n        /* \"#utility.yul\":16919:16923   */\n      dup7\n        /* \"#utility.yul\":16912:16993   */\n      sstore\n        /* \"#utility.yul\":16781:17003   */\n      pop\n        /* \"#utility.yul\":16116:17003   */\n      jump(tag_296)\n        /* \"#utility.yul\":16146:16764   */\n    tag_297:\n        /* \"#utility.yul\":16198:16202   */\n      0x1f\n        /* \"#utility.yul\":16194:16203   */\n      not\n        /* \"#utility.yul\":16186:16192   */\n      dup5\n        /* \"#utility.yul\":16182:16204   */\n      and\n        /* \"#utility.yul\":16232:16269   */\n      tag_300\n        /* \"#utility.yul\":16264:16268   */\n      dup7\n        /* \"#utility.yul\":16232:16269   */\n      tag_119\n      jump\t// in\n    tag_300:\n        /* \"#utility.yul\":16291:16292   */\n      0x00\n        /* \"#utility.yul\":16305:16513   */\n    tag_301:\n        /* \"#utility.yul\":16319:16326   */\n      dup3\n        /* \"#utility.yul\":16316:16317   */\n      dup2\n        /* \"#utility.yul\":16313:16327   */\n      lt\n        /* \"#utility.yul\":16305:16513   */\n      iszero\n      tag_303\n      jumpi\n        /* \"#utility.yul\":16398:16407   */\n      dup5\n        /* \"#utility.yul\":16393:16396   */\n      dup10\n        /* \"#utility.yul\":16389:16408   */\n      add\n        /* \"#utility.yul\":16383:16409   */\n      mload\n        /* \"#utility.yul\":16375:16381   */\n      dup3\n        /* \"#utility.yul\":16368:16410   */\n      sstore\n        /* \"#utility.yul\":16449:16450   */\n      0x01\n        /* \"#utility.yul\":16441:16447   */\n      dup3\n        /* \"#utility.yul\":16437:16451   */\n      add\n        /* \"#utility.yul\":16427:16451   */\n      swap2\n      pop\n        /* \"#utility.yul\":16496:16498   */\n      0x20\n        /* \"#utility.yul\":16485:16494   */\n      dup6\n        /* \"#utility.yul\":16481:16499   */\n      add\n        /* \"#utility.yul\":16468:16499   */\n      swap5\n      pop\n        /* \"#utility.yul\":16342:16346   */\n      0x20\n        /* \"#utility.yul\":16339:16340   */\n      dup2\n        /* \"#utility.yul\":16335:16347   */\n      add\n        /* \"#utility.yul\":16330:16347   */\n      swap1\n      pop\n        /* \"#utility.yul\":16305:16513   */\n      jump(tag_301)\n    tag_303:\n        /* \"#utility.yul\":16541:16547   */\n      dup7\n        /* \"#utility.yul\":16532:16539   */\n      dup4\n        /* \"#utility.yul\":16529:16548   */\n      lt\n        /* \"#utility.yul\":16526:16705   */\n      iszero\n      tag_304\n      jumpi\n        /* \"#utility.yul\":16599:16608   */\n      dup5\n        /* \"#utility.yul\":16594:16597   */\n      dup10\n        /* \"#utility.yul\":16590:16609   */\n      add\n        /* \"#utility.yul\":16584:16610   */\n      mload\n        /* \"#utility.yul\":16642:16690   */\n      tag_305\n        /* \"#utility.yul\":16684:16688   */\n      0x1f\n        /* \"#utility.yul\":16676:16682   */\n      dup10\n        /* \"#utility.yul\":16672:16689   */\n      and\n        /* \"#utility.yul\":16661:16670   */\n      dup3\n        /* \"#utility.yul\":16642:16690   */\n      tag_132\n      jump\t// in\n    tag_305:\n        /* \"#utility.yul\":16634:16640   */\n      dup4\n        /* \"#utility.yul\":16627:16691   */\n      sstore\n        /* \"#utility.yul\":16549:16705   */\n      pop\n        /* \"#utility.yul\":16526:16705   */\n    tag_304:\n        /* \"#utility.yul\":16751:16752   */\n      0x01\n        /* \"#utility.yul\":16747:16748   */\n      0x02\n        /* \"#utility.yul\":16739:16745   */\n      dup9\n        /* \"#utility.yul\":16735:16749   */\n      mul\n        /* \"#utility.yul\":16731:16753   */\n      add\n        /* \"#utility.yul\":16725:16729   */\n      dup9\n        /* \"#utility.yul\":16718:16754   */\n      sstore\n        /* \"#utility.yul\":16153:16764   */\n      pop\n      pop\n      pop\n        /* \"#utility.yul\":16116:17003   */\n    tag_296:\n      pop\n        /* \"#utility.yul\":15706:17009   */\n      pop\n      pop\n      pop\n        /* \"#utility.yul\":15614:17009   */\n      pop\n      pop\n      jump\t// out\n\n    auxdata: 0xa26469706673582212202a0e750e8aa1f9576aa832179a3a3b3cac1ed266d73962c88ca305dded3e395464736f6c63430008180033\n}\n",
				"bytecode": {
					"linkReferences": {},
					"object": "608060405234801561000f575f80fd5b50335f806101000a81548173ffffffffffffffffffffffffffffffffffffffff021916908373ffffffffffffffffffffffffffffffffffffffff1602179055506111108061005c5f395ff3fe608060405260043610610049575f3560e01c806312065fe01461004d5780633ccfd60b1461007757806373d4a13a1461008d578063782154df146100be5780638da5cb5b146100da575b5f80fd5b348015610058575f80fd5b50610061610104565b60405161006e91906107e0565b60405180910390f35b348015610082575f80fd5b5061008b61010b565b005b348015610098575f80fd5b506100a1610244565b6040516100b59897969594939291906108dc565b60405180910390f35b6100d860048036038101906100d39190610ae9565b6105c8565b005b3480156100e5575f80fd5b506100ee6107a5565b6040516100fb9190610c4e565b60405180910390f35b5f47905090565b5f8054906101000a900473ffffffffffffffffffffffffffffffffffffffff1673ffffffffffffffffffffffffffffffffffffffff163373ffffffffffffffffffffffffffffffffffffffff1614610198576040517f08c379a000000000000000000000000000000000000000000000000000000000815260040161018f90610cd7565b60405180910390fd5b5f4790505f81116101de576040517f08c379a00000000000000000000000000000000000000000000000000000000081526004016101d590610d65565b60405180910390fd5b5f8054906101000a900473ffffffffffffffffffffffffffffffffffffffff1673ffffffffffffffffffffffffffffffffffffffff166108fc8290811502906040515f60405180830381858888f19350505050158015610240573d5f803e3d5ffd5b5050565b6001805f01805461025490610db0565b80601f016020809104026020016040519081016040528092919081815260200182805461028090610db0565b80156102cb5780601f106102a2576101008083540402835291602001916102cb565b820191905f5260205f20905b8154815290600101906020018083116102ae57829003601f168201915b5050505050908060010180546102e090610db0565b80601f016020809104026020016040519081016040528092919081815260200182805461030c90610db0565b80156103575780601f1061032e57610100808354040283529160200191610357565b820191905f5260205f20905b81548152906001019060200180831161033a57829003601f168201915b50505050509080600201805461036c90610db0565b80601f016020809104026020016040519081016040528092919081815260200182805461039890610db0565b80156103e35780601f106103ba576101008083540402835291602001916103e3565b820191905f5260205f20905b8154815290600101906020018083116103c657829003601f168201915b5050505050908060030180546103f890610db0565b80601f016020809104026020016040519081016040528092919081815260200182805461042490610db0565b801561046f5780601f106104465761010080835404028352916020019161046f565b820191905f5260205f20905b81548152906001019060200180831161045257829003601f168201915b50505050509080600401805461048490610db0565b80601f01602080910402602001604051908101604052809291908181526020018280546104b090610db0565b80156104fb5780601f106104d2576101008083540402835291602001916104fb565b820191905f5260205f20905b8154815290600101906020018083116104de57829003601f168201915b50505050509080600501805461051090610db0565b80601f016020809104026020016040519081016040528092919081815260200182805461053c90610db0565b80156105875780601f1061055e57610100808354040283529160200191610587565b820191905f5260205f20905b81548152906001019060200180831161056a57829003601f168201915b505050505090806006015f9054906101000a90045f0b908060060160019054906101000a900473ffffffffffffffffffffffffffffffffffffffff16905088565b67016345785d8a000080341015610614576040517f08c379a000000000000000000000000000000000000000000000000000000000815260040161060b90610e50565b60405180910390fd5b604051806101000160405280898152602001888152602001878152602001868152602001858152602001848152602001835f0b81526020013373ffffffffffffffffffffffffffffffffffffffff1681525060015f820151815f01908161067b919061100b565b506020820151816001019081610691919061100b565b5060408201518160020190816106a7919061100b565b5060608201518160030190816106bd919061100b565b5060808201518160040190816106d3919061100b565b5060a08201518160050190816106e9919061100b565b5060c0820151816006015f6101000a81548160ff02191690835f0b60ff16021790555060e08201518160060160016101000a81548173ffffffffffffffffffffffffffffffffffffffff021916908373ffffffffffffffffffffffffffffffffffffffff1602179055509050507f870247eb151fd35c4907322d059c22cbe7eb7930b7b7116d4a107cbbb5378d1288888888888888336040516107939897969594939291906108dc565b60405180910390a15050505050505050565b5f8054906101000a900473ffffffffffffffffffffffffffffffffffffffff1681565b5f819050919050565b6107da816107c8565b82525050565b5f6020820190506107f35f8301846107d1565b92915050565b5f81519050919050565b5f82825260208201905092915050565b5f5b83811015610830578082015181840152602081019050610815565b5f8484015250505050565b5f601f19601f8301169050919050565b5f610855826107f9565b61085f8185610803565b935061086f818560208601610813565b6108788161083b565b840191505092915050565b5f815f0b9050919050565b61089781610883565b82525050565b5f73ffffffffffffffffffffffffffffffffffffffff82169050919050565b5f6108c68261089d565b9050919050565b6108d6816108bc565b82525050565b5f610100820190508181035f8301526108f5818b61084b565b90508181036020830152610909818a61084b565b9050818103604083015261091d818961084b565b90508181036060830152610931818861084b565b90508181036080830152610945818761084b565b905081810360a0830152610959818661084b565b905061096860c083018561088e565b61097560e08301846108cd565b9998505050505050505050565b5f604051905090565b5f80fd5b5f80fd5b5f80fd5b5f80fd5b7f4e487b71000000000000000000000000000000000000000000000000000000005f52604160045260245ffd5b6109d18261083b565b810181811067ffffffffffffffff821117156109f0576109ef61099b565b5b80604052505050565b5f610a02610982565b9050610a0e82826109c8565b919050565b5f67ffffffffffffffff821115610a2d57610a2c61099b565b5b610a368261083b565b9050602081019050919050565b828183375f83830152505050565b5f610a63610a5e84610a13565b6109f9565b905082815260208101848484011115610a7f57610a7e610997565b5b610a8a848285610a43565b509392505050565b5f82601f830112610aa657610aa5610993565b5b8135610ab6848260208601610a51565b91505092915050565b610ac881610883565b8114610ad2575f80fd5b50565b5f81359050610ae381610abf565b92915050565b5f805f805f805f60e0888a031215610b0457610b0361098b565b5b5f88013567ffffffffffffffff811115610b2157610b2061098f565b5b610b2d8a828b01610a92565b975050602088013567ffffffffffffffff811115610b4e57610b4d61098f565b5b610b5a8a828b01610a92565b965050604088013567ffffffffffffffff811115610b7b57610b7a61098f565b5b610b878a828b01610a92565b955050606088013567ffffffffffffffff811115610ba857610ba761098f565b5b610bb48a828b01610a92565b945050608088013567ffffffffffffffff811115610bd557610bd461098f565b5b610be18a828b01610a92565b93505060a088013567ffffffffffffffff811115610c0257610c0161098f565b5b610c0e8a828b01610a92565b92505060c0610c1f8a828b01610ad5565b91505092959891949750929550565b5f610c388261089d565b9050919050565b610c4881610c2e565b82525050565b5f602082019050610c615f830184610c3f565b92915050565b7f536f6c6f20656c2070726f706965746172696f207075656465207265746972615f8201527f72206c6f7320666f6e646f730000000000000000000000000000000000000000602082015250565b5f610cc1602c83610803565b9150610ccc82610c67565b604082019050919050565b5f6020820190508181035f830152610cee81610cb5565b9050919050565b7f4e6f207365207469656e656e20666f6e646f7320656e20656c20636f6e7472615f8201527f746f20746f646176696100000000000000000000000000000000000000000000602082015250565b5f610d4f602a83610803565b9150610d5a82610cf5565b604082019050919050565b5f6020820190508181035f830152610d7c81610d43565b9050919050565b7f4e487b71000000000000000000000000000000000000000000000000000000005f52602260045260245ffd5b5f6002820490506001821680610dc757607f821691505b602082108103610dda57610dd9610d83565b5b50919050565b7f4e6f207469656e652073616c646f20656e2041564158207061726120656a65635f8201527f7574617200000000000000000000000000000000000000000000000000000000602082015250565b5f610e3a602483610803565b9150610e4582610de0565b604082019050919050565b5f6020820190508181035f830152610e6781610e2e565b9050919050565b5f819050815f5260205f209050919050565b5f6020601f8301049050919050565b5f82821b905092915050565b5f60088302610eca7fffffffffffffffffffffffffffffffffffffffffffffffffffffffffffffffff82610e8f565b610ed48683610e8f565b95508019841693508086168417925050509392505050565b5f819050919050565b5f610f0f610f0a610f05846107c8565b610eec565b6107c8565b9050919050565b5f819050919050565b610f2883610ef5565b610f3c610f3482610f16565b848454610e9b565b825550505050565b5f90565b610f50610f44565b610f5b818484610f1f565b505050565b5b81811015610f7e57610f735f82610f48565b600181019050610f61565b5050565b601f821115610fc357610f9481610e6e565b610f9d84610e80565b81016020851015610fac578190505b610fc0610fb885610e80565b830182610f60565b50505b505050565b5f82821c905092915050565b5f610fe35f1984600802610fc8565b1980831691505092915050565b5f610ffb8383610fd4565b9150826002028217905092915050565b611014826107f9565b67ffffffffffffffff81111561102d5761102c61099b565b5b6110378254610db0565b611042828285610f82565b5f60209050601f831160018114611073575f8415611061578287015190505b61106b8582610ff0565b8655506110d2565b601f19841661108186610e6e565b5f5b828110156110a857848901518255600182019150602085019450602081019050611083565b868310156110c557848901516110c1601f891682610fd4565b8355505b6001600288020188555050505b50505050505056fea26469706673582212202a0e750e8aa1f9576aa832179a3a3b3cac1ed266d73962c88ca305dded3e395464736f6c63430008180033",
					"opcodes": "PUSH1 0x80 PUSH1 0x40 MSTORE CALLVALUE DUP1 ISZERO PUSH2 0xF JUMPI PUSH0 DUP1 REVERT JUMPDEST POP CALLER PUSH0 DUP1 PUSH2 0x100 EXP DUP2 SLOAD DUP2 PUSH20 0xFFFFFFFFFFFFFFFFFFFFFFFFFFFFFFFFFFFFFFFF MUL NOT AND SWAP1 DUP4 PUSH20 0xFFFFFFFFFFFFFFFFFFFFFFFFFFFFFFFFFFFFFFFF AND MUL OR SWAP1 SSTORE POP PUSH2 0x1110 DUP1 PUSH2 0x5C PUSH0 CODECOPY PUSH0 RETURN INVALID PUSH1 0x80 PUSH1 0x40 MSTORE PUSH1 0x4 CALLDATASIZE LT PUSH2 0x49 JUMPI PUSH0 CALLDATALOAD PUSH1 0xE0 SHR DUP1 PUSH4 0x12065FE0 EQ PUSH2 0x4D JUMPI DUP1 PUSH4 0x3CCFD60B EQ PUSH2 0x77 JUMPI DUP1 PUSH4 0x73D4A13A EQ PUSH2 0x8D JUMPI DUP1 PUSH4 0x782154DF EQ PUSH2 0xBE JUMPI DUP1 PUSH4 0x8DA5CB5B EQ PUSH2 0xDA JUMPI JUMPDEST PUSH0 DUP1 REVERT JUMPDEST CALLVALUE DUP1 ISZERO PUSH2 0x58 JUMPI PUSH0 DUP1 REVERT JUMPDEST POP PUSH2 0x61 PUSH2 0x104 JUMP JUMPDEST PUSH1 0x40 MLOAD PUSH2 0x6E SWAP2 SWAP1 PUSH2 0x7E0 JUMP JUMPDEST PUSH1 0x40 MLOAD DUP1 SWAP2 SUB SWAP1 RETURN JUMPDEST CALLVALUE DUP1 ISZERO PUSH2 0x82 JUMPI PUSH0 DUP1 REVERT JUMPDEST POP PUSH2 0x8B PUSH2 0x10B JUMP JUMPDEST STOP JUMPDEST CALLVALUE DUP1 ISZERO PUSH2 0x98 JUMPI PUSH0 DUP1 REVERT JUMPDEST POP PUSH2 0xA1 PUSH2 0x244 JUMP JUMPDEST PUSH1 0x40 MLOAD PUSH2 0xB5 SWAP9 SWAP8 SWAP7 SWAP6 SWAP5 SWAP4 SWAP3 SWAP2 SWAP1 PUSH2 0x8DC JUMP JUMPDEST PUSH1 0x40 MLOAD DUP1 SWAP2 SUB SWAP1 RETURN JUMPDEST PUSH2 0xD8 PUSH1 0x4 DUP1 CALLDATASIZE SUB DUP2 ADD SWAP1 PUSH2 0xD3 SWAP2 SWAP1 PUSH2 0xAE9 JUMP JUMPDEST PUSH2 0x5C8 JUMP JUMPDEST STOP JUMPDEST CALLVALUE DUP1 ISZERO PUSH2 0xE5 JUMPI PUSH0 DUP1 REVERT JUMPDEST POP PUSH2 0xEE PUSH2 0x7A5 JUMP JUMPDEST PUSH1 0x40 MLOAD PUSH2 0xFB SWAP2 SWAP1 PUSH2 0xC4E JUMP JUMPDEST PUSH1 0x40 MLOAD DUP1 SWAP2 SUB SWAP1 RETURN JUMPDEST PUSH0 SELFBALANCE SWAP1 POP SWAP1 JUMP JUMPDEST PUSH0 DUP1 SLOAD SWAP1 PUSH2 0x100 EXP SWAP1 DIV PUSH20 0xFFFFFFFFFFFFFFFFFFFFFFFFFFFFFFFFFFFFFFFF AND PUSH20 0xFFFFFFFFFFFFFFFFFFFFFFFFFFFFFFFFFFFFFFFF AND CALLER PUSH20 0xFFFFFFFFFFFFFFFFFFFFFFFFFFFFFFFFFFFFFFFF AND EQ PUSH2 0x198 JUMPI PUSH1 0x40 MLOAD PUSH32 0x8C379A000000000000000000000000000000000000000000000000000000000 DUP2 MSTORE PUSH1 0x4 ADD PUSH2 0x18F SWAP1 PUSH2 0xCD7 JUMP JUMPDEST PUSH1 0x40 MLOAD DUP1 SWAP2 SUB SWAP1 REVERT JUMPDEST PUSH0 SELFBALANCE SWAP1 POP PUSH0 DUP2 GT PUSH2 0x1DE JUMPI PUSH1 0x40 MLOAD PUSH32 0x8C379A000000000000000000000000000000000000000000000000000000000 DUP2 MSTORE PUSH1 0x4 ADD PUSH2 0x1D5 SWAP1 PUSH2 0xD65 JUMP JUMPDEST PUSH1 0x40 MLOAD DUP1 SWAP2 SUB SWAP1 REVERT JUMPDEST PUSH0 DUP1 SLOAD SWAP1 PUSH2 0x100 EXP SWAP1 DIV PUSH20 0xFFFFFFFFFFFFFFFFFFFFFFFFFFFFFFFFFFFFFFFF AND PUSH20 0xFFFFFFFFFFFFFFFFFFFFFFFFFFFFFFFFFFFFFFFF AND PUSH2 0x8FC DUP3 SWAP1 DUP2 ISZERO MUL SWAP1 PUSH1 0x40 MLOAD PUSH0 PUSH1 0x40 MLOAD DUP1 DUP4 SUB DUP2 DUP6 DUP9 DUP9 CALL SWAP4 POP POP POP POP ISZERO DUP1 ISZERO PUSH2 0x240 JUMPI RETURNDATASIZE PUSH0 DUP1 RETURNDATACOPY RETURNDATASIZE PUSH0 REVERT JUMPDEST POP POP JUMP JUMPDEST PUSH1 0x1 DUP1 PUSH0 ADD DUP1 SLOAD PUSH2 0x254 SWAP1 PUSH2 0xDB0 JUMP JUMPDEST DUP1 PUSH1 0x1F ADD PUSH1 0x20 DUP1 SWAP2 DIV MUL PUSH1 0x20 ADD PUSH1 0x40 MLOAD SWAP1 DUP2 ADD PUSH1 0x40 MSTORE DUP1 SWAP3 SWAP2 SWAP1 DUP2 DUP2 MSTORE PUSH1 0x20 ADD DUP3 DUP1 SLOAD PUSH2 0x280 SWAP1 PUSH2 0xDB0 JUMP JUMPDEST DUP1 ISZERO PUSH2 0x2CB JUMPI DUP1 PUSH1 0x1F LT PUSH2 0x2A2 JUMPI PUSH2 0x100 DUP1 DUP4 SLOAD DIV MUL DUP4 MSTORE SWAP2 PUSH1 0x20 ADD SWAP2 PUSH2 0x2CB JUMP JUMPDEST DUP3 ADD SWAP2 SWAP1 PUSH0 MSTORE PUSH1 0x20 PUSH0 KECCAK256 SWAP1 JUMPDEST DUP2 SLOAD DUP2 MSTORE SWAP1 PUSH1 0x1 ADD SWAP1 PUSH1 0x20 ADD DUP1 DUP4 GT PUSH2 0x2AE JUMPI DUP3 SWAP1 SUB PUSH1 0x1F AND DUP3 ADD SWAP2 JUMPDEST POP POP POP POP POP SWAP1 DUP1 PUSH1 0x1 ADD DUP1 SLOAD PUSH2 0x2E0 SWAP1 PUSH2 0xDB0 JUMP JUMPDEST DUP1 PUSH1 0x1F ADD PUSH1 0x20 DUP1 SWAP2 DIV MUL PUSH1 0x20 ADD PUSH1 0x40 MLOAD SWAP1 DUP2 ADD PUSH1 0x40 MSTORE DUP1 SWAP3 SWAP2 SWAP1 DUP2 DUP2 MSTORE PUSH1 0x20 ADD DUP3 DUP1 SLOAD PUSH2 0x30C SWAP1 PUSH2 0xDB0 JUMP JUMPDEST DUP1 ISZERO PUSH2 0x357 JUMPI DUP1 PUSH1 0x1F LT PUSH2 0x32E JUMPI PUSH2 0x100 DUP1 DUP4 SLOAD DIV MUL DUP4 MSTORE SWAP2 PUSH1 0x20 ADD SWAP2 PUSH2 0x357 JUMP JUMPDEST DUP3 ADD SWAP2 SWAP1 PUSH0 MSTORE PUSH1 0x20 PUSH0 KECCAK256 SWAP1 JUMPDEST DUP2 SLOAD DUP2 MSTORE SWAP1 PUSH1 0x1 ADD SWAP1 PUSH1 0x20 ADD DUP1 DUP4 GT PUSH2 0x33A JUMPI DUP3 SWAP1 SUB PUSH1 0x1F AND DUP3 ADD SWAP2 JUMPDEST POP POP POP POP POP SWAP1 DUP1 PUSH1 0x2 ADD DUP1 SLOAD PUSH2 0x36C SWAP1 PUSH2 0xDB0 JUMP JUMPDEST DUP1 PUSH1 0x1F ADD PUSH1 0x20 DUP1 SWAP2 DIV MUL PUSH1 0x20 ADD PUSH1 0x40 MLOAD SWAP1 DUP2 ADD PUSH1 0x40 MSTORE DUP1 SWAP3 SWAP2 SWAP1 DUP2 DUP2 MSTORE PUSH1 0x20 ADD DUP3 DUP1 SLOAD PUSH2 0x398 SWAP1 PUSH2 0xDB0 JUMP JUMPDEST DUP1 ISZERO PUSH2 0x3E3 JUMPI DUP1 PUSH1 0x1F LT PUSH2 0x3BA JUMPI PUSH2 0x100 DUP1 DUP4 SLOAD DIV MUL DUP4 MSTORE SWAP2 PUSH1 0x20 ADD SWAP2 PUSH2 0x3E3 JUMP JUMPDEST DUP3 ADD SWAP2 SWAP1 PUSH0 MSTORE PUSH1 0x20 PUSH0 KECCAK256 SWAP1 JUMPDEST DUP2 SLOAD DUP2 MSTORE SWAP1 PUSH1 0x1 ADD SWAP1 PUSH1 0x20 ADD DUP1 DUP4 GT PUSH2 0x3C6 JUMPI DUP3 SWAP1 SUB PUSH1 0x1F AND DUP3 ADD SWAP2 JUMPDEST POP POP POP POP POP SWAP1 DUP1 PUSH1 0x3 ADD DUP1 SLOAD PUSH2 0x3F8 SWAP1 PUSH2 0xDB0 JUMP JUMPDEST DUP1 PUSH1 0x1F ADD PUSH1 0x20 DUP1 SWAP2 DIV MUL PUSH1 0x20 ADD PUSH1 0x40 MLOAD SWAP1 DUP2 ADD PUSH1 0x40 MSTORE DUP1 SWAP3 SWAP2 SWAP1 DUP2 DUP2 MSTORE PUSH1 0x20 ADD DUP3 DUP1 SLOAD PUSH2 0x424 SWAP1 PUSH2 0xDB0 JUMP JUMPDEST DUP1 ISZERO PUSH2 0x46F JUMPI DUP1 PUSH1 0x1F LT PUSH2 0x446 JUMPI PUSH2 0x100 DUP1 DUP4 SLOAD DIV MUL DUP4 MSTORE SWAP2 PUSH1 0x20 ADD SWAP2 PUSH2 0x46F JUMP JUMPDEST DUP3 ADD SWAP2 SWAP1 PUSH0 MSTORE PUSH1 0x20 PUSH0 KECCAK256 SWAP1 JUMPDEST DUP2 SLOAD DUP2 MSTORE SWAP1 PUSH1 0x1 ADD SWAP1 PUSH1 0x20 ADD DUP1 DUP4 GT PUSH2 0x452 JUMPI DUP3 SWAP1 SUB PUSH1 0x1F AND DUP3 ADD SWAP2 JUMPDEST POP POP POP POP POP SWAP1 DUP1 PUSH1 0x4 ADD DUP1 SLOAD PUSH2 0x484 SWAP1 PUSH2 0xDB0 JUMP JUMPDEST DUP1 PUSH1 0x1F ADD PUSH1 0x20 DUP1 SWAP2 DIV MUL PUSH1 0x20 ADD PUSH1 0x40 MLOAD SWAP1 DUP2 ADD PUSH1 0x40 MSTORE DUP1 SWAP3 SWAP2 SWAP1 DUP2 DUP2 MSTORE PUSH1 0x20 ADD DUP3 DUP1 SLOAD PUSH2 0x4B0 SWAP1 PUSH2 0xDB0 JUMP JUMPDEST DUP1 ISZERO PUSH2 0x4FB JUMPI DUP1 PUSH1 0x1F LT PUSH2 0x4D2 JUMPI PUSH2 0x100 DUP1 DUP4 SLOAD DIV MUL DUP4 MSTORE SWAP2 PUSH1 0x20 ADD SWAP2 PUSH2 0x4FB JUMP JUMPDEST DUP3 ADD SWAP2 SWAP1 PUSH0 MSTORE PUSH1 0x20 PUSH0 KECCAK256 SWAP1 JUMPDEST DUP2 SLOAD DUP2 MSTORE SWAP1 PUSH1 0x1 ADD SWAP1 PUSH1 0x20 ADD DUP1 DUP4 GT PUSH2 0x4DE JUMPI DUP3 SWAP1 SUB PUSH1 0x1F AND DUP3 ADD SWAP2 JUMPDEST POP POP POP POP POP SWAP1 DUP1 PUSH1 0x5 ADD DUP1 SLOAD PUSH2 0x510 SWAP1 PUSH2 0xDB0 JUMP JUMPDEST DUP1 PUSH1 0x1F ADD PUSH1 0x20 DUP1 SWAP2 DIV MUL PUSH1 0x20 ADD PUSH1 0x40 MLOAD SWAP1 DUP2 ADD PUSH1 0x40 MSTORE DUP1 SWAP3 SWAP2 SWAP1 DUP2 DUP2 MSTORE PUSH1 0x20 ADD DUP3 DUP1 SLOAD PUSH2 0x53C SWAP1 PUSH2 0xDB0 JUMP JUMPDEST DUP1 ISZERO PUSH2 0x587 JUMPI DUP1 PUSH1 0x1F LT PUSH2 0x55E JUMPI PUSH2 0x100 DUP1 DUP4 SLOAD DIV MUL DUP4 MSTORE SWAP2 PUSH1 0x20 ADD SWAP2 PUSH2 0x587 JUMP JUMPDEST DUP3 ADD SWAP2 SWAP1 PUSH0 MSTORE PUSH1 0x20 PUSH0 KECCAK256 SWAP1 JUMPDEST DUP2 SLOAD DUP2 MSTORE SWAP1 PUSH1 0x1 ADD SWAP1 PUSH1 0x20 ADD DUP1 DUP4 GT PUSH2 0x56A JUMPI DUP3 SWAP1 SUB PUSH1 0x1F AND DUP3 ADD SWAP2 JUMPDEST POP POP POP POP POP SWAP1 DUP1 PUSH1 0x6 ADD PUSH0 SWAP1 SLOAD SWAP1 PUSH2 0x100 EXP SWAP1 DIV PUSH0 SIGNEXTEND SWAP1 DUP1 PUSH1 0x6 ADD PUSH1 0x1 SWAP1 SLOAD SWAP1 PUSH2 0x100 EXP SWAP1 DIV PUSH20 0xFFFFFFFFFFFFFFFFFFFFFFFFFFFFFFFFFFFFFFFF AND SWAP1 POP DUP9 JUMP JUMPDEST PUSH8 0x16345785D8A0000 DUP1 CALLVALUE LT ISZERO PUSH2 0x614 JUMPI PUSH1 0x40 MLOAD PUSH32 0x8C379A000000000000000000000000000000000000000000000000000000000 DUP2 MSTORE PUSH1 0x4 ADD PUSH2 0x60B SWAP1 PUSH2 0xE50 JUMP JUMPDEST PUSH1 0x40 MLOAD DUP1 SWAP2 SUB SWAP1 REVERT JUMPDEST PUSH1 0x40 MLOAD DUP1 PUSH2 0x100 ADD PUSH1 0x40 MSTORE DUP1 DUP10 DUP2 MSTORE PUSH1 0x20 ADD DUP9 DUP2 MSTORE PUSH1 0x20 ADD DUP8 DUP2 MSTORE PUSH1 0x20 ADD DUP7 DUP2 MSTORE PUSH1 0x20 ADD DUP6 DUP2 MSTORE PUSH1 0x20 ADD DUP5 DUP2 MSTORE PUSH1 0x20 ADD DUP4 PUSH0 SIGNEXTEND DUP2 MSTORE PUSH1 0x20 ADD CALLER PUSH20 0xFFFFFFFFFFFFFFFFFFFFFFFFFFFFFFFFFFFFFFFF AND DUP2 MSTORE POP PUSH1 0x1 PUSH0 DUP3 ADD MLOAD DUP2 PUSH0 ADD SWAP1 DUP2 PUSH2 0x67B SWAP2 SWAP1 PUSH2 0x100B JUMP JUMPDEST POP PUSH1 0x20 DUP3 ADD MLOAD DUP2 PUSH1 0x1 ADD SWAP1 DUP2 PUSH2 0x691 SWAP2 SWAP1 PUSH2 0x100B JUMP JUMPDEST POP PUSH1 0x40 DUP3 ADD MLOAD DUP2 PUSH1 0x2 ADD SWAP1 DUP2 PUSH2 0x6A7 SWAP2 SWAP1 PUSH2 0x100B JUMP JUMPDEST POP PUSH1 0x60 DUP3 ADD MLOAD DUP2 PUSH1 0x3 ADD SWAP1 DUP2 PUSH2 0x6BD SWAP2 SWAP1 PUSH2 0x100B JUMP JUMPDEST POP PUSH1 0x80 DUP3 ADD MLOAD DUP2 PUSH1 0x4 ADD SWAP1 DUP2 PUSH2 0x6D3 SWAP2 SWAP1 PUSH2 0x100B JUMP JUMPDEST POP PUSH1 0xA0 DUP3 ADD MLOAD DUP2 PUSH1 0x5 ADD SWAP1 DUP2 PUSH2 0x6E9 SWAP2 SWAP1 PUSH2 0x100B JUMP JUMPDEST POP PUSH1 0xC0 DUP3 ADD MLOAD DUP2 PUSH1 0x6 ADD PUSH0 PUSH2 0x100 EXP DUP2 SLOAD DUP2 PUSH1 0xFF MUL NOT AND SWAP1 DUP4 PUSH0 SIGNEXTEND PUSH1 0xFF AND MUL OR SWAP1 SSTORE POP PUSH1 0xE0 DUP3 ADD MLOAD DUP2 PUSH1 0x6 ADD PUSH1 0x1 PUSH2 0x100 EXP DUP2 SLOAD DUP2 PUSH20 0xFFFFFFFFFFFFFFFFFFFFFFFFFFFFFFFFFFFFFFFF MUL NOT AND SWAP1 DUP4 PUSH20 0xFFFFFFFFFFFFFFFFFFFFFFFFFFFFFFFFFFFFFFFF AND MUL OR SWAP1 SSTORE POP SWAP1 POP POP PUSH32 0x870247EB151FD35C4907322D059C22CBE7EB7930B7B7116D4A107CBBB5378D12 DUP9 DUP9 DUP9 DUP9 DUP9 DUP9 DUP9 CALLER PUSH1 0x40 MLOAD PUSH2 0x793 SWAP9 SWAP8 SWAP7 SWAP6 SWAP5 SWAP4 SWAP3 SWAP2 SWAP1 PUSH2 0x8DC JUMP JUMPDEST PUSH1 0x40 MLOAD DUP1 SWAP2 SUB SWAP1 LOG1 POP POP POP POP POP POP POP POP JUMP JUMPDEST PUSH0 DUP1 SLOAD SWAP1 PUSH2 0x100 EXP SWAP1 DIV PUSH20 0xFFFFFFFFFFFFFFFFFFFFFFFFFFFFFFFFFFFFFFFF AND DUP2 JUMP JUMPDEST PUSH0 DUP2 SWAP1 POP SWAP2 SWAP1 POP JUMP JUMPDEST PUSH2 0x7DA DUP2 PUSH2 0x7C8 JUMP JUMPDEST DUP3 MSTORE POP POP JUMP JUMPDEST PUSH0 PUSH1 0x20 DUP3 ADD SWAP1 POP PUSH2 0x7F3 PUSH0 DUP4 ADD DUP5 PUSH2 0x7D1 JUMP JUMPDEST SWAP3 SWAP2 POP POP JUMP JUMPDEST PUSH0 DUP2 MLOAD SWAP1 POP SWAP2 SWAP1 POP JUMP JUMPDEST PUSH0 DUP3 DUP3 MSTORE PUSH1 0x20 DUP3 ADD SWAP1 POP SWAP3 SWAP2 POP POP JUMP JUMPDEST PUSH0 JUMPDEST DUP4 DUP2 LT ISZERO PUSH2 0x830 JUMPI DUP1 DUP3 ADD MLOAD DUP2 DUP5 ADD MSTORE PUSH1 0x20 DUP2 ADD SWAP1 POP PUSH2 0x815 JUMP JUMPDEST PUSH0 DUP5 DUP5 ADD MSTORE POP POP POP POP JUMP JUMPDEST PUSH0 PUSH1 0x1F NOT PUSH1 0x1F DUP4 ADD AND SWAP1 POP SWAP2 SWAP1 POP JUMP JUMPDEST PUSH0 PUSH2 0x855 DUP3 PUSH2 0x7F9 JUMP JUMPDEST PUSH2 0x85F DUP2 DUP6 PUSH2 0x803 JUMP JUMPDEST SWAP4 POP PUSH2 0x86F DUP2 DUP6 PUSH1 0x20 DUP7 ADD PUSH2 0x813 JUMP JUMPDEST PUSH2 0x878 DUP2 PUSH2 0x83B JUMP JUMPDEST DUP5 ADD SWAP2 POP POP SWAP3 SWAP2 POP POP JUMP JUMPDEST PUSH0 DUP2 PUSH0 SIGNEXTEND SWAP1 POP SWAP2 SWAP1 POP JUMP JUMPDEST PUSH2 0x897 DUP2 PUSH2 0x883 JUMP JUMPDEST DUP3 MSTORE POP POP JUMP JUMPDEST PUSH0 PUSH20 0xFFFFFFFFFFFFFFFFFFFFFFFFFFFFFFFFFFFFFFFF DUP3 AND SWAP1 POP SWAP2 SWAP1 POP JUMP JUMPDEST PUSH0 PUSH2 0x8C6 DUP3 PUSH2 0x89D JUMP JUMPDEST SWAP1 POP SWAP2 SWAP1 POP JUMP JUMPDEST PUSH2 0x8D6 DUP2 PUSH2 0x8BC JUMP JUMPDEST DUP3 MSTORE POP POP JUMP JUMPDEST PUSH0 PUSH2 0x100 DUP3 ADD SWAP1 POP DUP2 DUP2 SUB PUSH0 DUP4 ADD MSTORE PUSH2 0x8F5 DUP2 DUP12 PUSH2 0x84B JUMP JUMPDEST SWAP1 POP DUP2 DUP2 SUB PUSH1 0x20 DUP4 ADD MSTORE PUSH2 0x909 DUP2 DUP11 PUSH2 0x84B JUMP JUMPDEST SWAP1 POP DUP2 DUP2 SUB PUSH1 0x40 DUP4 ADD MSTORE PUSH2 0x91D DUP2 DUP10 PUSH2 0x84B JUMP JUMPDEST SWAP1 POP DUP2 DUP2 SUB PUSH1 0x60 DUP4 ADD MSTORE PUSH2 0x931 DUP2 DUP9 PUSH2 0x84B JUMP JUMPDEST SWAP1 POP DUP2 DUP2 SUB PUSH1 0x80 DUP4 ADD MSTORE PUSH2 0x945 DUP2 DUP8 PUSH2 0x84B JUMP JUMPDEST SWAP1 POP DUP2 DUP2 SUB PUSH1 0xA0 DUP4 ADD MSTORE PUSH2 0x959 DUP2 DUP7 PUSH2 0x84B JUMP JUMPDEST SWAP1 POP PUSH2 0x968 PUSH1 0xC0 DUP4 ADD DUP6 PUSH2 0x88E JUMP JUMPDEST PUSH2 0x975 PUSH1 0xE0 DUP4 ADD DUP5 PUSH2 0x8CD JUMP JUMPDEST SWAP10 SWAP9 POP POP POP POP POP POP POP POP POP JUMP JUMPDEST PUSH0 PUSH1 0x40 MLOAD SWAP1 POP SWAP1 JUMP JUMPDEST PUSH0 DUP1 REVERT JUMPDEST PUSH0 DUP1 REVERT JUMPDEST PUSH0 DUP1 REVERT JUMPDEST PUSH0 DUP1 REVERT JUMPDEST PUSH32 0x4E487B7100000000000000000000000000000000000000000000000000000000 PUSH0 MSTORE PUSH1 0x41 PUSH1 0x4 MSTORE PUSH1 0x24 PUSH0 REVERT JUMPDEST PUSH2 0x9D1 DUP3 PUSH2 0x83B JUMP JUMPDEST DUP2 ADD DUP2 DUP2 LT PUSH8 0xFFFFFFFFFFFFFFFF DUP3 GT OR ISZERO PUSH2 0x9F0 JUMPI PUSH2 0x9EF PUSH2 0x99B JUMP JUMPDEST JUMPDEST DUP1 PUSH1 0x40 MSTORE POP POP POP JUMP JUMPDEST PUSH0 PUSH2 0xA02 PUSH2 0x982 JUMP JUMPDEST SWAP1 POP PUSH2 0xA0E DUP3 DUP3 PUSH2 0x9C8 JUMP JUMPDEST SWAP2 SWAP1 POP JUMP JUMPDEST PUSH0 PUSH8 0xFFFFFFFFFFFFFFFF DUP3 GT ISZERO PUSH2 0xA2D JUMPI PUSH2 0xA2C PUSH2 0x99B JUMP JUMPDEST JUMPDEST PUSH2 0xA36 DUP3 PUSH2 0x83B JUMP JUMPDEST SWAP1 POP PUSH1 0x20 DUP2 ADD SWAP1 POP SWAP2 SWAP1 POP JUMP JUMPDEST DUP3 DUP2 DUP4 CALLDATACOPY PUSH0 DUP4 DUP4 ADD MSTORE POP POP POP JUMP JUMPDEST PUSH0 PUSH2 0xA63 PUSH2 0xA5E DUP5 PUSH2 0xA13 JUMP JUMPDEST PUSH2 0x9F9 JUMP JUMPDEST SWAP1 POP DUP3 DUP2 MSTORE PUSH1 0x20 DUP2 ADD DUP5 DUP5 DUP5 ADD GT ISZERO PUSH2 0xA7F JUMPI PUSH2 0xA7E PUSH2 0x997 JUMP JUMPDEST JUMPDEST PUSH2 0xA8A DUP5 DUP3 DUP6 PUSH2 0xA43 JUMP JUMPDEST POP SWAP4 SWAP3 POP POP POP JUMP JUMPDEST PUSH0 DUP3 PUSH1 0x1F DUP4 ADD SLT PUSH2 0xAA6 JUMPI PUSH2 0xAA5 PUSH2 0x993 JUMP JUMPDEST JUMPDEST DUP2 CALLDATALOAD PUSH2 0xAB6 DUP5 DUP3 PUSH1 0x20 DUP7 ADD PUSH2 0xA51 JUMP JUMPDEST SWAP2 POP POP SWAP3 SWAP2 POP POP JUMP JUMPDEST PUSH2 0xAC8 DUP2 PUSH2 0x883 JUMP JUMPDEST DUP2 EQ PUSH2 0xAD2 JUMPI PUSH0 DUP1 REVERT JUMPDEST POP JUMP JUMPDEST PUSH0 DUP2 CALLDATALOAD SWAP1 POP PUSH2 0xAE3 DUP2 PUSH2 0xABF JUMP JUMPDEST SWAP3 SWAP2 POP POP JUMP JUMPDEST PUSH0 DUP1 PUSH0 DUP1 PUSH0 DUP1 PUSH0 PUSH1 0xE0 DUP9 DUP11 SUB SLT ISZERO PUSH2 0xB04 JUMPI PUSH2 0xB03 PUSH2 0x98B JUMP JUMPDEST JUMPDEST PUSH0 DUP9 ADD CALLDATALOAD PUSH8 0xFFFFFFFFFFFFFFFF DUP2 GT ISZERO PUSH2 0xB21 JUMPI PUSH2 0xB20 PUSH2 0x98F JUMP JUMPDEST JUMPDEST PUSH2 0xB2D DUP11 DUP3 DUP12 ADD PUSH2 0xA92 JUMP JUMPDEST SWAP8 POP POP PUSH1 0x20 DUP9 ADD CALLDATALOAD PUSH8 0xFFFFFFFFFFFFFFFF DUP2 GT ISZERO PUSH2 0xB4E JUMPI PUSH2 0xB4D PUSH2 0x98F JUMP JUMPDEST JUMPDEST PUSH2 0xB5A DUP11 DUP3 DUP12 ADD PUSH2 0xA92 JUMP JUMPDEST SWAP7 POP POP PUSH1 0x40 DUP9 ADD CALLDATALOAD PUSH8 0xFFFFFFFFFFFFFFFF DUP2 GT ISZERO PUSH2 0xB7B JUMPI PUSH2 0xB7A PUSH2 0x98F JUMP JUMPDEST JUMPDEST PUSH2 0xB87 DUP11 DUP3 DUP12 ADD PUSH2 0xA92 JUMP JUMPDEST SWAP6 POP POP PUSH1 0x60 DUP9 ADD CALLDATALOAD PUSH8 0xFFFFFFFFFFFFFFFF DUP2 GT ISZERO PUSH2 0xBA8 JUMPI PUSH2 0xBA7 PUSH2 0x98F JUMP JUMPDEST JUMPDEST PUSH2 0xBB4 DUP11 DUP3 DUP12 ADD PUSH2 0xA92 JUMP JUMPDEST SWAP5 POP POP PUSH1 0x80 DUP9 ADD CALLDATALOAD PUSH8 0xFFFFFFFFFFFFFFFF DUP2 GT ISZERO PUSH2 0xBD5 JUMPI PUSH2 0xBD4 PUSH2 0x98F JUMP JUMPDEST JUMPDEST PUSH2 0xBE1 DUP11 DUP3 DUP12 ADD PUSH2 0xA92 JUMP JUMPDEST SWAP4 POP POP PUSH1 0xA0 DUP9 ADD CALLDATALOAD PUSH8 0xFFFFFFFFFFFFFFFF DUP2 GT ISZERO PUSH2 0xC02 JUMPI PUSH2 0xC01 PUSH2 0x98F JUMP JUMPDEST JUMPDEST PUSH2 0xC0E DUP11 DUP3 DUP12 ADD PUSH2 0xA92 JUMP JUMPDEST SWAP3 POP POP PUSH1 0xC0 PUSH2 0xC1F DUP11 DUP3 DUP12 ADD PUSH2 0xAD5 JUMP JUMPDEST SWAP2 POP POP SWAP3 SWAP6 SWAP9 SWAP2 SWAP5 SWAP8 POP SWAP3 SWAP6 POP JUMP JUMPDEST PUSH0 PUSH2 0xC38 DUP3 PUSH2 0x89D JUMP JUMPDEST SWAP1 POP SWAP2 SWAP1 POP JUMP JUMPDEST PUSH2 0xC48 DUP2 PUSH2 0xC2E JUMP JUMPDEST DUP3 MSTORE POP POP JUMP JUMPDEST PUSH0 PUSH1 0x20 DUP3 ADD SWAP1 POP PUSH2 0xC61 PUSH0 DUP4 ADD DUP5 PUSH2 0xC3F JUMP JUMPDEST SWAP3 SWAP2 POP POP JUMP JUMPDEST PUSH32 0x536F6C6F20656C2070726F706965746172696F20707565646520726574697261 PUSH0 DUP3 ADD MSTORE PUSH32 0x72206C6F7320666F6E646F730000000000000000000000000000000000000000 PUSH1 0x20 DUP3 ADD MSTORE POP JUMP JUMPDEST PUSH0 PUSH2 0xCC1 PUSH1 0x2C DUP4 PUSH2 0x803 JUMP JUMPDEST SWAP2 POP PUSH2 0xCCC DUP3 PUSH2 0xC67 JUMP JUMPDEST PUSH1 0x40 DUP3 ADD SWAP1 POP SWAP2 SWAP1 POP JUMP JUMPDEST PUSH0 PUSH1 0x20 DUP3 ADD SWAP1 POP DUP2 DUP2 SUB PUSH0 DUP4 ADD MSTORE PUSH2 0xCEE DUP2 PUSH2 0xCB5 JUMP JUMPDEST SWAP1 POP SWAP2 SWAP1 POP JUMP JUMPDEST PUSH32 0x4E6F207365207469656E656E20666F6E646F7320656E20656C20636F6E747261 PUSH0 DUP3 ADD MSTORE PUSH32 0x746F20746F646176696100000000000000000000000000000000000000000000 PUSH1 0x20 DUP3 ADD MSTORE POP JUMP JUMPDEST PUSH0 PUSH2 0xD4F PUSH1 0x2A DUP4 PUSH2 0x803 JUMP JUMPDEST SWAP2 POP PUSH2 0xD5A DUP3 PUSH2 0xCF5 JUMP JUMPDEST PUSH1 0x40 DUP3 ADD SWAP1 POP SWAP2 SWAP1 POP JUMP JUMPDEST PUSH0 PUSH1 0x20 DUP3 ADD SWAP1 POP DUP2 DUP2 SUB PUSH0 DUP4 ADD MSTORE PUSH2 0xD7C DUP2 PUSH2 0xD43 JUMP JUMPDEST SWAP1 POP SWAP2 SWAP1 POP JUMP JUMPDEST PUSH32 0x4E487B7100000000000000000000000000000000000000000000000000000000 PUSH0 MSTORE PUSH1 0x22 PUSH1 0x4 MSTORE PUSH1 0x24 PUSH0 REVERT JUMPDEST PUSH0 PUSH1 0x2 DUP3 DIV SWAP1 POP PUSH1 0x1 DUP3 AND DUP1 PUSH2 0xDC7 JUMPI PUSH1 0x7F DUP3 AND SWAP2 POP JUMPDEST PUSH1 0x20 DUP3 LT DUP2 SUB PUSH2 0xDDA JUMPI PUSH2 0xDD9 PUSH2 0xD83 JUMP JUMPDEST JUMPDEST POP SWAP2 SWAP1 POP JUMP JUMPDEST PUSH32 0x4E6F207469656E652073616C646F20656E2041564158207061726120656A6563 PUSH0 DUP3 ADD MSTORE PUSH32 0x7574617200000000000000000000000000000000000000000000000000000000 PUSH1 0x20 DUP3 ADD MSTORE POP JUMP JUMPDEST PUSH0 PUSH2 0xE3A PUSH1 0x24 DUP4 PUSH2 0x803 JUMP JUMPDEST SWAP2 POP PUSH2 0xE45 DUP3 PUSH2 0xDE0 JUMP JUMPDEST PUSH1 0x40 DUP3 ADD SWAP1 POP SWAP2 SWAP1 POP JUMP JUMPDEST PUSH0 PUSH1 0x20 DUP3 ADD SWAP1 POP DUP2 DUP2 SUB PUSH0 DUP4 ADD MSTORE PUSH2 0xE67 DUP2 PUSH2 0xE2E JUMP JUMPDEST SWAP1 POP SWAP2 SWAP1 POP JUMP JUMPDEST PUSH0 DUP2 SWAP1 POP DUP2 PUSH0 MSTORE PUSH1 0x20 PUSH0 KECCAK256 SWAP1 POP SWAP2 SWAP1 POP JUMP JUMPDEST PUSH0 PUSH1 0x20 PUSH1 0x1F DUP4 ADD DIV SWAP1 POP SWAP2 SWAP1 POP JUMP JUMPDEST PUSH0 DUP3 DUP3 SHL SWAP1 POP SWAP3 SWAP2 POP POP JUMP JUMPDEST PUSH0 PUSH1 0x8 DUP4 MUL PUSH2 0xECA PUSH32 0xFFFFFFFFFFFFFFFFFFFFFFFFFFFFFFFFFFFFFFFFFFFFFFFFFFFFFFFFFFFFFFFF DUP3 PUSH2 0xE8F JUMP JUMPDEST PUSH2 0xED4 DUP7 DUP4 PUSH2 0xE8F JUMP JUMPDEST SWAP6 POP DUP1 NOT DUP5 AND SWAP4 POP DUP1 DUP7 AND DUP5 OR SWAP3 POP POP POP SWAP4 SWAP3 POP POP POP JUMP JUMPDEST PUSH0 DUP2 SWAP1 POP SWAP2 SWAP1 POP JUMP JUMPDEST PUSH0 PUSH2 0xF0F PUSH2 0xF0A PUSH2 0xF05 DUP5 PUSH2 0x7C8 JUMP JUMPDEST PUSH2 0xEEC JUMP JUMPDEST PUSH2 0x7C8 JUMP JUMPDEST SWAP1 POP SWAP2 SWAP1 POP JUMP JUMPDEST PUSH0 DUP2 SWAP1 POP SWAP2 SWAP1 POP JUMP JUMPDEST PUSH2 0xF28 DUP4 PUSH2 0xEF5 JUMP JUMPDEST PUSH2 0xF3C PUSH2 0xF34 DUP3 PUSH2 0xF16 JUMP JUMPDEST DUP5 DUP5 SLOAD PUSH2 0xE9B JUMP JUMPDEST DUP3 SSTORE POP POP POP POP JUMP JUMPDEST PUSH0 SWAP1 JUMP JUMPDEST PUSH2 0xF50 PUSH2 0xF44 JUMP JUMPDEST PUSH2 0xF5B DUP2 DUP5 DUP5 PUSH2 0xF1F JUMP JUMPDEST POP POP POP JUMP JUMPDEST JUMPDEST DUP2 DUP2 LT ISZERO PUSH2 0xF7E JUMPI PUSH2 0xF73 PUSH0 DUP3 PUSH2 0xF48 JUMP JUMPDEST PUSH1 0x1 DUP2 ADD SWAP1 POP PUSH2 0xF61 JUMP JUMPDEST POP POP JUMP JUMPDEST PUSH1 0x1F DUP3 GT ISZERO PUSH2 0xFC3 JUMPI PUSH2 0xF94 DUP2 PUSH2 0xE6E JUMP JUMPDEST PUSH2 0xF9D DUP5 PUSH2 0xE80 JUMP JUMPDEST DUP2 ADD PUSH1 0x20 DUP6 LT ISZERO PUSH2 0xFAC JUMPI DUP2 SWAP1 POP JUMPDEST PUSH2 0xFC0 PUSH2 0xFB8 DUP6 PUSH2 0xE80 JUMP JUMPDEST DUP4 ADD DUP3 PUSH2 0xF60 JUMP JUMPDEST POP POP JUMPDEST POP POP POP JUMP JUMPDEST PUSH0 DUP3 DUP3 SHR SWAP1 POP SWAP3 SWAP2 POP POP JUMP JUMPDEST PUSH0 PUSH2 0xFE3 PUSH0 NOT DUP5 PUSH1 0x8 MUL PUSH2 0xFC8 JUMP JUMPDEST NOT DUP1 DUP4 AND SWAP2 POP POP SWAP3 SWAP2 POP POP JUMP JUMPDEST PUSH0 PUSH2 0xFFB DUP4 DUP4 PUSH2 0xFD4 JUMP JUMPDEST SWAP2 POP DUP3 PUSH1 0x2 MUL DUP3 OR SWAP1 POP SWAP3 SWAP2 POP POP JUMP JUMPDEST PUSH2 0x1014 DUP3 PUSH2 0x7F9 JUMP JUMPDEST PUSH8 0xFFFFFFFFFFFFFFFF DUP2 GT ISZERO PUSH2 0x102D JUMPI PUSH2 0x102C PUSH2 0x99B JUMP JUMPDEST JUMPDEST PUSH2 0x1037 DUP3 SLOAD PUSH2 0xDB0 JUMP JUMPDEST PUSH2 0x1042 DUP3 DUP3 DUP6 PUSH2 0xF82 JUMP JUMPDEST PUSH0 PUSH1 0x20 SWAP1 POP PUSH1 0x1F DUP4 GT PUSH1 0x1 DUP2 EQ PUSH2 0x1073 JUMPI PUSH0 DUP5 ISZERO PUSH2 0x1061 JUMPI DUP3 DUP8 ADD MLOAD SWAP1 POP JUMPDEST PUSH2 0x106B DUP6 DUP3 PUSH2 0xFF0 JUMP JUMPDEST DUP7 SSTORE POP PUSH2 0x10D2 JUMP JUMPDEST PUSH1 0x1F NOT DUP5 AND PUSH2 0x1081 DUP7 PUSH2 0xE6E JUMP JUMPDEST PUSH0 JUMPDEST DUP3 DUP2 LT ISZERO PUSH2 0x10A8 JUMPI DUP5 DUP10 ADD MLOAD DUP3 SSTORE PUSH1 0x1 DUP3 ADD SWAP2 POP PUSH1 0x20 DUP6 ADD SWAP5 POP PUSH1 0x20 DUP2 ADD SWAP1 POP PUSH2 0x1083 JUMP JUMPDEST DUP7 DUP4 LT ISZERO PUSH2 0x10C5 JUMPI DUP5 DUP10 ADD MLOAD PUSH2 0x10C1 PUSH1 0x1F DUP10 AND DUP3 PUSH2 0xFD4 JUMP JUMPDEST DUP4 SSTORE POP JUMPDEST PUSH1 0x1 PUSH1 0x2 DUP9 MUL ADD DUP9 SSTORE POP POP POP JUMPDEST POP POP POP POP POP POP JUMP INVALID LOG2 PUSH5 0x6970667358 0x22 SLT KECCAK256 0x2A 0xE PUSH22 0xE8AA1F9576AA832179A3A3B3CAC1ED266D73962C88C LOG3 SDIV 0xDD 0xED RETURNDATACOPY CODECOPY SLOAD PUSH5 0x736F6C6343 STOP ADDMOD XOR STOP CALLER "
				},
				"gasEstimates": {
					"creation": {
						"codeDepositCost": "873600",
						"executionCost": "25172",
						"totalCost": "898772"
					},
					"external": {
						"data()": "infinite",
						"getBalance()": "312",
						"owner()": "2571",
						"pushData(string,string,string,string,string,string,int8)": "infinite",
						"withdraw()": "infinite"
					}
				},
				"methodIdentifiers": {
					"data()": "73d4a13a",
					"getBalance()": "12065fe0",
					"owner()": "8da5cb5b",
					"pushData(string,string,string,string,string,string,int8)": "782154df",
					"withdraw()": "3ccfd60b"
				}
			},
			"storageLayout": {
				"storage": [
					{
						"astId": 3,
						"contract": "tc_avax.sol:tc_avax",
						"label": "owner",
						"offset": 0,
						"slot": "0",
						"type": "t_address_payable"
					},
					{
						"astId": 23,
						"contract": "tc_avax.sol:tc_avax",
						"label": "data",
						"offset": 0,
						"slot": "1",
						"type": "t_struct(Data)20_storage"
					}
				],
				"types": {
					"t_address": {
						"encoding": "inplace",
						"label": "address",
						"numberOfBytes": "20"
					},
					"t_address_payable": {
						"encoding": "inplace",
						"label": "address payable",
						"numberOfBytes": "20"
					},
					"t_int8": {
						"encoding": "inplace",
						"label": "int8",
						"numberOfBytes": "1"
					},
					"t_string_storage": {
						"encoding": "bytes",
						"label": "string",
						"numberOfBytes": "32"
					},
					"t_struct(Data)20_storage": {
						"encoding": "inplace",
						"label": "struct tc_avax.Data",
						"members": [
							{
								"astId": 5,
								"contract": "tc_avax.sol:tc_avax",
								"label": "date",
								"offset": 0,
								"slot": "0",
								"type": "t_string_storage"
							},
							{
								"astId": 7,
								"contract": "tc_avax.sol:tc_avax",
								"label": "delivery_date",
								"offset": 0,
								"slot": "1",
								"type": "t_string_storage"
							},
							{
								"astId": 9,
								"contract": "tc_avax.sol:tc_avax",
								"label": "product",
								"offset": 0,
								"slot": "2",
								"type": "t_string_storage"
							},
							{
								"astId": 11,
								"contract": "tc_avax.sol:tc_avax",
								"label": "price",
								"offset": 0,
								"slot": "3",
								"type": "t_string_storage"
							},
							{
								"astId": 13,
								"contract": "tc_avax.sol:tc_avax",
								"label": "code",
								"offset": 0,
								"slot": "4",
								"type": "t_string_storage"
							},
							{
								"astId": 15,
								"contract": "tc_avax.sol:tc_avax",
								"label": "cel_number",
								"offset": 0,
								"slot": "5",
								"type": "t_string_storage"
							},
							{
								"astId": 17,
								"contract": "tc_avax.sol:tc_avax",
								"label": "status",
								"offset": 0,
								"slot": "6",
								"type": "t_int8"
							},
							{
								"astId": 19,
								"contract": "tc_avax.sol:tc_avax",
								"label": "wallet",
								"offset": 1,
								"slot": "6",
								"type": "t_address"
							}
						],
						"numberOfBytes": "224"
					}
				}
			},
			"userdoc": {
				"kind": "user",
				"methods": {},
				"version": 1
			}
		}
	}
}