{
	"VariableNativas.sol": {
		"VariableNativas": {
			"abi": [
				{
					"inputs": [
						{
							"internalType": "string",
							"name": "_lastname",
							"type": "string"
						}
					],
					"stateMutability": "nonpayable",
					"type": "constructor"
				},
				{
					"inputs": [],
					"name": "address_var",
					"outputs": [
						{
							"internalType": "address",
							"name": "",
							"type": "address"
						}
					],
					"stateMutability": "view",
					"type": "function"
				},
				{
					"inputs": [],
					"name": "getBytes",
					"outputs": [
						{
							"internalType": "bytes1",
							"name": "",
							"type": "bytes1"
						}
					],
					"stateMutability": "view",
					"type": "function"
				},
				{
					"inputs": [],
					"name": "getName",
					"outputs": [
						{
							"internalType": "string",
							"name": "",
							"type": "string"
						}
					],
					"stateMutability": "view",
					"type": "function"
				},
				{
					"inputs": [],
					"name": "int_256",
					"outputs": [
						{
							"internalType": "int256",
							"name": "",
							"type": "int256"
						}
					],
					"stateMutability": "view",
					"type": "function"
				},
				{
					"inputs": [],
					"name": "int_8",
					"outputs": [
						{
							"internalType": "int8",
							"name": "",
							"type": "int8"
						}
					],
					"stateMutability": "view",
					"type": "function"
				},
				{
					"inputs": [],
					"name": "uint_256",
					"outputs": [
						{
							"internalType": "uint256",
							"name": "",
							"type": "uint256"
						}
					],
					"stateMutability": "view",
					"type": "function"
				},
				{
					"inputs": [],
					"name": "uint_8",
					"outputs": [
						{
							"internalType": "uint256",
							"name": "",
							"type": "uint256"
						}
					],
					"stateMutability": "view",
					"type": "function"
				}
			],
			"devdoc": {
				"kind": "dev",
				"methods": {},
				"version": 1
			},
			"evm": {
				"assembly": "    /* \"VariableNativas.sol\":94:1235  contract VariableNativas {... */\n  mstore(0x40, 0x80)\n    /* \"VariableNativas.sol\":657:658  1 */\n  0x01\n    /* \"VariableNativas.sol\":635:658  uint public  uint_8 = 1 */\n  dup1\n  sstore\n    /* \"VariableNativas.sol\":691:694  234 */\n  0xea\n    /* \"VariableNativas.sol\":665:694  uint256 public uint_256 = 234 */\n  0x02\n  sstore\n    /* \"VariableNativas.sol\":799:801  -1 */\n  0xffffffffffffffffffffffffffffffffffffffffffffffffffffffffffffffff\n    /* \"VariableNativas.sol\":779:801  int8 public int_8 = -1 */\n  0x03\n  exp(0x0100, 0x00)\n  dup2\n  sload\n  dup2\n  0xff\n  mul\n  not\n  and\n  swap1\n  dup4\n  0x00\n  signextend\n  0xff\n  and\n  mul\n  or\n  swap1\n  sstore\n  pop\n    /* \"VariableNativas.sol\":832:835  456 */\n  0x01c8\n    /* \"VariableNativas.sol\":808:835  int256 public int_256 = 456 */\n  0x04\n  sstore\n    /* \"VariableNativas.sol\":957:999  0x5B38Da6a701c568545dCfcB03FcB875f56beddC4 */\n  0x5b38da6a701c568545dcfcb03fcb875f56beddc4\n    /* \"VariableNativas.sol\":928:999  address public address_var = 0x5B38Da6a701c568545dCfcB03FcB875f56beddC4 */\n  0x05\n  exp(0x0100, 0x00)\n  dup2\n  sload\n  dup2\n  0xffffffffffffffffffffffffffffffffffffffff\n  mul\n  not\n  and\n  swap1\n  dup4\n  0xffffffffffffffffffffffffffffffffffffffff\n  and\n  mul\n  or\n  swap1\n  sstore\n  pop\n    /* \"VariableNativas.sol\":1067:1071  0xb5 */\n  0xb5\n    /* \"VariableNativas.sol\":1052:1071  bytes1 a_var = 0xb5 */\n  0xf8\n  shl\n  0x05\n  exp(0x0100, 0x14)\n  dup2\n  sload\n  dup2\n  0xff\n  mul\n  not\n  and\n  swap1\n  dup4\n  0xf8\n  shr\n  mul\n  or\n  swap1\n  sstore\n  pop\n    /* \"VariableNativas.sol\":1107:1111  0x56 */\n  0x56\n    /* \"VariableNativas.sol\":1092:1111  bytes1 b_var = 0x56 */\n  0xf8\n  shl\n  0x05\n  exp(0x0100, 0x15)\n  dup2\n  sload\n  dup2\n  0xff\n  mul\n  not\n  and\n  swap1\n  dup4\n  0xf8\n  shr\n  mul\n  or\n  swap1\n  sstore\n  pop\n    /* \"VariableNativas.sol\":221:360  constructor(string memory _lastname){... */\n  callvalue\n  dup1\n  iszero\n  tag_1\n  jumpi\n  0x00\n  dup1\n  revert\ntag_1:\n  pop\n  mload(0x40)\n  sub(codesize, bytecodeSize)\n  dup1\n  bytecodeSize\n  dup4\n  codecopy\n  dup2\n  dup2\n  add\n  0x40\n  mstore\n  dup2\n  add\n  swap1\n  tag_2\n  swap2\n  swap1\n  tag_3\n  jump\t// in\ntag_2:\n    /* \"VariableNativas.sol\":311:320  _lastname */\n  dup1\n    /* \"VariableNativas.sol\":279:321  string.concat(\"Juan Diego\",\" \", _lastname) */\n  add(0x20, mload(0x40))\n  tag_6\n  swap2\n  swap1\n  tag_7\n  jump\t// in\ntag_6:\n  mload(0x40)\n  0x20\n  dup2\n  dup4\n  sub\n  sub\n  dup2\n  mstore\n  swap1\n  0x40\n  mstore\n    /* \"VariableNativas.sol\":268:276  fullName */\n  0x00\n    /* \"VariableNativas.sol\":268:321  fullName = string.concat(\"Juan Diego\",\" \", _lastname) */\n  swap1\n  dup2\n  tag_8\n  swap2\n  swap1\n  tag_9\n  jump\t// in\ntag_8:\n  pop\n    /* \"VariableNativas.sol\":221:360  constructor(string memory _lastname){... */\n  pop\n    /* \"VariableNativas.sol\":94:1235  contract VariableNativas {... */\n  jump(tag_10)\n    /* \"#utility.yul\":7:82   */\ntag_11:\n    /* \"#utility.yul\":40:46   */\n  0x00\n    /* \"#utility.yul\":73:75   */\n  0x40\n    /* \"#utility.yul\":67:76   */\n  mload\n    /* \"#utility.yul\":57:76   */\n  swap1\n  pop\n    /* \"#utility.yul\":7:82   */\n  swap1\n  jump\t// out\n    /* \"#utility.yul\":88:205   */\ntag_12:\n    /* \"#utility.yul\":197:198   */\n  0x00\n    /* \"#utility.yul\":194:195   */\n  dup1\n    /* \"#utility.yul\":187:199   */\n  revert\n    /* \"#utility.yul\":211:328   */\ntag_13:\n    /* \"#utility.yul\":320:321   */\n  0x00\n    /* \"#utility.yul\":317:318   */\n  dup1\n    /* \"#utility.yul\":310:322   */\n  revert\n    /* \"#utility.yul\":334:451   */\ntag_14:\n    /* \"#utility.yul\":443:444   */\n  0x00\n    /* \"#utility.yul\":440:441   */\n  dup1\n    /* \"#utility.yul\":433:445   */\n  revert\n    /* \"#utility.yul\":457:574   */\ntag_15:\n    /* \"#utility.yul\":566:567   */\n  0x00\n    /* \"#utility.yul\":563:564   */\n  dup1\n    /* \"#utility.yul\":556:568   */\n  revert\n    /* \"#utility.yul\":580:682   */\ntag_16:\n    /* \"#utility.yul\":621:627   */\n  0x00\n    /* \"#utility.yul\":672:674   */\n  0x1f\n    /* \"#utility.yul\":668:675   */\n  not\n    /* \"#utility.yul\":663:665   */\n  0x1f\n    /* \"#utility.yul\":656:661   */\n  dup4\n    /* \"#utility.yul\":652:666   */\n  add\n    /* \"#utility.yul\":648:676   */\n  and\n    /* \"#utility.yul\":638:676   */\n  swap1\n  pop\n    /* \"#utility.yul\":580:682   */\n  swap2\n  swap1\n  pop\n  jump\t// out\n    /* \"#utility.yul\":688:868   */\ntag_17:\n    /* \"#utility.yul\":736:813   */\n  0x4e487b7100000000000000000000000000000000000000000000000000000000\n    /* \"#utility.yul\":733:734   */\n  0x00\n    /* \"#utility.yul\":726:814   */\n  mstore\n    /* \"#utility.yul\":833:837   */\n  0x41\n    /* \"#utility.yul\":830:831   */\n  0x04\n    /* \"#utility.yul\":823:838   */\n  mstore\n    /* \"#utility.yul\":857:861   */\n  0x24\n    /* \"#utility.yul\":854:855   */\n  0x00\n    /* \"#utility.yul\":847:862   */\n  revert\n    /* \"#utility.yul\":874:1155   */\ntag_18:\n    /* \"#utility.yul\":957:984   */\n  tag_56\n    /* \"#utility.yul\":979:983   */\n  dup3\n    /* \"#utility.yul\":957:984   */\n  tag_16\n  jump\t// in\ntag_56:\n    /* \"#utility.yul\":949:955   */\n  dup2\n    /* \"#utility.yul\":945:985   */\n  add\n    /* \"#utility.yul\":1087:1093   */\n  dup2\n    /* \"#utility.yul\":1075:1085   */\n  dup2\n    /* \"#utility.yul\":1072:1094   */\n  lt\n    /* \"#utility.yul\":1051:1069   */\n  0xffffffffffffffff\n    /* \"#utility.yul\":1039:1049   */\n  dup3\n    /* \"#utility.yul\":1036:1070   */\n  gt\n    /* \"#utility.yul\":1033:1095   */\n  or\n    /* \"#utility.yul\":1030:1118   */\n  iszero\n  tag_57\n  jumpi\n    /* \"#utility.yul\":1098:1116   */\n  tag_58\n  tag_17\n  jump\t// in\ntag_58:\n    /* \"#utility.yul\":1030:1118   */\ntag_57:\n    /* \"#utility.yul\":1138:1148   */\n  dup1\n    /* \"#utility.yul\":1134:1136   */\n  0x40\n    /* \"#utility.yul\":1127:1149   */\n  mstore\n    /* \"#utility.yul\":917:1155   */\n  pop\n    /* \"#utility.yul\":874:1155   */\n  pop\n  pop\n  jump\t// out\n    /* \"#utility.yul\":1161:1290   */\ntag_19:\n    /* \"#utility.yul\":1195:1201   */\n  0x00\n    /* \"#utility.yul\":1222:1242   */\n  tag_60\n  tag_11\n  jump\t// in\ntag_60:\n    /* \"#utility.yul\":1212:1242   */\n  swap1\n  pop\n    /* \"#utility.yul\":1251:1284   */\n  tag_61\n    /* \"#utility.yul\":1279:1283   */\n  dup3\n    /* \"#utility.yul\":1271:1277   */\n  dup3\n    /* \"#utility.yul\":1251:1284   */\n  tag_18\n  jump\t// in\ntag_61:\n    /* \"#utility.yul\":1161:1290   */\n  swap2\n  swap1\n  pop\n  jump\t// out\n    /* \"#utility.yul\":1296:1604   */\ntag_20:\n    /* \"#utility.yul\":1358:1362   */\n  0x00\n    /* \"#utility.yul\":1448:1466   */\n  0xffffffffffffffff\n    /* \"#utility.yul\":1440:1446   */\n  dup3\n    /* \"#utility.yul\":1437:1467   */\n  gt\n    /* \"#utility.yul\":1434:1490   */\n  iszero\n  tag_63\n  jumpi\n    /* \"#utility.yul\":1470:1488   */\n  tag_64\n  tag_17\n  jump\t// in\ntag_64:\n    /* \"#utility.yul\":1434:1490   */\ntag_63:\n    /* \"#utility.yul\":1508:1537   */\n  tag_65\n    /* \"#utility.yul\":1530:1536   */\n  dup3\n    /* \"#utility.yul\":1508:1537   */\n  tag_16\n  jump\t// in\ntag_65:\n    /* \"#utility.yul\":1500:1537   */\n  swap1\n  pop\n    /* \"#utility.yul\":1592:1596   */\n  0x20\n    /* \"#utility.yul\":1586:1590   */\n  dup2\n    /* \"#utility.yul\":1582:1597   */\n  add\n    /* \"#utility.yul\":1574:1597   */\n  swap1\n  pop\n    /* \"#utility.yul\":1296:1604   */\n  swap2\n  swap1\n  pop\n  jump\t// out\n    /* \"#utility.yul\":1610:1856   */\ntag_21:\n    /* \"#utility.yul\":1691:1692   */\n  0x00\n    /* \"#utility.yul\":1701:1814   */\ntag_67:\n    /* \"#utility.yul\":1715:1721   */\n  dup4\n    /* \"#utility.yul\":1712:1713   */\n  dup2\n    /* \"#utility.yul\":1709:1722   */\n  lt\n    /* \"#utility.yul\":1701:1814   */\n  iszero\n  tag_69\n  jumpi\n    /* \"#utility.yul\":1800:1801   */\n  dup1\n    /* \"#utility.yul\":1795:1798   */\n  dup3\n    /* \"#utility.yul\":1791:1802   */\n  add\n    /* \"#utility.yul\":1785:1803   */\n  mload\n    /* \"#utility.yul\":1781:1782   */\n  dup2\n    /* \"#utility.yul\":1776:1779   */\n  dup5\n    /* \"#utility.yul\":1772:1783   */\n  add\n    /* \"#utility.yul\":1765:1804   */\n  mstore\n    /* \"#utility.yul\":1737:1739   */\n  0x20\n    /* \"#utility.yul\":1734:1735   */\n  dup2\n    /* \"#utility.yul\":1730:1740   */\n  add\n    /* \"#utility.yul\":1725:1740   */\n  swap1\n  pop\n    /* \"#utility.yul\":1701:1814   */\n  jump(tag_67)\ntag_69:\n    /* \"#utility.yul\":1848:1849   */\n  0x00\n    /* \"#utility.yul\":1839:1845   */\n  dup5\n    /* \"#utility.yul\":1834:1837   */\n  dup5\n    /* \"#utility.yul\":1830:1846   */\n  add\n    /* \"#utility.yul\":1823:1850   */\n  mstore\n    /* \"#utility.yul\":1672:1856   */\n  pop\n    /* \"#utility.yul\":1610:1856   */\n  pop\n  pop\n  pop\n  jump\t// out\n    /* \"#utility.yul\":1862:2296   */\ntag_22:\n    /* \"#utility.yul\":1951:1956   */\n  0x00\n    /* \"#utility.yul\":1976:2042   */\n  tag_71\n    /* \"#utility.yul\":1992:2041   */\n  tag_72\n    /* \"#utility.yul\":2034:2040   */\n  dup5\n    /* \"#utility.yul\":1992:2041   */\n  tag_20\n  jump\t// in\ntag_72:\n    /* \"#utility.yul\":1976:2042   */\n  tag_19\n  jump\t// in\ntag_71:\n    /* \"#utility.yul\":1967:2042   */\n  swap1\n  pop\n    /* \"#utility.yul\":2065:2071   */\n  dup3\n    /* \"#utility.yul\":2058:2063   */\n  dup2\n    /* \"#utility.yul\":2051:2072   */\n  mstore\n    /* \"#utility.yul\":2103:2107   */\n  0x20\n    /* \"#utility.yul\":2096:2101   */\n  dup2\n    /* \"#utility.yul\":2092:2108   */\n  add\n    /* \"#utility.yul\":2141:2144   */\n  dup5\n    /* \"#utility.yul\":2132:2138   */\n  dup5\n    /* \"#utility.yul\":2127:2130   */\n  dup5\n    /* \"#utility.yul\":2123:2139   */\n  add\n    /* \"#utility.yul\":2120:2145   */\n  gt\n    /* \"#utility.yul\":2117:2229   */\n  iszero\n  tag_73\n  jumpi\n    /* \"#utility.yul\":2148:2227   */\n  tag_74\n  tag_15\n  jump\t// in\ntag_74:\n    /* \"#utility.yul\":2117:2229   */\ntag_73:\n    /* \"#utility.yul\":2238:2290   */\n  tag_75\n    /* \"#utility.yul\":2283:2289   */\n  dup5\n    /* \"#utility.yul\":2278:2281   */\n  dup3\n    /* \"#utility.yul\":2273:2276   */\n  dup6\n    /* \"#utility.yul\":2238:2290   */\n  tag_21\n  jump\t// in\ntag_75:\n    /* \"#utility.yul\":1957:2296   */\n  pop\n    /* \"#utility.yul\":1862:2296   */\n  swap4\n  swap3\n  pop\n  pop\n  pop\n  jump\t// out\n    /* \"#utility.yul\":2316:2671   */\ntag_23:\n    /* \"#utility.yul\":2383:2388   */\n  0x00\n    /* \"#utility.yul\":2432:2435   */\n  dup3\n    /* \"#utility.yul\":2425:2429   */\n  0x1f\n    /* \"#utility.yul\":2417:2423   */\n  dup4\n    /* \"#utility.yul\":2413:2430   */\n  add\n    /* \"#utility.yul\":2409:2436   */\n  slt\n    /* \"#utility.yul\":2399:2521   */\n  tag_77\n  jumpi\n    /* \"#utility.yul\":2440:2519   */\n  tag_78\n  tag_14\n  jump\t// in\ntag_78:\n    /* \"#utility.yul\":2399:2521   */\ntag_77:\n    /* \"#utility.yul\":2550:2556   */\n  dup2\n    /* \"#utility.yul\":2544:2557   */\n  mload\n    /* \"#utility.yul\":2575:2665   */\n  tag_79\n    /* \"#utility.yul\":2661:2664   */\n  dup5\n    /* \"#utility.yul\":2653:2659   */\n  dup3\n    /* \"#utility.yul\":2646:2650   */\n  0x20\n    /* \"#utility.yul\":2638:2644   */\n  dup7\n    /* \"#utility.yul\":2634:2651   */\n  add\n    /* \"#utility.yul\":2575:2665   */\n  tag_22\n  jump\t// in\ntag_79:\n    /* \"#utility.yul\":2566:2665   */\n  swap2\n  pop\n    /* \"#utility.yul\":2389:2671   */\n  pop\n    /* \"#utility.yul\":2316:2671   */\n  swap3\n  swap2\n  pop\n  pop\n  jump\t// out\n    /* \"#utility.yul\":2677:3201   */\ntag_3:\n    /* \"#utility.yul\":2757:2763   */\n  0x00\n    /* \"#utility.yul\":2806:2808   */\n  0x20\n    /* \"#utility.yul\":2794:2803   */\n  dup3\n    /* \"#utility.yul\":2785:2792   */\n  dup5\n    /* \"#utility.yul\":2781:2804   */\n  sub\n    /* \"#utility.yul\":2777:2809   */\n  slt\n    /* \"#utility.yul\":2774:2893   */\n  iszero\n  tag_81\n  jumpi\n    /* \"#utility.yul\":2812:2891   */\n  tag_82\n  tag_12\n  jump\t// in\ntag_82:\n    /* \"#utility.yul\":2774:2893   */\ntag_81:\n    /* \"#utility.yul\":2953:2954   */\n  0x00\n    /* \"#utility.yul\":2942:2951   */\n  dup3\n    /* \"#utility.yul\":2938:2955   */\n  add\n    /* \"#utility.yul\":2932:2956   */\n  mload\n    /* \"#utility.yul\":2983:3001   */\n  0xffffffffffffffff\n    /* \"#utility.yul\":2975:2981   */\n  dup2\n    /* \"#utility.yul\":2972:3002   */\n  gt\n    /* \"#utility.yul\":2969:3086   */\n  iszero\n  tag_83\n  jumpi\n    /* \"#utility.yul\":3005:3084   */\n  tag_84\n  tag_13\n  jump\t// in\ntag_84:\n    /* \"#utility.yul\":2969:3086   */\ntag_83:\n    /* \"#utility.yul\":3110:3184   */\n  tag_85\n    /* \"#utility.yul\":3176:3183   */\n  dup5\n    /* \"#utility.yul\":3167:3173   */\n  dup3\n    /* \"#utility.yul\":3156:3165   */\n  dup6\n    /* \"#utility.yul\":3152:3174   */\n  add\n    /* \"#utility.yul\":3110:3184   */\n  tag_23\n  jump\t// in\ntag_85:\n    /* \"#utility.yul\":3100:3184   */\n  swap2\n  pop\n    /* \"#utility.yul\":2903:3194   */\n  pop\n    /* \"#utility.yul\":2677:3201   */\n  swap3\n  swap2\n  pop\n  pop\n  jump\t// out\n    /* \"#utility.yul\":3207:3395   */\ntag_24:\n    /* \"#utility.yul\":3376:3388   */\n  0x4a75616e20446965676f00000000000000000000000000000000000000000000\n    /* \"#utility.yul\":3371:3374   */\n  dup2\n    /* \"#utility.yul\":3364:3389   */\n  mstore\n    /* \"#utility.yul\":3207:3395   */\n  pop\n  jump\t// out\n    /* \"#utility.yul\":3401:3579   */\ntag_25:\n    /* \"#utility.yul\":3569:3572   */\n  0x2000000000000000000000000000000000000000000000000000000000000000\n    /* \"#utility.yul\":3564:3567   */\n  dup2\n    /* \"#utility.yul\":3557:3573   */\n  mstore\n    /* \"#utility.yul\":3401:3579   */\n  pop\n  jump\t// out\n    /* \"#utility.yul\":3585:3684   */\ntag_26:\n    /* \"#utility.yul\":3637:3643   */\n  0x00\n    /* \"#utility.yul\":3671:3676   */\n  dup2\n    /* \"#utility.yul\":3665:3677   */\n  mload\n    /* \"#utility.yul\":3655:3677   */\n  swap1\n  pop\n    /* \"#utility.yul\":3585:3684   */\n  swap2\n  swap1\n  pop\n  jump\t// out\n    /* \"#utility.yul\":3690:3838   */\ntag_27:\n    /* \"#utility.yul\":3792:3803   */\n  0x00\n    /* \"#utility.yul\":3829:3832   */\n  dup2\n    /* \"#utility.yul\":3814:3832   */\n  swap1\n  pop\n    /* \"#utility.yul\":3690:3838   */\n  swap3\n  swap2\n  pop\n  pop\n  jump\t// out\n    /* \"#utility.yul\":3844:4234   */\ntag_28:\n    /* \"#utility.yul\":3950:3953   */\n  0x00\n    /* \"#utility.yul\":3978:4017   */\n  tag_91\n    /* \"#utility.yul\":4011:4016   */\n  dup3\n    /* \"#utility.yul\":3978:4017   */\n  tag_26\n  jump\t// in\ntag_91:\n    /* \"#utility.yul\":4033:4122   */\n  tag_92\n    /* \"#utility.yul\":4115:4121   */\n  dup2\n    /* \"#utility.yul\":4110:4113   */\n  dup6\n    /* \"#utility.yul\":4033:4122   */\n  tag_27\n  jump\t// in\ntag_92:\n    /* \"#utility.yul\":4026:4122   */\n  swap4\n  pop\n    /* \"#utility.yul\":4131:4196   */\n  tag_93\n    /* \"#utility.yul\":4189:4195   */\n  dup2\n    /* \"#utility.yul\":4184:4187   */\n  dup6\n    /* \"#utility.yul\":4177:4181   */\n  0x20\n    /* \"#utility.yul\":4170:4175   */\n  dup7\n    /* \"#utility.yul\":4166:4182   */\n  add\n    /* \"#utility.yul\":4131:4196   */\n  tag_21\n  jump\t// in\ntag_93:\n    /* \"#utility.yul\":4221:4227   */\n  dup1\n    /* \"#utility.yul\":4216:4219   */\n  dup5\n    /* \"#utility.yul\":4212:4228   */\n  add\n    /* \"#utility.yul\":4205:4228   */\n  swap2\n  pop\n    /* \"#utility.yul\":3954:4234   */\n  pop\n    /* \"#utility.yul\":3844:4234   */\n  swap3\n  swap2\n  pop\n  pop\n  jump\t// out\n    /* \"#utility.yul\":4240:5046   */\ntag_7:\n    /* \"#utility.yul\":4553:4556   */\n  0x00\n    /* \"#utility.yul\":4568:4706   */\n  tag_95\n    /* \"#utility.yul\":4702:4705   */\n  dup3\n    /* \"#utility.yul\":4568:4706   */\n  tag_24\n  jump\t// in\ntag_95:\n    /* \"#utility.yul\":4731:4733   */\n  0x0a\n    /* \"#utility.yul\":4726:4729   */\n  dup3\n    /* \"#utility.yul\":4722:4734   */\n  add\n    /* \"#utility.yul\":4715:4734   */\n  swap2\n  pop\n    /* \"#utility.yul\":4744:4881   */\n  tag_96\n    /* \"#utility.yul\":4877:4880   */\n  dup3\n    /* \"#utility.yul\":4744:4881   */\n  tag_25\n  jump\t// in\ntag_96:\n    /* \"#utility.yul\":4906:4907   */\n  0x01\n    /* \"#utility.yul\":4901:4904   */\n  dup3\n    /* \"#utility.yul\":4897:4908   */\n  add\n    /* \"#utility.yul\":4890:4908   */\n  swap2\n  pop\n    /* \"#utility.yul\":4925:5020   */\n  tag_97\n    /* \"#utility.yul\":5016:5019   */\n  dup3\n    /* \"#utility.yul\":5007:5013   */\n  dup5\n    /* \"#utility.yul\":4925:5020   */\n  tag_28\n  jump\t// in\ntag_97:\n    /* \"#utility.yul\":4918:5020   */\n  swap2\n  pop\n    /* \"#utility.yul\":5037:5040   */\n  dup2\n    /* \"#utility.yul\":5030:5040   */\n  swap1\n  pop\n    /* \"#utility.yul\":4240:5046   */\n  swap3\n  swap2\n  pop\n  pop\n  jump\t// out\n    /* \"#utility.yul\":5052:5232   */\ntag_29:\n    /* \"#utility.yul\":5100:5177   */\n  0x4e487b7100000000000000000000000000000000000000000000000000000000\n    /* \"#utility.yul\":5097:5098   */\n  0x00\n    /* \"#utility.yul\":5090:5178   */\n  mstore\n    /* \"#utility.yul\":5197:5201   */\n  0x22\n    /* \"#utility.yul\":5194:5195   */\n  0x04\n    /* \"#utility.yul\":5187:5202   */\n  mstore\n    /* \"#utility.yul\":5221:5225   */\n  0x24\n    /* \"#utility.yul\":5218:5219   */\n  0x00\n    /* \"#utility.yul\":5211:5226   */\n  revert\n    /* \"#utility.yul\":5238:5558   */\ntag_30:\n    /* \"#utility.yul\":5282:5288   */\n  0x00\n    /* \"#utility.yul\":5319:5320   */\n  0x02\n    /* \"#utility.yul\":5313:5317   */\n  dup3\n    /* \"#utility.yul\":5309:5321   */\n  div\n    /* \"#utility.yul\":5299:5321   */\n  swap1\n  pop\n    /* \"#utility.yul\":5366:5367   */\n  0x01\n    /* \"#utility.yul\":5360:5364   */\n  dup3\n    /* \"#utility.yul\":5356:5368   */\n  and\n    /* \"#utility.yul\":5387:5405   */\n  dup1\n    /* \"#utility.yul\":5377:5458   */\n  tag_100\n  jumpi\n    /* \"#utility.yul\":5443:5447   */\n  0x7f\n    /* \"#utility.yul\":5435:5441   */\n  dup3\n    /* \"#utility.yul\":5431:5448   */\n  and\n    /* \"#utility.yul\":5421:5448   */\n  swap2\n  pop\n    /* \"#utility.yul\":5377:5458   */\ntag_100:\n    /* \"#utility.yul\":5505:5507   */\n  0x20\n    /* \"#utility.yul\":5497:5503   */\n  dup3\n    /* \"#utility.yul\":5494:5508   */\n  lt\n    /* \"#utility.yul\":5474:5492   */\n  dup2\n    /* \"#utility.yul\":5471:5509   */\n  sub\n    /* \"#utility.yul\":5468:5552   */\n  tag_101\n  jumpi\n    /* \"#utility.yul\":5524:5542   */\n  tag_102\n  tag_29\n  jump\t// in\ntag_102:\n    /* \"#utility.yul\":5468:5552   */\ntag_101:\n    /* \"#utility.yul\":5289:5558   */\n  pop\n    /* \"#utility.yul\":5238:5558   */\n  swap2\n  swap1\n  pop\n  jump\t// out\n    /* \"#utility.yul\":5564:5705   */\ntag_31:\n    /* \"#utility.yul\":5613:5617   */\n  0x00\n    /* \"#utility.yul\":5636:5639   */\n  dup2\n    /* \"#utility.yul\":5628:5639   */\n  swap1\n  pop\n    /* \"#utility.yul\":5659:5662   */\n  dup2\n    /* \"#utility.yul\":5656:5657   */\n  0x00\n    /* \"#utility.yul\":5649:5663   */\n  mstore\n    /* \"#utility.yul\":5693:5697   */\n  0x20\n    /* \"#utility.yul\":5690:5691   */\n  0x00\n    /* \"#utility.yul\":5680:5698   */\n  keccak256\n    /* \"#utility.yul\":5672:5698   */\n  swap1\n  pop\n    /* \"#utility.yul\":5564:5705   */\n  swap2\n  swap1\n  pop\n  jump\t// out\n    /* \"#utility.yul\":5711:5804   */\ntag_32:\n    /* \"#utility.yul\":5748:5754   */\n  0x00\n    /* \"#utility.yul\":5795:5797   */\n  0x20\n    /* \"#utility.yul\":5790:5792   */\n  0x1f\n    /* \"#utility.yul\":5783:5788   */\n  dup4\n    /* \"#utility.yul\":5779:5793   */\n  add\n    /* \"#utility.yul\":5775:5798   */\n  div\n    /* \"#utility.yul\":5765:5798   */\n  swap1\n  pop\n    /* \"#utility.yul\":5711:5804   */\n  swap2\n  swap1\n  pop\n  jump\t// out\n    /* \"#utility.yul\":5810:5917   */\ntag_33:\n    /* \"#utility.yul\":5854:5862   */\n  0x00\n    /* \"#utility.yul\":5904:5909   */\n  dup3\n    /* \"#utility.yul\":5898:5902   */\n  dup3\n    /* \"#utility.yul\":5894:5910   */\n  shl\n    /* \"#utility.yul\":5873:5910   */\n  swap1\n  pop\n    /* \"#utility.yul\":5810:5917   */\n  swap3\n  swap2\n  pop\n  pop\n  jump\t// out\n    /* \"#utility.yul\":5923:6316   */\ntag_34:\n    /* \"#utility.yul\":5992:5998   */\n  0x00\n    /* \"#utility.yul\":6042:6043   */\n  0x08\n    /* \"#utility.yul\":6030:6040   */\n  dup4\n    /* \"#utility.yul\":6026:6044   */\n  mul\n    /* \"#utility.yul\":6065:6162   */\n  tag_107\n    /* \"#utility.yul\":6095:6161   */\n  0xffffffffffffffffffffffffffffffffffffffffffffffffffffffffffffffff\n    /* \"#utility.yul\":6084:6093   */\n  dup3\n    /* \"#utility.yul\":6065:6162   */\n  tag_33\n  jump\t// in\ntag_107:\n    /* \"#utility.yul\":6183:6222   */\n  tag_108\n    /* \"#utility.yul\":6213:6221   */\n  dup7\n    /* \"#utility.yul\":6202:6211   */\n  dup4\n    /* \"#utility.yul\":6183:6222   */\n  tag_33\n  jump\t// in\ntag_108:\n    /* \"#utility.yul\":6171:6222   */\n  swap6\n  pop\n    /* \"#utility.yul\":6255:6259   */\n  dup1\n    /* \"#utility.yul\":6251:6260   */\n  not\n    /* \"#utility.yul\":6244:6249   */\n  dup5\n    /* \"#utility.yul\":6240:6261   */\n  and\n    /* \"#utility.yul\":6231:6261   */\n  swap4\n  pop\n    /* \"#utility.yul\":6304:6308   */\n  dup1\n    /* \"#utility.yul\":6294:6302   */\n  dup7\n    /* \"#utility.yul\":6290:6309   */\n  and\n    /* \"#utility.yul\":6283:6288   */\n  dup5\n    /* \"#utility.yul\":6280:6310   */\n  or\n    /* \"#utility.yul\":6270:6310   */\n  swap3\n  pop\n    /* \"#utility.yul\":5999:6316   */\n  pop\n  pop\n    /* \"#utility.yul\":5923:6316   */\n  swap4\n  swap3\n  pop\n  pop\n  pop\n  jump\t// out\n    /* \"#utility.yul\":6322:6399   */\ntag_35:\n    /* \"#utility.yul\":6359:6366   */\n  0x00\n    /* \"#utility.yul\":6388:6393   */\n  dup2\n    /* \"#utility.yul\":6377:6393   */\n  swap1\n  pop\n    /* \"#utility.yul\":6322:6399   */\n  swap2\n  swap1\n  pop\n  jump\t// out\n    /* \"#utility.yul\":6405:6465   */\ntag_36:\n    /* \"#utility.yul\":6433:6436   */\n  0x00\n    /* \"#utility.yul\":6454:6459   */\n  dup2\n    /* \"#utility.yul\":6447:6459   */\n  swap1\n  pop\n    /* \"#utility.yul\":6405:6465   */\n  swap2\n  swap1\n  pop\n  jump\t// out\n    /* \"#utility.yul\":6471:6613   */\ntag_37:\n    /* \"#utility.yul\":6521:6530   */\n  0x00\n    /* \"#utility.yul\":6554:6607   */\n  tag_112\n    /* \"#utility.yul\":6572:6606   */\n  tag_113\n    /* \"#utility.yul\":6581:6605   */\n  tag_114\n    /* \"#utility.yul\":6599:6604   */\n  dup5\n    /* \"#utility.yul\":6581:6605   */\n  tag_35\n  jump\t// in\ntag_114:\n    /* \"#utility.yul\":6572:6606   */\n  tag_36\n  jump\t// in\ntag_113:\n    /* \"#utility.yul\":6554:6607   */\n  tag_35\n  jump\t// in\ntag_112:\n    /* \"#utility.yul\":6541:6607   */\n  swap1\n  pop\n    /* \"#utility.yul\":6471:6613   */\n  swap2\n  swap1\n  pop\n  jump\t// out\n    /* \"#utility.yul\":6619:6694   */\ntag_38:\n    /* \"#utility.yul\":6662:6665   */\n  0x00\n    /* \"#utility.yul\":6683:6688   */\n  dup2\n    /* \"#utility.yul\":6676:6688   */\n  swap1\n  pop\n    /* \"#utility.yul\":6619:6694   */\n  swap2\n  swap1\n  pop\n  jump\t// out\n    /* \"#utility.yul\":6700:6969   */\ntag_39:\n    /* \"#utility.yul\":6810:6849   */\n  tag_117\n    /* \"#utility.yul\":6841:6848   */\n  dup4\n    /* \"#utility.yul\":6810:6849   */\n  tag_37\n  jump\t// in\ntag_117:\n    /* \"#utility.yul\":6871:6962   */\n  tag_118\n    /* \"#utility.yul\":6920:6961   */\n  tag_119\n    /* \"#utility.yul\":6944:6960   */\n  dup3\n    /* \"#utility.yul\":6920:6961   */\n  tag_38\n  jump\t// in\ntag_119:\n    /* \"#utility.yul\":6912:6918   */\n  dup5\n    /* \"#utility.yul\":6905:6909   */\n  dup5\n    /* \"#utility.yul\":6899:6910   */\n  sload\n    /* \"#utility.yul\":6871:6962   */\n  tag_34\n  jump\t// in\ntag_118:\n    /* \"#utility.yul\":6865:6869   */\n  dup3\n    /* \"#utility.yul\":6858:6963   */\n  sstore\n    /* \"#utility.yul\":6776:6969   */\n  pop\n    /* \"#utility.yul\":6700:6969   */\n  pop\n  pop\n  pop\n  jump\t// out\n    /* \"#utility.yul\":6975:7048   */\ntag_40:\n    /* \"#utility.yul\":7020:7023   */\n  0x00\n    /* \"#utility.yul\":6975:7048   */\n  swap1\n  jump\t// out\n    /* \"#utility.yul\":7054:7243   */\ntag_41:\n    /* \"#utility.yul\":7131:7163   */\n  tag_122\n  tag_40\n  jump\t// in\ntag_122:\n    /* \"#utility.yul\":7172:7237   */\n  tag_123\n    /* \"#utility.yul\":7230:7236   */\n  dup2\n    /* \"#utility.yul\":7222:7228   */\n  dup5\n    /* \"#utility.yul\":7216:7220   */\n  dup5\n    /* \"#utility.yul\":7172:7237   */\n  tag_39\n  jump\t// in\ntag_123:\n    /* \"#utility.yul\":7107:7243   */\n  pop\n    /* \"#utility.yul\":7054:7243   */\n  pop\n  pop\n  jump\t// out\n    /* \"#utility.yul\":7249:7435   */\ntag_42:\n    /* \"#utility.yul\":7309:7429   */\ntag_125:\n    /* \"#utility.yul\":7326:7329   */\n  dup2\n    /* \"#utility.yul\":7319:7324   */\n  dup2\n    /* \"#utility.yul\":7316:7330   */\n  lt\n    /* \"#utility.yul\":7309:7429   */\n  iszero\n  tag_127\n  jumpi\n    /* \"#utility.yul\":7380:7419   */\n  tag_128\n    /* \"#utility.yul\":7417:7418   */\n  0x00\n    /* \"#utility.yul\":7410:7415   */\n  dup3\n    /* \"#utility.yul\":7380:7419   */\n  tag_41\n  jump\t// in\ntag_128:\n    /* \"#utility.yul\":7353:7354   */\n  0x01\n    /* \"#utility.yul\":7346:7351   */\n  dup2\n    /* \"#utility.yul\":7342:7355   */\n  add\n    /* \"#utility.yul\":7333:7355   */\n  swap1\n  pop\n    /* \"#utility.yul\":7309:7429   */\n  jump(tag_125)\ntag_127:\n    /* \"#utility.yul\":7249:7435   */\n  pop\n  pop\n  jump\t// out\n    /* \"#utility.yul\":7441:7984   */\ntag_43:\n    /* \"#utility.yul\":7542:7544   */\n  0x1f\n    /* \"#utility.yul\":7537:7540   */\n  dup3\n    /* \"#utility.yul\":7534:7545   */\n  gt\n    /* \"#utility.yul\":7531:7977   */\n  iszero\n  tag_130\n  jumpi\n    /* \"#utility.yul\":7576:7614   */\n  tag_131\n    /* \"#utility.yul\":7608:7613   */\n  dup2\n    /* \"#utility.yul\":7576:7614   */\n  tag_31\n  jump\t// in\ntag_131:\n    /* \"#utility.yul\":7660:7689   */\n  tag_132\n    /* \"#utility.yul\":7678:7688   */\n  dup5\n    /* \"#utility.yul\":7660:7689   */\n  tag_32\n  jump\t// in\ntag_132:\n    /* \"#utility.yul\":7650:7658   */\n  dup2\n    /* \"#utility.yul\":7646:7690   */\n  add\n    /* \"#utility.yul\":7843:7845   */\n  0x20\n    /* \"#utility.yul\":7831:7841   */\n  dup6\n    /* \"#utility.yul\":7828:7846   */\n  lt\n    /* \"#utility.yul\":7825:7874   */\n  iszero\n  tag_133\n  jumpi\n    /* \"#utility.yul\":7864:7872   */\n  dup2\n    /* \"#utility.yul\":7849:7872   */\n  swap1\n  pop\n    /* \"#utility.yul\":7825:7874   */\ntag_133:\n    /* \"#utility.yul\":7887:7967   */\n  tag_134\n    /* \"#utility.yul\":7943:7965   */\n  tag_135\n    /* \"#utility.yul\":7961:7964   */\n  dup6\n    /* \"#utility.yul\":7943:7965   */\n  tag_32\n  jump\t// in\ntag_135:\n    /* \"#utility.yul\":7933:7941   */\n  dup4\n    /* \"#utility.yul\":7929:7966   */\n  add\n    /* \"#utility.yul\":7916:7927   */\n  dup3\n    /* \"#utility.yul\":7887:7967   */\n  tag_42\n  jump\t// in\ntag_134:\n    /* \"#utility.yul\":7546:7977   */\n  pop\n  pop\n    /* \"#utility.yul\":7531:7977   */\ntag_130:\n    /* \"#utility.yul\":7441:7984   */\n  pop\n  pop\n  pop\n  jump\t// out\n    /* \"#utility.yul\":7990:8107   */\ntag_44:\n    /* \"#utility.yul\":8044:8052   */\n  0x00\n    /* \"#utility.yul\":8094:8099   */\n  dup3\n    /* \"#utility.yul\":8088:8092   */\n  dup3\n    /* \"#utility.yul\":8084:8100   */\n  shr\n    /* \"#utility.yul\":8063:8100   */\n  swap1\n  pop\n    /* \"#utility.yul\":7990:8107   */\n  swap3\n  swap2\n  pop\n  pop\n  jump\t// out\n    /* \"#utility.yul\":8113:8282   */\ntag_45:\n    /* \"#utility.yul\":8157:8163   */\n  0x00\n    /* \"#utility.yul\":8190:8241   */\n  tag_138\n    /* \"#utility.yul\":8238:8239   */\n  0x00\n    /* \"#utility.yul\":8234:8240   */\n  not\n    /* \"#utility.yul\":8226:8231   */\n  dup5\n    /* \"#utility.yul\":8223:8224   */\n  0x08\n    /* \"#utility.yul\":8219:8232   */\n  mul\n    /* \"#utility.yul\":8190:8241   */\n  tag_44\n  jump\t// in\ntag_138:\n    /* \"#utility.yul\":8186:8242   */\n  not\n    /* \"#utility.yul\":8271:8275   */\n  dup1\n    /* \"#utility.yul\":8265:8269   */\n  dup4\n    /* \"#utility.yul\":8261:8276   */\n  and\n    /* \"#utility.yul\":8251:8276   */\n  swap2\n  pop\n    /* \"#utility.yul\":8164:8282   */\n  pop\n    /* \"#utility.yul\":8113:8282   */\n  swap3\n  swap2\n  pop\n  pop\n  jump\t// out\n    /* \"#utility.yul\":8287:8582   */\ntag_46:\n    /* \"#utility.yul\":8363:8367   */\n  0x00\n    /* \"#utility.yul\":8509:8538   */\n  tag_140\n    /* \"#utility.yul\":8534:8537   */\n  dup4\n    /* \"#utility.yul\":8528:8532   */\n  dup4\n    /* \"#utility.yul\":8509:8538   */\n  tag_45\n  jump\t// in\ntag_140:\n    /* \"#utility.yul\":8501:8538   */\n  swap2\n  pop\n    /* \"#utility.yul\":8571:8574   */\n  dup3\n    /* \"#utility.yul\":8568:8569   */\n  0x02\n    /* \"#utility.yul\":8564:8575   */\n  mul\n    /* \"#utility.yul\":8558:8562   */\n  dup3\n    /* \"#utility.yul\":8555:8576   */\n  or\n    /* \"#utility.yul\":8547:8576   */\n  swap1\n  pop\n    /* \"#utility.yul\":8287:8582   */\n  swap3\n  swap2\n  pop\n  pop\n  jump\t// out\n    /* \"#utility.yul\":8587:9982   */\ntag_9:\n    /* \"#utility.yul\":8704:8741   */\n  tag_142\n    /* \"#utility.yul\":8737:8740   */\n  dup3\n    /* \"#utility.yul\":8704:8741   */\n  tag_26\n  jump\t// in\ntag_142:\n    /* \"#utility.yul\":8806:8824   */\n  0xffffffffffffffff\n    /* \"#utility.yul\":8798:8804   */\n  dup2\n    /* \"#utility.yul\":8795:8825   */\n  gt\n    /* \"#utility.yul\":8792:8848   */\n  iszero\n  tag_143\n  jumpi\n    /* \"#utility.yul\":8828:8846   */\n  tag_144\n  tag_17\n  jump\t// in\ntag_144:\n    /* \"#utility.yul\":8792:8848   */\ntag_143:\n    /* \"#utility.yul\":8872:8910   */\n  tag_145\n    /* \"#utility.yul\":8904:8908   */\n  dup3\n    /* \"#utility.yul\":8898:8909   */\n  sload\n    /* \"#utility.yul\":8872:8910   */\n  tag_30\n  jump\t// in\ntag_145:\n    /* \"#utility.yul\":8957:9024   */\n  tag_146\n    /* \"#utility.yul\":9017:9023   */\n  dup3\n    /* \"#utility.yul\":9009:9015   */\n  dup3\n    /* \"#utility.yul\":9003:9007   */\n  dup6\n    /* \"#utility.yul\":8957:9024   */\n  tag_43\n  jump\t// in\ntag_146:\n    /* \"#utility.yul\":9051:9052   */\n  0x00\n    /* \"#utility.yul\":9075:9079   */\n  0x20\n    /* \"#utility.yul\":9062:9079   */\n  swap1\n  pop\n    /* \"#utility.yul\":9107:9109   */\n  0x1f\n    /* \"#utility.yul\":9099:9105   */\n  dup4\n    /* \"#utility.yul\":9096:9110   */\n  gt\n    /* \"#utility.yul\":9124:9125   */\n  0x01\n    /* \"#utility.yul\":9119:9737   */\n  dup2\n  eq\n  tag_148\n  jumpi\n    /* \"#utility.yul\":9781:9782   */\n  0x00\n    /* \"#utility.yul\":9798:9804   */\n  dup5\n    /* \"#utility.yul\":9795:9872   */\n  iszero\n  tag_149\n  jumpi\n    /* \"#utility.yul\":9847:9856   */\n  dup3\n    /* \"#utility.yul\":9842:9845   */\n  dup8\n    /* \"#utility.yul\":9838:9857   */\n  add\n    /* \"#utility.yul\":9832:9858   */\n  mload\n    /* \"#utility.yul\":9823:9858   */\n  swap1\n  pop\n    /* \"#utility.yul\":9795:9872   */\ntag_149:\n    /* \"#utility.yul\":9898:9965   */\n  tag_150\n    /* \"#utility.yul\":9958:9964   */\n  dup6\n    /* \"#utility.yul\":9951:9956   */\n  dup3\n    /* \"#utility.yul\":9898:9965   */\n  tag_46\n  jump\t// in\ntag_150:\n    /* \"#utility.yul\":9892:9896   */\n  dup7\n    /* \"#utility.yul\":9885:9966   */\n  sstore\n    /* \"#utility.yul\":9754:9976   */\n  pop\n    /* \"#utility.yul\":9089:9976   */\n  jump(tag_147)\n    /* \"#utility.yul\":9119:9737   */\ntag_148:\n    /* \"#utility.yul\":9171:9175   */\n  0x1f\n    /* \"#utility.yul\":9167:9176   */\n  not\n    /* \"#utility.yul\":9159:9165   */\n  dup5\n    /* \"#utility.yul\":9155:9177   */\n  and\n    /* \"#utility.yul\":9205:9242   */\n  tag_151\n    /* \"#utility.yul\":9237:9241   */\n  dup7\n    /* \"#utility.yul\":9205:9242   */\n  tag_31\n  jump\t// in\ntag_151:\n    /* \"#utility.yul\":9264:9265   */\n  0x00\n    /* \"#utility.yul\":9278:9486   */\ntag_152:\n    /* \"#utility.yul\":9292:9299   */\n  dup3\n    /* \"#utility.yul\":9289:9290   */\n  dup2\n    /* \"#utility.yul\":9286:9300   */\n  lt\n    /* \"#utility.yul\":9278:9486   */\n  iszero\n  tag_154\n  jumpi\n    /* \"#utility.yul\":9371:9380   */\n  dup5\n    /* \"#utility.yul\":9366:9369   */\n  dup10\n    /* \"#utility.yul\":9362:9381   */\n  add\n    /* \"#utility.yul\":9356:9382   */\n  mload\n    /* \"#utility.yul\":9348:9354   */\n  dup3\n    /* \"#utility.yul\":9341:9383   */\n  sstore\n    /* \"#utility.yul\":9422:9423   */\n  0x01\n    /* \"#utility.yul\":9414:9420   */\n  dup3\n    /* \"#utility.yul\":9410:9424   */\n  add\n    /* \"#utility.yul\":9400:9424   */\n  swap2\n  pop\n    /* \"#utility.yul\":9469:9471   */\n  0x20\n    /* \"#utility.yul\":9458:9467   */\n  dup6\n    /* \"#utility.yul\":9454:9472   */\n  add\n    /* \"#utility.yul\":9441:9472   */\n  swap5\n  pop\n    /* \"#utility.yul\":9315:9319   */\n  0x20\n    /* \"#utility.yul\":9312:9313   */\n  dup2\n    /* \"#utility.yul\":9308:9320   */\n  add\n    /* \"#utility.yul\":9303:9320   */\n  swap1\n  pop\n    /* \"#utility.yul\":9278:9486   */\n  jump(tag_152)\ntag_154:\n    /* \"#utility.yul\":9514:9520   */\n  dup7\n    /* \"#utility.yul\":9505:9512   */\n  dup4\n    /* \"#utility.yul\":9502:9521   */\n  lt\n    /* \"#utility.yul\":9499:9678   */\n  iszero\n  tag_155\n  jumpi\n    /* \"#utility.yul\":9572:9581   */\n  dup5\n    /* \"#utility.yul\":9567:9570   */\n  dup10\n    /* \"#utility.yul\":9563:9582   */\n  add\n    /* \"#utility.yul\":9557:9583   */\n  mload\n    /* \"#utility.yul\":9615:9663   */\n  tag_156\n    /* \"#utility.yul\":9657:9661   */\n  0x1f\n    /* \"#utility.yul\":9649:9655   */\n  dup10\n    /* \"#utility.yul\":9645:9662   */\n  and\n    /* \"#utility.yul\":9634:9643   */\n  dup3\n    /* \"#utility.yul\":9615:9663   */\n  tag_45\n  jump\t// in\ntag_156:\n    /* \"#utility.yul\":9607:9613   */\n  dup4\n    /* \"#utility.yul\":9600:9664   */\n  sstore\n    /* \"#utility.yul\":9522:9678   */\n  pop\n    /* \"#utility.yul\":9499:9678   */\ntag_155:\n    /* \"#utility.yul\":9724:9725   */\n  0x01\n    /* \"#utility.yul\":9720:9721   */\n  0x02\n    /* \"#utility.yul\":9712:9718   */\n  dup9\n    /* \"#utility.yul\":9708:9722   */\n  mul\n    /* \"#utility.yul\":9704:9726   */\n  add\n    /* \"#utility.yul\":9698:9702   */\n  dup9\n    /* \"#utility.yul\":9691:9727   */\n  sstore\n    /* \"#utility.yul\":9126:9737   */\n  pop\n  pop\n  pop\n    /* \"#utility.yul\":9089:9976   */\ntag_147:\n  pop\n    /* \"#utility.yul\":8679:9982   */\n  pop\n  pop\n  pop\n    /* \"#utility.yul\":8587:9982   */\n  pop\n  pop\n  jump\t// out\n    /* \"VariableNativas.sol\":94:1235  contract VariableNativas {... */\ntag_10:\n  dataSize(sub_0)\n  dup1\n  dataOffset(sub_0)\n  0x00\n  codecopy\n  0x00\n  return\nstop\n\nsub_0: assembly {\n        /* \"VariableNativas.sol\":94:1235  contract VariableNativas {... */\n      mstore(0x40, 0x80)\n      callvalue\n      dup1\n      iszero\n      tag_1\n      jumpi\n      0x00\n      dup1\n      revert\n    tag_1:\n      pop\n      jumpi(tag_2, lt(calldatasize, 0x04))\n      shr(0xe0, calldataload(0x00))\n      dup1\n      0xce410d53\n      gt\n      tag_10\n      jumpi\n      dup1\n      0xce410d53\n      eq\n      tag_6\n      jumpi\n      dup1\n      0xdf77a62e\n      eq\n      tag_7\n      jumpi\n      dup1\n      0xf7ae9171\n      eq\n      tag_8\n      jumpi\n      dup1\n      0xf950fc6d\n      eq\n      tag_9\n      jumpi\n      jump(tag_2)\n    tag_10:\n      dup1\n      0x0bcd3b33\n      eq\n      tag_3\n      jumpi\n      dup1\n      0x17d7de7c\n      eq\n      tag_4\n      jumpi\n      dup1\n      0x38304639\n      eq\n      tag_5\n      jumpi\n    tag_2:\n      0x00\n      dup1\n      revert\n        /* \"VariableNativas.sol\":1153:1232  function getBytes() public view returns (bytes1){... */\n    tag_3:\n      tag_11\n      tag_12\n      jump\t// in\n    tag_11:\n      mload(0x40)\n      tag_13\n      swap2\n      swap1\n      tag_14\n      jump\t// in\n    tag_13:\n      mload(0x40)\n      dup1\n      swap2\n      sub\n      swap1\n      return\n        /* \"VariableNativas.sol\":368:457  function getName() public view returns (string memory) {... */\n    tag_4:\n      tag_15\n      tag_16\n      jump\t// in\n    tag_15:\n      mload(0x40)\n      tag_17\n      swap2\n      swap1\n      tag_18\n      jump\t// in\n    tag_17:\n      mload(0x40)\n      dup1\n      swap2\n      sub\n      swap1\n      return\n        /* \"VariableNativas.sol\":928:999  address public address_var = 0x5B38Da6a701c568545dCfcB03FcB875f56beddC4 */\n    tag_5:\n      tag_19\n      tag_20\n      jump\t// in\n    tag_19:\n      mload(0x40)\n      tag_21\n      swap2\n      swap1\n      tag_22\n      jump\t// in\n    tag_21:\n      mload(0x40)\n      dup1\n      swap2\n      sub\n      swap1\n      return\n        /* \"VariableNativas.sol\":665:694  uint256 public uint_256 = 234 */\n    tag_6:\n      tag_23\n      tag_24\n      jump\t// in\n    tag_23:\n      mload(0x40)\n      tag_25\n      swap2\n      swap1\n      tag_26\n      jump\t// in\n    tag_25:\n      mload(0x40)\n      dup1\n      swap2\n      sub\n      swap1\n      return\n        /* \"VariableNativas.sol\":779:801  int8 public int_8 = -1 */\n    tag_7:\n      tag_27\n      tag_28\n      jump\t// in\n    tag_27:\n      mload(0x40)\n      tag_29\n      swap2\n      swap1\n      tag_30\n      jump\t// in\n    tag_29:\n      mload(0x40)\n      dup1\n      swap2\n      sub\n      swap1\n      return\n        /* \"VariableNativas.sol\":808:835  int256 public int_256 = 456 */\n    tag_8:\n      tag_31\n      tag_32\n      jump\t// in\n    tag_31:\n      mload(0x40)\n      tag_33\n      swap2\n      swap1\n      tag_34\n      jump\t// in\n    tag_33:\n      mload(0x40)\n      dup1\n      swap2\n      sub\n      swap1\n      return\n        /* \"VariableNativas.sol\":635:658  uint public  uint_8 = 1 */\n    tag_9:\n      tag_35\n      tag_36\n      jump\t// in\n    tag_35:\n      mload(0x40)\n      tag_37\n      swap2\n      swap1\n      tag_26\n      jump\t// in\n    tag_37:\n      mload(0x40)\n      dup1\n      swap2\n      sub\n      swap1\n      return\n        /* \"VariableNativas.sol\":1153:1232  function getBytes() public view returns (bytes1){... */\n    tag_12:\n        /* \"VariableNativas.sol\":1194:1200  bytes1 */\n      0x00\n        /* \"VariableNativas.sol\":1219:1224  c_var */\n      0x05\n      0x16\n      swap1\n      sload\n      swap1\n      0x0100\n      exp\n      swap1\n      div\n      0xf8\n      shl\n        /* \"VariableNativas.sol\":1212:1224  return c_var */\n      swap1\n      pop\n        /* \"VariableNativas.sol\":1153:1232  function getBytes() public view returns (bytes1){... */\n      swap1\n      jump\t// out\n        /* \"VariableNativas.sol\":368:457  function getName() public view returns (string memory) {... */\n    tag_16:\n        /* \"VariableNativas.sol\":408:421  string memory */\n      0x60\n        /* \"VariableNativas.sol\":441:449  fullName */\n      0x00\n        /* \"VariableNativas.sol\":434:449  return fullName */\n      dup1\n      sload\n      tag_40\n      swap1\n      tag_41\n      jump\t// in\n    tag_40:\n      dup1\n      0x1f\n      add\n      0x20\n      dup1\n      swap2\n      div\n      mul\n      0x20\n      add\n      mload(0x40)\n      swap1\n      dup2\n      add\n      0x40\n      mstore\n      dup1\n      swap3\n      swap2\n      swap1\n      dup2\n      dup2\n      mstore\n      0x20\n      add\n      dup3\n      dup1\n      sload\n      tag_42\n      swap1\n      tag_41\n      jump\t// in\n    tag_42:\n      dup1\n      iszero\n      tag_43\n      jumpi\n      dup1\n      0x1f\n      lt\n      tag_44\n      jumpi\n      0x0100\n      dup1\n      dup4\n      sload\n      div\n      mul\n      dup4\n      mstore\n      swap2\n      0x20\n      add\n      swap2\n      jump(tag_43)\n    tag_44:\n      dup3\n      add\n      swap2\n      swap1\n      0x00\n      mstore\n      keccak256(0x00, 0x20)\n      swap1\n    tag_45:\n      dup2\n      sload\n      dup2\n      mstore\n      swap1\n      0x01\n      add\n      swap1\n      0x20\n      add\n      dup1\n      dup4\n      gt\n      tag_45\n      jumpi\n      dup3\n      swap1\n      sub\n      0x1f\n      and\n      dup3\n      add\n      swap2\n    tag_43:\n      pop\n      pop\n      pop\n      pop\n      pop\n      swap1\n      pop\n        /* \"VariableNativas.sol\":368:457  function getName() public view returns (string memory) {... */\n      swap1\n      jump\t// out\n        /* \"VariableNativas.sol\":928:999  address public address_var = 0x5B38Da6a701c568545dCfcB03FcB875f56beddC4 */\n    tag_20:\n      0x05\n      0x00\n      swap1\n      sload\n      swap1\n      0x0100\n      exp\n      swap1\n      div\n      0xffffffffffffffffffffffffffffffffffffffff\n      and\n      dup2\n      jump\t// out\n        /* \"VariableNativas.sol\":665:694  uint256 public uint_256 = 234 */\n    tag_24:\n      sload(0x02)\n      dup2\n      jump\t// out\n        /* \"VariableNativas.sol\":779:801  int8 public int_8 = -1 */\n    tag_28:\n      0x03\n      0x00\n      swap1\n      sload\n      swap1\n      0x0100\n      exp\n      swap1\n      div\n      0x00\n      signextend\n      dup2\n      jump\t// out\n        /* \"VariableNativas.sol\":808:835  int256 public int_256 = 456 */\n    tag_32:\n      sload(0x04)\n      dup2\n      jump\t// out\n        /* \"VariableNativas.sol\":635:658  uint public  uint_8 = 1 */\n    tag_36:\n      sload(0x01)\n      dup2\n      jump\t// out\n        /* \"#utility.yul\":7:156   */\n    tag_46:\n        /* \"#utility.yul\":43:50   */\n      0x00\n        /* \"#utility.yul\":83:149   */\n      0xff00000000000000000000000000000000000000000000000000000000000000\n        /* \"#utility.yul\":76:81   */\n      dup3\n        /* \"#utility.yul\":72:150   */\n      and\n        /* \"#utility.yul\":61:150   */\n      swap1\n      pop\n        /* \"#utility.yul\":7:156   */\n      swap2\n      swap1\n      pop\n      jump\t// out\n        /* \"#utility.yul\":162:277   */\n    tag_47:\n        /* \"#utility.yul\":247:270   */\n      tag_66\n        /* \"#utility.yul\":264:269   */\n      dup2\n        /* \"#utility.yul\":247:270   */\n      tag_46\n      jump\t// in\n    tag_66:\n        /* \"#utility.yul\":242:245   */\n      dup3\n        /* \"#utility.yul\":235:271   */\n      mstore\n        /* \"#utility.yul\":162:277   */\n      pop\n      pop\n      jump\t// out\n        /* \"#utility.yul\":283:501   */\n    tag_14:\n        /* \"#utility.yul\":374:378   */\n      0x00\n        /* \"#utility.yul\":412:414   */\n      0x20\n        /* \"#utility.yul\":401:410   */\n      dup3\n        /* \"#utility.yul\":397:415   */\n      add\n        /* \"#utility.yul\":389:415   */\n      swap1\n      pop\n        /* \"#utility.yul\":425:494   */\n      tag_68\n        /* \"#utility.yul\":491:492   */\n      0x00\n        /* \"#utility.yul\":480:489   */\n      dup4\n        /* \"#utility.yul\":476:493   */\n      add\n        /* \"#utility.yul\":467:473   */\n      dup5\n        /* \"#utility.yul\":425:494   */\n      tag_47\n      jump\t// in\n    tag_68:\n        /* \"#utility.yul\":283:501   */\n      swap3\n      swap2\n      pop\n      pop\n      jump\t// out\n        /* \"#utility.yul\":507:606   */\n    tag_48:\n        /* \"#utility.yul\":559:565   */\n      0x00\n        /* \"#utility.yul\":593:598   */\n      dup2\n        /* \"#utility.yul\":587:599   */\n      mload\n        /* \"#utility.yul\":577:599   */\n      swap1\n      pop\n        /* \"#utility.yul\":507:606   */\n      swap2\n      swap1\n      pop\n      jump\t// out\n        /* \"#utility.yul\":612:781   */\n    tag_49:\n        /* \"#utility.yul\":696:707   */\n      0x00\n        /* \"#utility.yul\":730:736   */\n      dup3\n        /* \"#utility.yul\":725:728   */\n      dup3\n        /* \"#utility.yul\":718:737   */\n      mstore\n        /* \"#utility.yul\":770:774   */\n      0x20\n        /* \"#utility.yul\":765:768   */\n      dup3\n        /* \"#utility.yul\":761:775   */\n      add\n        /* \"#utility.yul\":746:775   */\n      swap1\n      pop\n        /* \"#utility.yul\":612:781   */\n      swap3\n      swap2\n      pop\n      pop\n      jump\t// out\n        /* \"#utility.yul\":787:1033   */\n    tag_50:\n        /* \"#utility.yul\":868:869   */\n      0x00\n        /* \"#utility.yul\":878:991   */\n    tag_72:\n        /* \"#utility.yul\":892:898   */\n      dup4\n        /* \"#utility.yul\":889:890   */\n      dup2\n        /* \"#utility.yul\":886:899   */\n      lt\n        /* \"#utility.yul\":878:991   */\n      iszero\n      tag_74\n      jumpi\n        /* \"#utility.yul\":977:978   */\n      dup1\n        /* \"#utility.yul\":972:975   */\n      dup3\n        /* \"#utility.yul\":968:979   */\n      add\n        /* \"#utility.yul\":962:980   */\n      mload\n        /* \"#utility.yul\":958:959   */\n      dup2\n        /* \"#utility.yul\":953:956   */\n      dup5\n        /* \"#utility.yul\":949:960   */\n      add\n        /* \"#utility.yul\":942:981   */\n      mstore\n        /* \"#utility.yul\":914:916   */\n      0x20\n        /* \"#utility.yul\":911:912   */\n      dup2\n        /* \"#utility.yul\":907:917   */\n      add\n        /* \"#utility.yul\":902:917   */\n      swap1\n      pop\n        /* \"#utility.yul\":878:991   */\n      jump(tag_72)\n    tag_74:\n        /* \"#utility.yul\":1025:1026   */\n      0x00\n        /* \"#utility.yul\":1016:1022   */\n      dup5\n        /* \"#utility.yul\":1011:1014   */\n      dup5\n        /* \"#utility.yul\":1007:1023   */\n      add\n        /* \"#utility.yul\":1000:1027   */\n      mstore\n        /* \"#utility.yul\":849:1033   */\n      pop\n        /* \"#utility.yul\":787:1033   */\n      pop\n      pop\n      pop\n      jump\t// out\n        /* \"#utility.yul\":1039:1141   */\n    tag_51:\n        /* \"#utility.yul\":1080:1086   */\n      0x00\n        /* \"#utility.yul\":1131:1133   */\n      0x1f\n        /* \"#utility.yul\":1127:1134   */\n      not\n        /* \"#utility.yul\":1122:1124   */\n      0x1f\n        /* \"#utility.yul\":1115:1120   */\n      dup4\n        /* \"#utility.yul\":1111:1125   */\n      add\n        /* \"#utility.yul\":1107:1135   */\n      and\n        /* \"#utility.yul\":1097:1135   */\n      swap1\n      pop\n        /* \"#utility.yul\":1039:1141   */\n      swap2\n      swap1\n      pop\n      jump\t// out\n        /* \"#utility.yul\":1147:1524   */\n    tag_52:\n        /* \"#utility.yul\":1235:1238   */\n      0x00\n        /* \"#utility.yul\":1263:1302   */\n      tag_77\n        /* \"#utility.yul\":1296:1301   */\n      dup3\n        /* \"#utility.yul\":1263:1302   */\n      tag_48\n      jump\t// in\n    tag_77:\n        /* \"#utility.yul\":1318:1389   */\n      tag_78\n        /* \"#utility.yul\":1382:1388   */\n      dup2\n        /* \"#utility.yul\":1377:1380   */\n      dup6\n        /* \"#utility.yul\":1318:1389   */\n      tag_49\n      jump\t// in\n    tag_78:\n        /* \"#utility.yul\":1311:1389   */\n      swap4\n      pop\n        /* \"#utility.yul\":1398:1463   */\n      tag_79\n        /* \"#utility.yul\":1456:1462   */\n      dup2\n        /* \"#utility.yul\":1451:1454   */\n      dup6\n        /* \"#utility.yul\":1444:1448   */\n      0x20\n        /* \"#utility.yul\":1437:1442   */\n      dup7\n        /* \"#utility.yul\":1433:1449   */\n      add\n        /* \"#utility.yul\":1398:1463   */\n      tag_50\n      jump\t// in\n    tag_79:\n        /* \"#utility.yul\":1488:1517   */\n      tag_80\n        /* \"#utility.yul\":1510:1516   */\n      dup2\n        /* \"#utility.yul\":1488:1517   */\n      tag_51\n      jump\t// in\n    tag_80:\n        /* \"#utility.yul\":1483:1486   */\n      dup5\n        /* \"#utility.yul\":1479:1518   */\n      add\n        /* \"#utility.yul\":1472:1518   */\n      swap2\n      pop\n        /* \"#utility.yul\":1239:1524   */\n      pop\n        /* \"#utility.yul\":1147:1524   */\n      swap3\n      swap2\n      pop\n      pop\n      jump\t// out\n        /* \"#utility.yul\":1530:1843   */\n    tag_18:\n        /* \"#utility.yul\":1643:1647   */\n      0x00\n        /* \"#utility.yul\":1681:1683   */\n      0x20\n        /* \"#utility.yul\":1670:1679   */\n      dup3\n        /* \"#utility.yul\":1666:1684   */\n      add\n        /* \"#utility.yul\":1658:1684   */\n      swap1\n      pop\n        /* \"#utility.yul\":1730:1739   */\n      dup2\n        /* \"#utility.yul\":1724:1728   */\n      dup2\n        /* \"#utility.yul\":1720:1740   */\n      sub\n        /* \"#utility.yul\":1716:1717   */\n      0x00\n        /* \"#utility.yul\":1705:1714   */\n      dup4\n        /* \"#utility.yul\":1701:1718   */\n      add\n        /* \"#utility.yul\":1694:1741   */\n      mstore\n        /* \"#utility.yul\":1758:1836   */\n      tag_82\n        /* \"#utility.yul\":1831:1835   */\n      dup2\n        /* \"#utility.yul\":1822:1828   */\n      dup5\n        /* \"#utility.yul\":1758:1836   */\n      tag_52\n      jump\t// in\n    tag_82:\n        /* \"#utility.yul\":1750:1836   */\n      swap1\n      pop\n        /* \"#utility.yul\":1530:1843   */\n      swap3\n      swap2\n      pop\n      pop\n      jump\t// out\n        /* \"#utility.yul\":1849:1975   */\n    tag_53:\n        /* \"#utility.yul\":1886:1893   */\n      0x00\n        /* \"#utility.yul\":1926:1968   */\n      0xffffffffffffffffffffffffffffffffffffffff\n        /* \"#utility.yul\":1919:1924   */\n      dup3\n        /* \"#utility.yul\":1915:1969   */\n      and\n        /* \"#utility.yul\":1904:1969   */\n      swap1\n      pop\n        /* \"#utility.yul\":1849:1975   */\n      swap2\n      swap1\n      pop\n      jump\t// out\n        /* \"#utility.yul\":1981:2077   */\n    tag_54:\n        /* \"#utility.yul\":2018:2025   */\n      0x00\n        /* \"#utility.yul\":2047:2071   */\n      tag_85\n        /* \"#utility.yul\":2065:2070   */\n      dup3\n        /* \"#utility.yul\":2047:2071   */\n      tag_53\n      jump\t// in\n    tag_85:\n        /* \"#utility.yul\":2036:2071   */\n      swap1\n      pop\n        /* \"#utility.yul\":1981:2077   */\n      swap2\n      swap1\n      pop\n      jump\t// out\n        /* \"#utility.yul\":2083:2201   */\n    tag_55:\n        /* \"#utility.yul\":2170:2194   */\n      tag_87\n        /* \"#utility.yul\":2188:2193   */\n      dup2\n        /* \"#utility.yul\":2170:2194   */\n      tag_54\n      jump\t// in\n    tag_87:\n        /* \"#utility.yul\":2165:2168   */\n      dup3\n        /* \"#utility.yul\":2158:2195   */\n      mstore\n        /* \"#utility.yul\":2083:2201   */\n      pop\n      pop\n      jump\t// out\n        /* \"#utility.yul\":2207:2429   */\n    tag_22:\n        /* \"#utility.yul\":2300:2304   */\n      0x00\n        /* \"#utility.yul\":2338:2340   */\n      0x20\n        /* \"#utility.yul\":2327:2336   */\n      dup3\n        /* \"#utility.yul\":2323:2341   */\n      add\n        /* \"#utility.yul\":2315:2341   */\n      swap1\n      pop\n        /* \"#utility.yul\":2351:2422   */\n      tag_89\n        /* \"#utility.yul\":2419:2420   */\n      0x00\n        /* \"#utility.yul\":2408:2417   */\n      dup4\n        /* \"#utility.yul\":2404:2421   */\n      add\n        /* \"#utility.yul\":2395:2401   */\n      dup5\n        /* \"#utility.yul\":2351:2422   */\n      tag_55\n      jump\t// in\n    tag_89:\n        /* \"#utility.yul\":2207:2429   */\n      swap3\n      swap2\n      pop\n      pop\n      jump\t// out\n        /* \"#utility.yul\":2435:2512   */\n    tag_56:\n        /* \"#utility.yul\":2472:2479   */\n      0x00\n        /* \"#utility.yul\":2501:2506   */\n      dup2\n        /* \"#utility.yul\":2490:2506   */\n      swap1\n      pop\n        /* \"#utility.yul\":2435:2512   */\n      swap2\n      swap1\n      pop\n      jump\t// out\n        /* \"#utility.yul\":2518:2636   */\n    tag_57:\n        /* \"#utility.yul\":2605:2629   */\n      tag_92\n        /* \"#utility.yul\":2623:2628   */\n      dup2\n        /* \"#utility.yul\":2605:2629   */\n      tag_56\n      jump\t// in\n    tag_92:\n        /* \"#utility.yul\":2600:2603   */\n      dup3\n        /* \"#utility.yul\":2593:2630   */\n      mstore\n        /* \"#utility.yul\":2518:2636   */\n      pop\n      pop\n      jump\t// out\n        /* \"#utility.yul\":2642:2864   */\n    tag_26:\n        /* \"#utility.yul\":2735:2739   */\n      0x00\n        /* \"#utility.yul\":2773:2775   */\n      0x20\n        /* \"#utility.yul\":2762:2771   */\n      dup3\n        /* \"#utility.yul\":2758:2776   */\n      add\n        /* \"#utility.yul\":2750:2776   */\n      swap1\n      pop\n        /* \"#utility.yul\":2786:2857   */\n      tag_94\n        /* \"#utility.yul\":2854:2855   */\n      0x00\n        /* \"#utility.yul\":2843:2852   */\n      dup4\n        /* \"#utility.yul\":2839:2856   */\n      add\n        /* \"#utility.yul\":2830:2836   */\n      dup5\n        /* \"#utility.yul\":2786:2857   */\n      tag_57\n      jump\t// in\n    tag_94:\n        /* \"#utility.yul\":2642:2864   */\n      swap3\n      swap2\n      pop\n      pop\n      jump\t// out\n        /* \"#utility.yul\":2870:2959   */\n    tag_58:\n        /* \"#utility.yul\":2904:2911   */\n      0x00\n        /* \"#utility.yul\":2947:2952   */\n      dup2\n        /* \"#utility.yul\":2944:2945   */\n      0x00\n        /* \"#utility.yul\":2933:2953   */\n      signextend\n        /* \"#utility.yul\":2922:2953   */\n      swap1\n      pop\n        /* \"#utility.yul\":2870:2959   */\n      swap2\n      swap1\n      pop\n      jump\t// out\n        /* \"#utility.yul\":2965:3074   */\n    tag_59:\n        /* \"#utility.yul\":3046:3067   */\n      tag_97\n        /* \"#utility.yul\":3061:3066   */\n      dup2\n        /* \"#utility.yul\":3046:3067   */\n      tag_58\n      jump\t// in\n    tag_97:\n        /* \"#utility.yul\":3041:3044   */\n      dup3\n        /* \"#utility.yul\":3034:3068   */\n      mstore\n        /* \"#utility.yul\":2965:3074   */\n      pop\n      pop\n      jump\t// out\n        /* \"#utility.yul\":3080:3290   */\n    tag_30:\n        /* \"#utility.yul\":3167:3171   */\n      0x00\n        /* \"#utility.yul\":3205:3207   */\n      0x20\n        /* \"#utility.yul\":3194:3203   */\n      dup3\n        /* \"#utility.yul\":3190:3208   */\n      add\n        /* \"#utility.yul\":3182:3208   */\n      swap1\n      pop\n        /* \"#utility.yul\":3218:3283   */\n      tag_99\n        /* \"#utility.yul\":3280:3281   */\n      0x00\n        /* \"#utility.yul\":3269:3278   */\n      dup4\n        /* \"#utility.yul\":3265:3282   */\n      add\n        /* \"#utility.yul\":3256:3262   */\n      dup5\n        /* \"#utility.yul\":3218:3283   */\n      tag_59\n      jump\t// in\n    tag_99:\n        /* \"#utility.yul\":3080:3290   */\n      swap3\n      swap2\n      pop\n      pop\n      jump\t// out\n        /* \"#utility.yul\":3296:3372   */\n    tag_60:\n        /* \"#utility.yul\":3332:3339   */\n      0x00\n        /* \"#utility.yul\":3361:3366   */\n      dup2\n        /* \"#utility.yul\":3350:3366   */\n      swap1\n      pop\n        /* \"#utility.yul\":3296:3372   */\n      swap2\n      swap1\n      pop\n      jump\t// out\n        /* \"#utility.yul\":3378:3493   */\n    tag_61:\n        /* \"#utility.yul\":3463:3486   */\n      tag_102\n        /* \"#utility.yul\":3480:3485   */\n      dup2\n        /* \"#utility.yul\":3463:3486   */\n      tag_60\n      jump\t// in\n    tag_102:\n        /* \"#utility.yul\":3458:3461   */\n      dup3\n        /* \"#utility.yul\":3451:3487   */\n      mstore\n        /* \"#utility.yul\":3378:3493   */\n      pop\n      pop\n      jump\t// out\n        /* \"#utility.yul\":3499:3717   */\n    tag_34:\n        /* \"#utility.yul\":3590:3594   */\n      0x00\n        /* \"#utility.yul\":3628:3630   */\n      0x20\n        /* \"#utility.yul\":3617:3626   */\n      dup3\n        /* \"#utility.yul\":3613:3631   */\n      add\n        /* \"#utility.yul\":3605:3631   */\n      swap1\n      pop\n        /* \"#utility.yul\":3641:3710   */\n      tag_104\n        /* \"#utility.yul\":3707:3708   */\n      0x00\n        /* \"#utility.yul\":3696:3705   */\n      dup4\n        /* \"#utility.yul\":3692:3709   */\n      add\n        /* \"#utility.yul\":3683:3689   */\n      dup5\n        /* \"#utility.yul\":3641:3710   */\n      tag_61\n      jump\t// in\n    tag_104:\n        /* \"#utility.yul\":3499:3717   */\n      swap3\n      swap2\n      pop\n      pop\n      jump\t// out\n        /* \"#utility.yul\":3723:3903   */\n    tag_62:\n        /* \"#utility.yul\":3771:3848   */\n      0x4e487b7100000000000000000000000000000000000000000000000000000000\n        /* \"#utility.yul\":3768:3769   */\n      0x00\n        /* \"#utility.yul\":3761:3849   */\n      mstore\n        /* \"#utility.yul\":3868:3872   */\n      0x22\n        /* \"#utility.yul\":3865:3866   */\n      0x04\n        /* \"#utility.yul\":3858:3873   */\n      mstore\n        /* \"#utility.yul\":3892:3896   */\n      0x24\n        /* \"#utility.yul\":3889:3890   */\n      0x00\n        /* \"#utility.yul\":3882:3897   */\n      revert\n        /* \"#utility.yul\":3909:4229   */\n    tag_41:\n        /* \"#utility.yul\":3953:3959   */\n      0x00\n        /* \"#utility.yul\":3990:3991   */\n      0x02\n        /* \"#utility.yul\":3984:3988   */\n      dup3\n        /* \"#utility.yul\":3980:3992   */\n      div\n        /* \"#utility.yul\":3970:3992   */\n      swap1\n      pop\n        /* \"#utility.yul\":4037:4038   */\n      0x01\n        /* \"#utility.yul\":4031:4035   */\n      dup3\n        /* \"#utility.yul\":4027:4039   */\n      and\n        /* \"#utility.yul\":4058:4076   */\n      dup1\n        /* \"#utility.yul\":4048:4129   */\n      tag_107\n      jumpi\n        /* \"#utility.yul\":4114:4118   */\n      0x7f\n        /* \"#utility.yul\":4106:4112   */\n      dup3\n        /* \"#utility.yul\":4102:4119   */\n      and\n        /* \"#utility.yul\":4092:4119   */\n      swap2\n      pop\n        /* \"#utility.yul\":4048:4129   */\n    tag_107:\n        /* \"#utility.yul\":4176:4178   */\n      0x20\n        /* \"#utility.yul\":4168:4174   */\n      dup3\n        /* \"#utility.yul\":4165:4179   */\n      lt\n        /* \"#utility.yul\":4145:4163   */\n      dup2\n        /* \"#utility.yul\":4142:4180   */\n      sub\n        /* \"#utility.yul\":4139:4223   */\n      tag_108\n      jumpi\n        /* \"#utility.yul\":4195:4213   */\n      tag_109\n      tag_62\n      jump\t// in\n    tag_109:\n        /* \"#utility.yul\":4139:4223   */\n    tag_108:\n        /* \"#utility.yul\":3960:4229   */\n      pop\n        /* \"#utility.yul\":3909:4229   */\n      swap2\n      swap1\n      pop\n      jump\t// out\n\n    auxdata: 0xa26469706673582212206a06880341c1275467b18ff0ea46120b6ff5f0ece78b5e8db4d4eee06a2c162b64736f6c63430008180033\n}\n",
				"bytecode": {
					"linkReferences": {},
					"object": "60806040526001805560ea6002557fffffffffffffffffffffffffffffffffffffffffffffffffffffffffffffffff60035f6101000a81548160ff02191690835f0b60ff1602179055506101c8600455735b38da6a701c568545dcfcb03fcb875f56beddc460055f6101000a81548173ffffffffffffffffffffffffffffffffffffffff021916908373ffffffffffffffffffffffffffffffffffffffff16021790555060b560f81b600560146101000a81548160ff021916908360f81c0217905550605660f81b600560156101000a81548160ff021916908360f81c0217905550348015620000ed575f80fd5b5060405162000bca38038062000bca8339818101604052810190620001139190620002d1565b80604051602001620001269190620003b6565b6040516020818303038152906040525f90816200014491906200061d565b505062000701565b5f604051905090565b5f80fd5b5f80fd5b5f80fd5b5f80fd5b5f601f19601f8301169050919050565b7f4e487b71000000000000000000000000000000000000000000000000000000005f52604160045260245ffd5b620001ad8262000165565b810181811067ffffffffffffffff82111715620001cf57620001ce62000175565b5b80604052505050565b5f620001e36200014c565b9050620001f18282620001a2565b919050565b5f67ffffffffffffffff82111562000213576200021262000175565b5b6200021e8262000165565b9050602081019050919050565b5f5b838110156200024a5780820151818401526020810190506200022d565b5f8484015250505050565b5f6200026b6200026584620001f6565b620001d8565b9050828152602081018484840111156200028a576200028962000161565b5b620002978482856200022b565b509392505050565b5f82601f830112620002b657620002b56200015d565b5b8151620002c884826020860162000255565b91505092915050565b5f60208284031215620002e957620002e862000155565b5b5f82015167ffffffffffffffff81111562000309576200030862000159565b5b62000317848285016200029f565b91505092915050565b7f4a75616e20446965676f00000000000000000000000000000000000000000000815250565b7f2000000000000000000000000000000000000000000000000000000000000000815250565b5f81519050919050565b5f81905092915050565b5f6200038c826200036c565b62000398818562000376565b9350620003aa8185602086016200022b565b80840191505092915050565b5f620003c28262000320565b600a82019150620003d38262000346565b600182019150620003e5828462000380565b915081905092915050565b7f4e487b71000000000000000000000000000000000000000000000000000000005f52602260045260245ffd5b5f60028204905060018216806200043557607f821691505b6020821081036200044b576200044a620003f0565b5b50919050565b5f819050815f5260205f209050919050565b5f6020601f8301049050919050565b5f82821b905092915050565b5f60088302620004af7fffffffffffffffffffffffffffffffffffffffffffffffffffffffffffffffff8262000472565b620004bb868362000472565b95508019841693508086168417925050509392505050565b5f819050919050565b5f819050919050565b5f62000505620004ff620004f984620004d3565b620004dc565b620004d3565b9050919050565b5f819050919050565b6200052083620004e5565b620005386200052f826200050c565b8484546200047e565b825550505050565b5f90565b6200054e62000540565b6200055b81848462000515565b505050565b5b818110156200058257620005765f8262000544565b60018101905062000561565b5050565b601f821115620005d1576200059b8162000451565b620005a68462000463565b81016020851015620005b6578190505b620005ce620005c58562000463565b83018262000560565b50505b505050565b5f82821c905092915050565b5f620005f35f1984600802620005d6565b1980831691505092915050565b5f6200060d8383620005e2565b9150826002028217905092915050565b62000628826200036c565b67ffffffffffffffff81111562000644576200064362000175565b5b6200065082546200041d565b6200065d82828562000586565b5f60209050601f83116001811462000693575f84156200067e578287015190505b6200068a858262000600565b865550620006f9565b601f198416620006a38662000451565b5f5b82811015620006cc57848901518255600182019150602085019450602081019050620006a5565b86831015620006ec5784890151620006e8601f891682620005e2565b8355505b6001600288020188555050505b505050505050565b6104bb806200070f5f395ff3fe608060405234801561000f575f80fd5b506004361061007b575f3560e01c8063ce410d5311610059578063ce410d53146100d9578063df77a62e146100f7578063f7ae917114610115578063f950fc6d146101335761007b565b80630bcd3b331461007f57806317d7de7c1461009d57806338304639146100bb575b5f80fd5b610087610151565b6040516100949190610278565b60405180910390f35b6100a5610167565b6040516100b2919061031b565b60405180910390f35b6100c36101f6565b6040516100d0919061037a565b60405180910390f35b6100e161021b565b6040516100ee91906103ab565b60405180910390f35b6100ff610221565b60405161010c91906103de565b60405180910390f35b61011d610232565b60405161012a919061040f565b60405180910390f35b61013b610238565b60405161014891906103ab565b60405180910390f35b5f600560169054906101000a900460f81b905090565b60605f805461017590610455565b80601f01602080910402602001604051908101604052809291908181526020018280546101a190610455565b80156101ec5780601f106101c3576101008083540402835291602001916101ec565b820191905f5260205f20905b8154815290600101906020018083116101cf57829003601f168201915b5050505050905090565b60055f9054906101000a900473ffffffffffffffffffffffffffffffffffffffff1681565b60025481565b60035f9054906101000a90045f0b81565b60045481565b60015481565b5f7fff0000000000000000000000000000000000000000000000000000000000000082169050919050565b6102728161023e565b82525050565b5f60208201905061028b5f830184610269565b92915050565b5f81519050919050565b5f82825260208201905092915050565b5f5b838110156102c85780820151818401526020810190506102ad565b5f8484015250505050565b5f601f19601f8301169050919050565b5f6102ed82610291565b6102f7818561029b565b93506103078185602086016102ab565b610310816102d3565b840191505092915050565b5f6020820190508181035f83015261033381846102e3565b905092915050565b5f73ffffffffffffffffffffffffffffffffffffffff82169050919050565b5f6103648261033b565b9050919050565b6103748161035a565b82525050565b5f60208201905061038d5f83018461036b565b92915050565b5f819050919050565b6103a581610393565b82525050565b5f6020820190506103be5f83018461039c565b92915050565b5f815f0b9050919050565b6103d8816103c4565b82525050565b5f6020820190506103f15f8301846103cf565b92915050565b5f819050919050565b610409816103f7565b82525050565b5f6020820190506104225f830184610400565b92915050565b7f4e487b71000000000000000000000000000000000000000000000000000000005f52602260045260245ffd5b5f600282049050600182168061046c57607f821691505b60208210810361047f5761047e610428565b5b5091905056fea26469706673582212206a06880341c1275467b18ff0ea46120b6ff5f0ece78b5e8db4d4eee06a2c162b64736f6c63430008180033",
					"opcodes": "PUSH1 0x80 PUSH1 0x40 MSTORE PUSH1 0x1 DUP1 SSTORE PUSH1 0xEA PUSH1 0x2 SSTORE PUSH32 0xFFFFFFFFFFFFFFFFFFFFFFFFFFFFFFFFFFFFFFFFFFFFFFFFFFFFFFFFFFFFFFFF PUSH1 0x3 PUSH0 PUSH2 0x100 EXP DUP2 SLOAD DUP2 PUSH1 0xFF MUL NOT AND SWAP1 DUP4 PUSH0 SIGNEXTEND PUSH1 0xFF AND MUL OR SWAP1 SSTORE POP PUSH2 0x1C8 PUSH1 0x4 SSTORE PUSH20 0x5B38DA6A701C568545DCFCB03FCB875F56BEDDC4 PUSH1 0x5 PUSH0 PUSH2 0x100 EXP DUP2 SLOAD DUP2 PUSH20 0xFFFFFFFFFFFFFFFFFFFFFFFFFFFFFFFFFFFFFFFF MUL NOT AND SWAP1 DUP4 PUSH20 0xFFFFFFFFFFFFFFFFFFFFFFFFFFFFFFFFFFFFFFFF AND MUL OR SWAP1 SSTORE POP PUSH1 0xB5 PUSH1 0xF8 SHL PUSH1 0x5 PUSH1 0x14 PUSH2 0x100 EXP DUP2 SLOAD DUP2 PUSH1 0xFF MUL NOT AND SWAP1 DUP4 PUSH1 0xF8 SHR MUL OR SWAP1 SSTORE POP PUSH1 0x56 PUSH1 0xF8 SHL PUSH1 0x5 PUSH1 0x15 PUSH2 0x100 EXP DUP2 SLOAD DUP2 PUSH1 0xFF MUL NOT AND SWAP1 DUP4 PUSH1 0xF8 SHR MUL OR SWAP1 SSTORE POP CALLVALUE DUP1 ISZERO PUSH3 0xED JUMPI PUSH0 DUP1 REVERT JUMPDEST POP PUSH1 0x40 MLOAD PUSH3 0xBCA CODESIZE SUB DUP1 PUSH3 0xBCA DUP4 CODECOPY DUP2 DUP2 ADD PUSH1 0x40 MSTORE DUP2 ADD SWAP1 PUSH3 0x113 SWAP2 SWAP1 PUSH3 0x2D1 JUMP JUMPDEST DUP1 PUSH1 0x40 MLOAD PUSH1 0x20 ADD PUSH3 0x126 SWAP2 SWAP1 PUSH3 0x3B6 JUMP JUMPDEST PUSH1 0x40 MLOAD PUSH1 0x20 DUP2 DUP4 SUB SUB DUP2 MSTORE SWAP1 PUSH1 0x40 MSTORE PUSH0 SWAP1 DUP2 PUSH3 0x144 SWAP2 SWAP1 PUSH3 0x61D JUMP JUMPDEST POP POP PUSH3 0x701 JUMP JUMPDEST PUSH0 PUSH1 0x40 MLOAD SWAP1 POP SWAP1 JUMP JUMPDEST PUSH0 DUP1 REVERT JUMPDEST PUSH0 DUP1 REVERT JUMPDEST PUSH0 DUP1 REVERT JUMPDEST PUSH0 DUP1 REVERT JUMPDEST PUSH0 PUSH1 0x1F NOT PUSH1 0x1F DUP4 ADD AND SWAP1 POP SWAP2 SWAP1 POP JUMP JUMPDEST PUSH32 0x4E487B7100000000000000000000000000000000000000000000000000000000 PUSH0 MSTORE PUSH1 0x41 PUSH1 0x4 MSTORE PUSH1 0x24 PUSH0 REVERT JUMPDEST PUSH3 0x1AD DUP3 PUSH3 0x165 JUMP JUMPDEST DUP2 ADD DUP2 DUP2 LT PUSH8 0xFFFFFFFFFFFFFFFF DUP3 GT OR ISZERO PUSH3 0x1CF JUMPI PUSH3 0x1CE PUSH3 0x175 JUMP JUMPDEST JUMPDEST DUP1 PUSH1 0x40 MSTORE POP POP POP JUMP JUMPDEST PUSH0 PUSH3 0x1E3 PUSH3 0x14C JUMP JUMPDEST SWAP1 POP PUSH3 0x1F1 DUP3 DUP3 PUSH3 0x1A2 JUMP JUMPDEST SWAP2 SWAP1 POP JUMP JUMPDEST PUSH0 PUSH8 0xFFFFFFFFFFFFFFFF DUP3 GT ISZERO PUSH3 0x213 JUMPI PUSH3 0x212 PUSH3 0x175 JUMP JUMPDEST JUMPDEST PUSH3 0x21E DUP3 PUSH3 0x165 JUMP JUMPDEST SWAP1 POP PUSH1 0x20 DUP2 ADD SWAP1 POP SWAP2 SWAP1 POP JUMP JUMPDEST PUSH0 JUMPDEST DUP4 DUP2 LT ISZERO PUSH3 0x24A JUMPI DUP1 DUP3 ADD MLOAD DUP2 DUP5 ADD MSTORE PUSH1 0x20 DUP2 ADD SWAP1 POP PUSH3 0x22D JUMP JUMPDEST PUSH0 DUP5 DUP5 ADD MSTORE POP POP POP POP JUMP JUMPDEST PUSH0 PUSH3 0x26B PUSH3 0x265 DUP5 PUSH3 0x1F6 JUMP JUMPDEST PUSH3 0x1D8 JUMP JUMPDEST SWAP1 POP DUP3 DUP2 MSTORE PUSH1 0x20 DUP2 ADD DUP5 DUP5 DUP5 ADD GT ISZERO PUSH3 0x28A JUMPI PUSH3 0x289 PUSH3 0x161 JUMP JUMPDEST JUMPDEST PUSH3 0x297 DUP5 DUP3 DUP6 PUSH3 0x22B JUMP JUMPDEST POP SWAP4 SWAP3 POP POP POP JUMP JUMPDEST PUSH0 DUP3 PUSH1 0x1F DUP4 ADD SLT PUSH3 0x2B6 JUMPI PUSH3 0x2B5 PUSH3 0x15D JUMP JUMPDEST JUMPDEST DUP2 MLOAD PUSH3 0x2C8 DUP5 DUP3 PUSH1 0x20 DUP7 ADD PUSH3 0x255 JUMP JUMPDEST SWAP2 POP POP SWAP3 SWAP2 POP POP JUMP JUMPDEST PUSH0 PUSH1 0x20 DUP3 DUP5 SUB SLT ISZERO PUSH3 0x2E9 JUMPI PUSH3 0x2E8 PUSH3 0x155 JUMP JUMPDEST JUMPDEST PUSH0 DUP3 ADD MLOAD PUSH8 0xFFFFFFFFFFFFFFFF DUP2 GT ISZERO PUSH3 0x309 JUMPI PUSH3 0x308 PUSH3 0x159 JUMP JUMPDEST JUMPDEST PUSH3 0x317 DUP5 DUP3 DUP6 ADD PUSH3 0x29F JUMP JUMPDEST SWAP2 POP POP SWAP3 SWAP2 POP POP JUMP JUMPDEST PUSH32 0x4A75616E20446965676F00000000000000000000000000000000000000000000 DUP2 MSTORE POP JUMP JUMPDEST PUSH32 0x2000000000000000000000000000000000000000000000000000000000000000 DUP2 MSTORE POP JUMP JUMPDEST PUSH0 DUP2 MLOAD SWAP1 POP SWAP2 SWAP1 POP JUMP JUMPDEST PUSH0 DUP2 SWAP1 POP SWAP3 SWAP2 POP POP JUMP JUMPDEST PUSH0 PUSH3 0x38C DUP3 PUSH3 0x36C JUMP JUMPDEST PUSH3 0x398 DUP2 DUP6 PUSH3 0x376 JUMP JUMPDEST SWAP4 POP PUSH3 0x3AA DUP2 DUP6 PUSH1 0x20 DUP7 ADD PUSH3 0x22B JUMP JUMPDEST DUP1 DUP5 ADD SWAP2 POP POP SWAP3 SWAP2 POP POP JUMP JUMPDEST PUSH0 PUSH3 0x3C2 DUP3 PUSH3 0x320 JUMP JUMPDEST PUSH1 0xA DUP3 ADD SWAP2 POP PUSH3 0x3D3 DUP3 PUSH3 0x346 JUMP JUMPDEST PUSH1 0x1 DUP3 ADD SWAP2 POP PUSH3 0x3E5 DUP3 DUP5 PUSH3 0x380 JUMP JUMPDEST SWAP2 POP DUP2 SWAP1 POP SWAP3 SWAP2 POP POP JUMP JUMPDEST PUSH32 0x4E487B7100000000000000000000000000000000000000000000000000000000 PUSH0 MSTORE PUSH1 0x22 PUSH1 0x4 MSTORE PUSH1 0x24 PUSH0 REVERT JUMPDEST PUSH0 PUSH1 0x2 DUP3 DIV SWAP1 POP PUSH1 0x1 DUP3 AND DUP1 PUSH3 0x435 JUMPI PUSH1 0x7F DUP3 AND SWAP2 POP JUMPDEST PUSH1 0x20 DUP3 LT DUP2 SUB PUSH3 0x44B JUMPI PUSH3 0x44A PUSH3 0x3F0 JUMP JUMPDEST JUMPDEST POP SWAP2 SWAP1 POP JUMP JUMPDEST PUSH0 DUP2 SWAP1 POP DUP2 PUSH0 MSTORE PUSH1 0x20 PUSH0 KECCAK256 SWAP1 POP SWAP2 SWAP1 POP JUMP JUMPDEST PUSH0 PUSH1 0x20 PUSH1 0x1F DUP4 ADD DIV SWAP1 POP SWAP2 SWAP1 POP JUMP JUMPDEST PUSH0 DUP3 DUP3 SHL SWAP1 POP SWAP3 SWAP2 POP POP JUMP JUMPDEST PUSH0 PUSH1 0x8 DUP4 MUL PUSH3 0x4AF PUSH32 0xFFFFFFFFFFFFFFFFFFFFFFFFFFFFFFFFFFFFFFFFFFFFFFFFFFFFFFFFFFFFFFFF DUP3 PUSH3 0x472 JUMP JUMPDEST PUSH3 0x4BB DUP7 DUP4 PUSH3 0x472 JUMP JUMPDEST SWAP6 POP DUP1 NOT DUP5 AND SWAP4 POP DUP1 DUP7 AND DUP5 OR SWAP3 POP POP POP SWAP4 SWAP3 POP POP POP JUMP JUMPDEST PUSH0 DUP2 SWAP1 POP SWAP2 SWAP1 POP JUMP JUMPDEST PUSH0 DUP2 SWAP1 POP SWAP2 SWAP1 POP JUMP JUMPDEST PUSH0 PUSH3 0x505 PUSH3 0x4FF PUSH3 0x4F9 DUP5 PUSH3 0x4D3 JUMP JUMPDEST PUSH3 0x4DC JUMP JUMPDEST PUSH3 0x4D3 JUMP JUMPDEST SWAP1 POP SWAP2 SWAP1 POP JUMP JUMPDEST PUSH0 DUP2 SWAP1 POP SWAP2 SWAP1 POP JUMP JUMPDEST PUSH3 0x520 DUP4 PUSH3 0x4E5 JUMP JUMPDEST PUSH3 0x538 PUSH3 0x52F DUP3 PUSH3 0x50C JUMP JUMPDEST DUP5 DUP5 SLOAD PUSH3 0x47E JUMP JUMPDEST DUP3 SSTORE POP POP POP POP JUMP JUMPDEST PUSH0 SWAP1 JUMP JUMPDEST PUSH3 0x54E PUSH3 0x540 JUMP JUMPDEST PUSH3 0x55B DUP2 DUP5 DUP5 PUSH3 0x515 JUMP JUMPDEST POP POP POP JUMP JUMPDEST JUMPDEST DUP2 DUP2 LT ISZERO PUSH3 0x582 JUMPI PUSH3 0x576 PUSH0 DUP3 PUSH3 0x544 JUMP JUMPDEST PUSH1 0x1 DUP2 ADD SWAP1 POP PUSH3 0x561 JUMP JUMPDEST POP POP JUMP JUMPDEST PUSH1 0x1F DUP3 GT ISZERO PUSH3 0x5D1 JUMPI PUSH3 0x59B DUP2 PUSH3 0x451 JUMP JUMPDEST PUSH3 0x5A6 DUP5 PUSH3 0x463 JUMP JUMPDEST DUP2 ADD PUSH1 0x20 DUP6 LT ISZERO PUSH3 0x5B6 JUMPI DUP2 SWAP1 POP JUMPDEST PUSH3 0x5CE PUSH3 0x5C5 DUP6 PUSH3 0x463 JUMP JUMPDEST DUP4 ADD DUP3 PUSH3 0x560 JUMP JUMPDEST POP POP JUMPDEST POP POP POP JUMP JUMPDEST PUSH0 DUP3 DUP3 SHR SWAP1 POP SWAP3 SWAP2 POP POP JUMP JUMPDEST PUSH0 PUSH3 0x5F3 PUSH0 NOT DUP5 PUSH1 0x8 MUL PUSH3 0x5D6 JUMP JUMPDEST NOT DUP1 DUP4 AND SWAP2 POP POP SWAP3 SWAP2 POP POP JUMP JUMPDEST PUSH0 PUSH3 0x60D DUP4 DUP4 PUSH3 0x5E2 JUMP JUMPDEST SWAP2 POP DUP3 PUSH1 0x2 MUL DUP3 OR SWAP1 POP SWAP3 SWAP2 POP POP JUMP JUMPDEST PUSH3 0x628 DUP3 PUSH3 0x36C JUMP JUMPDEST PUSH8 0xFFFFFFFFFFFFFFFF DUP2 GT ISZERO PUSH3 0x644 JUMPI PUSH3 0x643 PUSH3 0x175 JUMP JUMPDEST JUMPDEST PUSH3 0x650 DUP3 SLOAD PUSH3 0x41D JUMP JUMPDEST PUSH3 0x65D DUP3 DUP3 DUP6 PUSH3 0x586 JUMP JUMPDEST PUSH0 PUSH1 0x20 SWAP1 POP PUSH1 0x1F DUP4 GT PUSH1 0x1 DUP2 EQ PUSH3 0x693 JUMPI PUSH0 DUP5 ISZERO PUSH3 0x67E JUMPI DUP3 DUP8 ADD MLOAD SWAP1 POP JUMPDEST PUSH3 0x68A DUP6 DUP3 PUSH3 0x600 JUMP JUMPDEST DUP7 SSTORE POP PUSH3 0x6F9 JUMP JUMPDEST PUSH1 0x1F NOT DUP5 AND PUSH3 0x6A3 DUP7 PUSH3 0x451 JUMP JUMPDEST PUSH0 JUMPDEST DUP3 DUP2 LT ISZERO PUSH3 0x6CC JUMPI DUP5 DUP10 ADD MLOAD DUP3 SSTORE PUSH1 0x1 DUP3 ADD SWAP2 POP PUSH1 0x20 DUP6 ADD SWAP5 POP PUSH1 0x20 DUP2 ADD SWAP1 POP PUSH3 0x6A5 JUMP JUMPDEST DUP7 DUP4 LT ISZERO PUSH3 0x6EC JUMPI DUP5 DUP10 ADD MLOAD PUSH3 0x6E8 PUSH1 0x1F DUP10 AND DUP3 PUSH3 0x5E2 JUMP JUMPDEST DUP4 SSTORE POP JUMPDEST PUSH1 0x1 PUSH1 0x2 DUP9 MUL ADD DUP9 SSTORE POP POP POP JUMPDEST POP POP POP POP POP POP JUMP JUMPDEST PUSH2 0x4BB DUP1 PUSH3 0x70F PUSH0 CODECOPY PUSH0 RETURN INVALID PUSH1 0x80 PUSH1 0x40 MSTORE CALLVALUE DUP1 ISZERO PUSH2 0xF JUMPI PUSH0 DUP1 REVERT JUMPDEST POP PUSH1 0x4 CALLDATASIZE LT PUSH2 0x7B JUMPI PUSH0 CALLDATALOAD PUSH1 0xE0 SHR DUP1 PUSH4 0xCE410D53 GT PUSH2 0x59 JUMPI DUP1 PUSH4 0xCE410D53 EQ PUSH2 0xD9 JUMPI DUP1 PUSH4 0xDF77A62E EQ PUSH2 0xF7 JUMPI DUP1 PUSH4 0xF7AE9171 EQ PUSH2 0x115 JUMPI DUP1 PUSH4 0xF950FC6D EQ PUSH2 0x133 JUMPI PUSH2 0x7B JUMP JUMPDEST DUP1 PUSH4 0xBCD3B33 EQ PUSH2 0x7F JUMPI DUP1 PUSH4 0x17D7DE7C EQ PUSH2 0x9D JUMPI DUP1 PUSH4 0x38304639 EQ PUSH2 0xBB JUMPI JUMPDEST PUSH0 DUP1 REVERT JUMPDEST PUSH2 0x87 PUSH2 0x151 JUMP JUMPDEST PUSH1 0x40 MLOAD PUSH2 0x94 SWAP2 SWAP1 PUSH2 0x278 JUMP JUMPDEST PUSH1 0x40 MLOAD DUP1 SWAP2 SUB SWAP1 RETURN JUMPDEST PUSH2 0xA5 PUSH2 0x167 JUMP JUMPDEST PUSH1 0x40 MLOAD PUSH2 0xB2 SWAP2 SWAP1 PUSH2 0x31B JUMP JUMPDEST PUSH1 0x40 MLOAD DUP1 SWAP2 SUB SWAP1 RETURN JUMPDEST PUSH2 0xC3 PUSH2 0x1F6 JUMP JUMPDEST PUSH1 0x40 MLOAD PUSH2 0xD0 SWAP2 SWAP1 PUSH2 0x37A JUMP JUMPDEST PUSH1 0x40 MLOAD DUP1 SWAP2 SUB SWAP1 RETURN JUMPDEST PUSH2 0xE1 PUSH2 0x21B JUMP JUMPDEST PUSH1 0x40 MLOAD PUSH2 0xEE SWAP2 SWAP1 PUSH2 0x3AB JUMP JUMPDEST PUSH1 0x40 MLOAD DUP1 SWAP2 SUB SWAP1 RETURN JUMPDEST PUSH2 0xFF PUSH2 0x221 JUMP JUMPDEST PUSH1 0x40 MLOAD PUSH2 0x10C SWAP2 SWAP1 PUSH2 0x3DE JUMP JUMPDEST PUSH1 0x40 MLOAD DUP1 SWAP2 SUB SWAP1 RETURN JUMPDEST PUSH2 0x11D PUSH2 0x232 JUMP JUMPDEST PUSH1 0x40 MLOAD PUSH2 0x12A SWAP2 SWAP1 PUSH2 0x40F JUMP JUMPDEST PUSH1 0x40 MLOAD DUP1 SWAP2 SUB SWAP1 RETURN JUMPDEST PUSH2 0x13B PUSH2 0x238 JUMP JUMPDEST PUSH1 0x40 MLOAD PUSH2 0x148 SWAP2 SWAP1 PUSH2 0x3AB JUMP JUMPDEST PUSH1 0x40 MLOAD DUP1 SWAP2 SUB SWAP1 RETURN JUMPDEST PUSH0 PUSH1 0x5 PUSH1 0x16 SWAP1 SLOAD SWAP1 PUSH2 0x100 EXP SWAP1 DIV PUSH1 0xF8 SHL SWAP1 POP SWAP1 JUMP JUMPDEST PUSH1 0x60 PUSH0 DUP1 SLOAD PUSH2 0x175 SWAP1 PUSH2 0x455 JUMP JUMPDEST DUP1 PUSH1 0x1F ADD PUSH1 0x20 DUP1 SWAP2 DIV MUL PUSH1 0x20 ADD PUSH1 0x40 MLOAD SWAP1 DUP2 ADD PUSH1 0x40 MSTORE DUP1 SWAP3 SWAP2 SWAP1 DUP2 DUP2 MSTORE PUSH1 0x20 ADD DUP3 DUP1 SLOAD PUSH2 0x1A1 SWAP1 PUSH2 0x455 JUMP JUMPDEST DUP1 ISZERO PUSH2 0x1EC JUMPI DUP1 PUSH1 0x1F LT PUSH2 0x1C3 JUMPI PUSH2 0x100 DUP1 DUP4 SLOAD DIV MUL DUP4 MSTORE SWAP2 PUSH1 0x20 ADD SWAP2 PUSH2 0x1EC JUMP JUMPDEST DUP3 ADD SWAP2 SWAP1 PUSH0 MSTORE PUSH1 0x20 PUSH0 KECCAK256 SWAP1 JUMPDEST DUP2 SLOAD DUP2 MSTORE SWAP1 PUSH1 0x1 ADD SWAP1 PUSH1 0x20 ADD DUP1 DUP4 GT PUSH2 0x1CF JUMPI DUP3 SWAP1 SUB PUSH1 0x1F AND DUP3 ADD SWAP2 JUMPDEST POP POP POP POP POP SWAP1 POP SWAP1 JUMP JUMPDEST PUSH1 0x5 PUSH0 SWAP1 SLOAD SWAP1 PUSH2 0x100 EXP SWAP1 DIV PUSH20 0xFFFFFFFFFFFFFFFFFFFFFFFFFFFFFFFFFFFFFFFF AND DUP2 JUMP JUMPDEST PUSH1 0x2 SLOAD DUP2 JUMP JUMPDEST PUSH1 0x3 PUSH0 SWAP1 SLOAD SWAP1 PUSH2 0x100 EXP SWAP1 DIV PUSH0 SIGNEXTEND DUP2 JUMP JUMPDEST PUSH1 0x4 SLOAD DUP2 JUMP JUMPDEST PUSH1 0x1 SLOAD DUP2 JUMP JUMPDEST PUSH0 PUSH32 0xFF00000000000000000000000000000000000000000000000000000000000000 DUP3 AND SWAP1 POP SWAP2 SWAP1 POP JUMP JUMPDEST PUSH2 0x272 DUP2 PUSH2 0x23E JUMP JUMPDEST DUP3 MSTORE POP POP JUMP JUMPDEST PUSH0 PUSH1 0x20 DUP3 ADD SWAP1 POP PUSH2 0x28B PUSH0 DUP4 ADD DUP5 PUSH2 0x269 JUMP JUMPDEST SWAP3 SWAP2 POP POP JUMP JUMPDEST PUSH0 DUP2 MLOAD SWAP1 POP SWAP2 SWAP1 POP JUMP JUMPDEST PUSH0 DUP3 DUP3 MSTORE PUSH1 0x20 DUP3 ADD SWAP1 POP SWAP3 SWAP2 POP POP JUMP JUMPDEST PUSH0 JUMPDEST DUP4 DUP2 LT ISZERO PUSH2 0x2C8 JUMPI DUP1 DUP3 ADD MLOAD DUP2 DUP5 ADD MSTORE PUSH1 0x20 DUP2 ADD SWAP1 POP PUSH2 0x2AD JUMP JUMPDEST PUSH0 DUP5 DUP5 ADD MSTORE POP POP POP POP JUMP JUMPDEST PUSH0 PUSH1 0x1F NOT PUSH1 0x1F DUP4 ADD AND SWAP1 POP SWAP2 SWAP1 POP JUMP JUMPDEST PUSH0 PUSH2 0x2ED DUP3 PUSH2 0x291 JUMP JUMPDEST PUSH2 0x2F7 DUP2 DUP6 PUSH2 0x29B JUMP JUMPDEST SWAP4 POP PUSH2 0x307 DUP2 DUP6 PUSH1 0x20 DUP7 ADD PUSH2 0x2AB JUMP JUMPDEST PUSH2 0x310 DUP2 PUSH2 0x2D3 JUMP JUMPDEST DUP5 ADD SWAP2 POP POP SWAP3 SWAP2 POP POP JUMP JUMPDEST PUSH0 PUSH1 0x20 DUP3 ADD SWAP1 POP DUP2 DUP2 SUB PUSH0 DUP4 ADD MSTORE PUSH2 0x333 DUP2 DUP5 PUSH2 0x2E3 JUMP JUMPDEST SWAP1 POP SWAP3 SWAP2 POP POP JUMP JUMPDEST PUSH0 PUSH20 0xFFFFFFFFFFFFFFFFFFFFFFFFFFFFFFFFFFFFFFFF DUP3 AND SWAP1 POP SWAP2 SWAP1 POP JUMP JUMPDEST PUSH0 PUSH2 0x364 DUP3 PUSH2 0x33B JUMP JUMPDEST SWAP1 POP SWAP2 SWAP1 POP JUMP JUMPDEST PUSH2 0x374 DUP2 PUSH2 0x35A JUMP JUMPDEST DUP3 MSTORE POP POP JUMP JUMPDEST PUSH0 PUSH1 0x20 DUP3 ADD SWAP1 POP PUSH2 0x38D PUSH0 DUP4 ADD DUP5 PUSH2 0x36B JUMP JUMPDEST SWAP3 SWAP2 POP POP JUMP JUMPDEST PUSH0 DUP2 SWAP1 POP SWAP2 SWAP1 POP JUMP JUMPDEST PUSH2 0x3A5 DUP2 PUSH2 0x393 JUMP JUMPDEST DUP3 MSTORE POP POP JUMP JUMPDEST PUSH0 PUSH1 0x20 DUP3 ADD SWAP1 POP PUSH2 0x3BE PUSH0 DUP4 ADD DUP5 PUSH2 0x39C JUMP JUMPDEST SWAP3 SWAP2 POP POP JUMP JUMPDEST PUSH0 DUP2 PUSH0 SIGNEXTEND SWAP1 POP SWAP2 SWAP1 POP JUMP JUMPDEST PUSH2 0x3D8 DUP2 PUSH2 0x3C4 JUMP JUMPDEST DUP3 MSTORE POP POP JUMP JUMPDEST PUSH0 PUSH1 0x20 DUP3 ADD SWAP1 POP PUSH2 0x3F1 PUSH0 DUP4 ADD DUP5 PUSH2 0x3CF JUMP JUMPDEST SWAP3 SWAP2 POP POP JUMP JUMPDEST PUSH0 DUP2 SWAP1 POP SWAP2 SWAP1 POP JUMP JUMPDEST PUSH2 0x409 DUP2 PUSH2 0x3F7 JUMP JUMPDEST DUP3 MSTORE POP POP JUMP JUMPDEST PUSH0 PUSH1 0x20 DUP3 ADD SWAP1 POP PUSH2 0x422 PUSH0 DUP4 ADD DUP5 PUSH2 0x400 JUMP JUMPDEST SWAP3 SWAP2 POP POP JUMP JUMPDEST PUSH32 0x4E487B7100000000000000000000000000000000000000000000000000000000 PUSH0 MSTORE PUSH1 0x22 PUSH1 0x4 MSTORE PUSH1 0x24 PUSH0 REVERT JUMPDEST PUSH0 PUSH1 0x2 DUP3 DIV SWAP1 POP PUSH1 0x1 DUP3 AND DUP1 PUSH2 0x46C JUMPI PUSH1 0x7F DUP3 AND SWAP2 POP JUMPDEST PUSH1 0x20 DUP3 LT DUP2 SUB PUSH2 0x47F JUMPI PUSH2 0x47E PUSH2 0x428 JUMP JUMPDEST JUMPDEST POP SWAP2 SWAP1 POP JUMP INVALID LOG2 PUSH5 0x6970667358 0x22 SLT KECCAK256 PUSH11 0x6880341C1275467B18FF0 0xEA CHAINID SLT SIGNEXTEND PUSH16 0xF5F0ECE78B5E8DB4D4EEE06A2C162B64 PUSH20 0x6F6C634300081800330000000000000000000000 "
				},
				"gasEstimates": {
					"creation": {
						"codeDepositCost": "242200",
						"executionCost": "infinite",
						"totalCost": "infinite"
					},
					"external": {
						"address_var()": "2553",
						"getBytes()": "2525",
						"getName()": "infinite",
						"int_256()": "2469",
						"int_8()": "2490",
						"uint_256()": "2425",
						"uint_8()": "2491"
					}
				},
				"methodIdentifiers": {
					"address_var()": "38304639",
					"getBytes()": "0bcd3b33",
					"getName()": "17d7de7c",
					"int_256()": "f7ae9171",
					"int_8()": "df77a62e",
					"uint_256()": "ce410d53",
					"uint_8()": "f950fc6d"
				}
			},
			"storageLayout": {
				"storage": [
					{
						"astId": 3,
						"contract": "VariableNativas.sol:VariableNativas",
						"label": "fullName",
						"offset": 0,
						"slot": "0",
						"type": "t_string_storage"
					},
					{
						"astId": 30,
						"contract": "VariableNativas.sol:VariableNativas",
						"label": "uint_8",
						"offset": 0,
						"slot": "1",
						"type": "t_uint256"
					},
					{
						"astId": 33,
						"contract": "VariableNativas.sol:VariableNativas",
						"label": "uint_256",
						"offset": 0,
						"slot": "2",
						"type": "t_uint256"
					},
					{
						"astId": 37,
						"contract": "VariableNativas.sol:VariableNativas",
						"label": "int_8",
						"offset": 0,
						"slot": "3",
						"type": "t_int8"
					},
					{
						"astId": 40,
						"contract": "VariableNativas.sol:VariableNativas",
						"label": "int_256",
						"offset": 0,
						"slot": "4",
						"type": "t_int256"
					},
					{
						"astId": 43,
						"contract": "VariableNativas.sol:VariableNativas",
						"label": "address_var",
						"offset": 0,
						"slot": "5",
						"type": "t_address"
					},
					{
						"astId": 46,
						"contract": "VariableNativas.sol:VariableNativas",
						"label": "a_var",
						"offset": 20,
						"slot": "5",
						"type": "t_bytes1"
					},
					{
						"astId": 49,
						"contract": "VariableNativas.sol:VariableNativas",
						"label": "b_var",
						"offset": 21,
						"slot": "5",
						"type": "t_bytes1"
					},
					{
						"astId": 51,
						"contract": "VariableNativas.sol:VariableNativas",
						"label": "c_var",
						"offset": 22,
						"slot": "5",
						"type": "t_bytes1"
					}
				],
				"types": {
					"t_address": {
						"encoding": "inplace",
						"label": "address",
						"numberOfBytes": "20"
					},
					"t_bytes1": {
						"encoding": "inplace",
						"label": "bytes1",
						"numberOfBytes": "1"
					},
					"t_int256": {
						"encoding": "inplace",
						"label": "int256",
						"numberOfBytes": "32"
					},
					"t_int8": {
						"encoding": "inplace",
						"label": "int8",
						"numberOfBytes": "1"
					},
					"t_string_storage": {
						"encoding": "bytes",
						"label": "string",
						"numberOfBytes": "32"
					},
					"t_uint256": {
						"encoding": "inplace",
						"label": "uint256",
						"numberOfBytes": "32"
					}
				}
			},
			"userdoc": {
				"kind": "user",
				"methods": {},
				"version": 1
			}
		}
	}
}