{
	"data": {
		"bytecode": {
			"linkReferences": {},
			"object": "608060405234801562000010575f80fd5b5060405162001479380380620014798339818101604052810190620000369190620000dc565b816003819055508060028190555080426200005291906200014e565b6002819055503360015f6101000a81548173ffffffffffffffffffffffffffffffffffffffff021916908373ffffffffffffffffffffffffffffffffffffffff160217905550505062000188565b5f80fd5b5f819050919050565b620000b881620000a4565b8114620000c3575f80fd5b50565b5f81519050620000d681620000ad565b92915050565b5f8060408385031215620000f557620000f4620000a0565b5b5f6200010485828601620000c6565b92505060206200011785828601620000c6565b9150509250929050565b7f4e487b71000000000000000000000000000000000000000000000000000000005f52601160045260245ffd5b5f6200015a82620000a4565b91506200016783620000a4565b925082820190508082111562000182576200018162000121565b5b92915050565b6112e380620001965f395ff3fe6080604052600436106100a6575f3560e01c8063590e1ae311610063578063590e1ae3146101b657806387a316dc146101cc5780638d68cf59146101f6578063953b8fb814610200578063c1597b331461022a578063d845a4b314610252576100a6565b806312065fe0146100aa5780631b16bb5c146100d457806329dcb0cf146100fc5780634034a5391461012657806341a67b6f14610162578063481c6a751461018c575b5f80fd5b3480156100b5575f80fd5b506100be610291565b6040516100cb91906108ab565b60405180910390f35b3480156100df575f80fd5b506100fa60048036038101906100f59190610a95565b610298565b005b348015610107575f80fd5b506101106103d1565b60405161011d91906108ab565b60405180910390f35b348015610131575f80fd5b5061014c60048036038101906101479190610b3c565b6103d7565b60405161015991906108ab565b60405180910390f35b34801561016d575f80fd5b506101766103eb565b60405161018391906108ab565b60405180910390f35b348015610197575f80fd5b506101a06103f1565b6040516101ad9190610b76565b60405180910390f35b3480156101c1575f80fd5b506101ca610416565b005b3480156101d7575f80fd5b506101e061052f565b6040516101ed91906108ab565b60405180910390f35b6101fe610535565b005b34801561020b575f80fd5b506102146105e5565b60405161022191906108ab565b60405180910390f35b348015610235575f80fd5b50610250600480360381019061024b9190610b8f565b6105eb565b005b34801561025d575f80fd5b5061027860048036038101906102739190610b8f565b6107b6565b6040516102889493929190610c5d565b60405180910390f35b5f47905090565b60015f9054906101000a900473ffffffffffffffffffffffffffffffffffffffff1673ffffffffffffffffffffffffffffffffffffffff163373ffffffffffffffffffffffffffffffffffffffff1614610327576040517f08c379a000000000000000000000000000000000000000000000000000000000815260040161031e90610d17565b60405180910390fd5b5f60055f60065481526020019081526020015f20905060065f81548092919061034f90610d62565b919050555083815f0190816103649190610fa3565b5082816001015f6101000a81548173ffffffffffffffffffffffffffffffffffffffff021916908373ffffffffffffffffffffffffffffffffffffffff1602179055508181600201819055505f816003015f6101000a81548160ff02191690831515021790555050505050565b60025481565b5f602052805f5260405f205f915090505481565b60065481565b60015f9054906101000a900473ffffffffffffffffffffffffffffffffffffffff1681565b6002544210801561042a5750600354600454105b610469576040517f08c379a0000000000000000000000000000000000000000000000000000000008152600401610460906110bc565b60405180910390fd5b5f805f3373ffffffffffffffffffffffffffffffffffffffff1673ffffffffffffffffffffffffffffffffffffffff1681526020019081526020015f205490505f81116104eb576040517f08c379a00000000000000000000000000000000000000000000000000000000081526004016104e290611124565b60405180910390fd5b5f805f3373ffffffffffffffffffffffffffffffffffffffff1673ffffffffffffffffffffffffffffffffffffffff1681526020019081526020015f208190555050565b60045481565b6002544210610579576040517f08c379a00000000000000000000000000000000000000000000000000000000081526004016105709061118c565b60405180910390fd5b345f803373ffffffffffffffffffffffffffffffffffffffff1673ffffffffffffffffffffffffffffffffffffffff1681526020019081526020015f205f8282546105c491906111aa565b925050819055503460045f8282546105dc91906111aa565b92505081905550565b60035481565b60015f9054906101000a900473ffffffffffffffffffffffffffffffffffffffff1673ffffffffffffffffffffffffffffffffffffffff163373ffffffffffffffffffffffffffffffffffffffff161461067a576040517f08c379a000000000000000000000000000000000000000000000000000000000815260040161067190610d17565b60405180910390fd5b60035460045410156106c1576040517f08c379a00000000000000000000000000000000000000000000000000000000081526004016106b890611227565b60405180910390fd5b5f60055f8381526020019081526020015f2090505f1515816003015f9054906101000a900460ff1615151461072b576040517f08c379a00000000000000000000000000000000000000000000000000000000081526004016107229061128f565b60405180910390fd5b806001015f9054906101000a900473ffffffffffffffffffffffffffffffffffffffff1673ffffffffffffffffffffffffffffffffffffffff166108fc826002015490811502906040515f60405180830381858888f19350505050158015610795573d5f803e3d5ffd5b506001816003015f6101000a81548160ff0219169083151502179055505050565b6005602052805f5260405f205f91509050805f0180546107d590610dd6565b80601f016020809104026020016040519081016040528092919081815260200182805461080190610dd6565b801561084c5780601f106108235761010080835404028352916020019161084c565b820191905f5260205f20905b81548152906001019060200180831161082f57829003601f168201915b505050505090806001015f9054906101000a900473ffffffffffffffffffffffffffffffffffffffff1690806002015490806003015f9054906101000a900460ff16905084565b5f819050919050565b6108a581610893565b82525050565b5f6020820190506108be5f83018461089c565b92915050565b5f604051905090565b5f80fd5b5f80fd5b5f80fd5b5f80fd5b5f601f19601f8301169050919050565b7f4e487b71000000000000000000000000000000000000000000000000000000005f52604160045260245ffd5b610923826108dd565b810181811067ffffffffffffffff82111715610942576109416108ed565b5b80604052505050565b5f6109546108c4565b9050610960828261091a565b919050565b5f67ffffffffffffffff82111561097f5761097e6108ed565b5b610988826108dd565b9050602081019050919050565b828183375f83830152505050565b5f6109b56109b084610965565b61094b565b9050828152602081018484840111156109d1576109d06108d9565b5b6109dc848285610995565b509392505050565b5f82601f8301126109f8576109f76108d5565b5b8135610a088482602086016109a3565b91505092915050565b5f73ffffffffffffffffffffffffffffffffffffffff82169050919050565b5f610a3a82610a11565b9050919050565b610a4a81610a30565b8114610a54575f80fd5b50565b5f81359050610a6581610a41565b92915050565b610a7481610893565b8114610a7e575f80fd5b50565b5f81359050610a8f81610a6b565b92915050565b5f805f60608486031215610aac57610aab6108cd565b5b5f84013567ffffffffffffffff811115610ac957610ac86108d1565b5b610ad5868287016109e4565b9350506020610ae686828701610a57565b9250506040610af786828701610a81565b9150509250925092565b5f610b0b82610a11565b9050919050565b610b1b81610b01565b8114610b25575f80fd5b50565b5f81359050610b3681610b12565b92915050565b5f60208284031215610b5157610b506108cd565b5b5f610b5e84828501610b28565b91505092915050565b610b7081610b01565b82525050565b5f602082019050610b895f830184610b67565b92915050565b5f60208284031215610ba457610ba36108cd565b5b5f610bb184828501610a81565b91505092915050565b5f81519050919050565b5f82825260208201905092915050565b5f5b83811015610bf1578082015181840152602081019050610bd6565b5f8484015250505050565b5f610c0682610bba565b610c108185610bc4565b9350610c20818560208601610bd4565b610c29816108dd565b840191505092915050565b610c3d81610a30565b82525050565b5f8115159050919050565b610c5781610c43565b82525050565b5f6080820190508181035f830152610c758187610bfc565b9050610c846020830186610c34565b610c91604083018561089c565b610c9e6060830184610c4e565b95945050505050565b7f536f6c6f20656c2061646d696e6973747261646f722064656c20636f6e7472615f8201527f746f207075656465207265746f726172206c6f7320666f6e646f730000000000602082015250565b5f610d01603b83610bc4565b9150610d0c82610ca7565b604082019050919050565b5f6020820190508181035f830152610d2e81610cf5565b9050919050565b7f4e487b71000000000000000000000000000000000000000000000000000000005f52601160045260245ffd5b5f610d6c82610893565b91507fffffffffffffffffffffffffffffffffffffffffffffffffffffffffffffffff8203610d9e57610d9d610d35565b5b600182019050919050565b7f4e487b71000000000000000000000000000000000000000000000000000000005f52602260045260245ffd5b5f6002820490506001821680610ded57607f821691505b602082108103610e0057610dff610da9565b5b50919050565b5f819050815f5260205f209050919050565b5f6020601f8301049050919050565b5f82821b905092915050565b5f60088302610e627fffffffffffffffffffffffffffffffffffffffffffffffffffffffffffffffff82610e27565b610e6c8683610e27565b95508019841693508086168417925050509392505050565b5f819050919050565b5f610ea7610ea2610e9d84610893565b610e84565b610893565b9050919050565b5f819050919050565b610ec083610e8d565b610ed4610ecc82610eae565b848454610e33565b825550505050565b5f90565b610ee8610edc565b610ef3818484610eb7565b505050565b5b81811015610f1657610f0b5f82610ee0565b600181019050610ef9565b5050565b601f821115610f5b57610f2c81610e06565b610f3584610e18565b81016020851015610f44578190505b610f58610f5085610e18565b830182610ef8565b50505b505050565b5f82821c905092915050565b5f610f7b5f1984600802610f60565b1980831691505092915050565b5f610f938383610f6c565b9150826002028217905092915050565b610fac82610bba565b67ffffffffffffffff811115610fc557610fc46108ed565b5b610fcf8254610dd6565b610fda828285610f1a565b5f60209050601f83116001811461100b575f8415610ff9578287015190505b6110038582610f88565b86555061106a565b601f19841661101986610e06565b5f5b828110156110405784890151825560018201915060208501945060208101905061101b565b8683101561105d5784890151611059601f891682610f6c565b8355505b6001600288020188555050505b505050505050565b7f6e6f2073652063756d706c696f20656c206f626a657469766f000000000000005f82015250565b5f6110a6601983610bc4565b91506110b182611072565b602082019050919050565b5f6020820190508181035f8301526110d38161109a565b9050919050565b7f4e6f20707573697374652070617261206c6120766163610000000000000000005f82015250565b5f61110e601783610bc4565b9150611119826110da565b602082019050919050565b5f6020820190508181035f83015261113b81611102565b9050919050565b7f5465726d696e6f20656c20646561646c696e65000000000000000000000000005f82015250565b5f611176601383610bc4565b915061118182611142565b602082019050919050565b5f6020820190508181035f8301526111a38161116a565b9050919050565b5f6111b482610893565b91506111bf83610893565b92508282019050808211156111d7576111d6610d35565b5b92915050565b7f4e6f2073652063756d706c696f206c61206d65746100000000000000000000005f82015250565b5f611211601583610bc4565b915061121c826111dd565b602082019050919050565b5f6020820190508181035f83015261123e81611205565b9050919050565b7f45737461207065746963696f6e206e6f2066756520636f6d706c6574616461005f82015250565b5f611279601f83610bc4565b915061128482611245565b602082019050919050565b5f6020820190508181035f8301526112a68161126d565b905091905056fea26469706673582212209d35e313ca6e28fbab712dc609a2ab7d1fe90bee1d39aefedf7d878a47c38e8a64736f6c63430008180033",
			"opcodes": "PUSH1 0x80 PUSH1 0x40 MSTORE CALLVALUE DUP1 ISZERO PUSH3 0x10 JUMPI PUSH0 DUP1 REVERT JUMPDEST POP PUSH1 0x40 MLOAD PUSH3 0x1479 CODESIZE SUB DUP1 PUSH3 0x1479 DUP4 CODECOPY DUP2 DUP2 ADD PUSH1 0x40 MSTORE DUP2 ADD SWAP1 PUSH3 0x36 SWAP2 SWAP1 PUSH3 0xDC JUMP JUMPDEST DUP2 PUSH1 0x3 DUP2 SWAP1 SSTORE POP DUP1 PUSH1 0x2 DUP2 SWAP1 SSTORE POP DUP1 TIMESTAMP PUSH3 0x52 SWAP2 SWAP1 PUSH3 0x14E JUMP JUMPDEST PUSH1 0x2 DUP2 SWAP1 SSTORE POP CALLER PUSH1 0x1 PUSH0 PUSH2 0x100 EXP DUP2 SLOAD DUP2 PUSH20 0xFFFFFFFFFFFFFFFFFFFFFFFFFFFFFFFFFFFFFFFF MUL NOT AND SWAP1 DUP4 PUSH20 0xFFFFFFFFFFFFFFFFFFFFFFFFFFFFFFFFFFFFFFFF AND MUL OR SWAP1 SSTORE POP POP POP PUSH3 0x188 JUMP JUMPDEST PUSH0 DUP1 REVERT JUMPDEST PUSH0 DUP2 SWAP1 POP SWAP2 SWAP1 POP JUMP JUMPDEST PUSH3 0xB8 DUP2 PUSH3 0xA4 JUMP JUMPDEST DUP2 EQ PUSH3 0xC3 JUMPI PUSH0 DUP1 REVERT JUMPDEST POP JUMP JUMPDEST PUSH0 DUP2 MLOAD SWAP1 POP PUSH3 0xD6 DUP2 PUSH3 0xAD JUMP JUMPDEST SWAP3 SWAP2 POP POP JUMP JUMPDEST PUSH0 DUP1 PUSH1 0x40 DUP4 DUP6 SUB SLT ISZERO PUSH3 0xF5 JUMPI PUSH3 0xF4 PUSH3 0xA0 JUMP JUMPDEST JUMPDEST PUSH0 PUSH3 0x104 DUP6 DUP3 DUP7 ADD PUSH3 0xC6 JUMP JUMPDEST SWAP3 POP POP PUSH1 0x20 PUSH3 0x117 DUP6 DUP3 DUP7 ADD PUSH3 0xC6 JUMP JUMPDEST SWAP2 POP POP SWAP3 POP SWAP3 SWAP1 POP JUMP JUMPDEST PUSH32 0x4E487B7100000000000000000000000000000000000000000000000000000000 PUSH0 MSTORE PUSH1 0x11 PUSH1 0x4 MSTORE PUSH1 0x24 PUSH0 REVERT JUMPDEST PUSH0 PUSH3 0x15A DUP3 PUSH3 0xA4 JUMP JUMPDEST SWAP2 POP PUSH3 0x167 DUP4 PUSH3 0xA4 JUMP JUMPDEST SWAP3 POP DUP3 DUP3 ADD SWAP1 POP DUP1 DUP3 GT ISZERO PUSH3 0x182 JUMPI PUSH3 0x181 PUSH3 0x121 JUMP JUMPDEST JUMPDEST SWAP3 SWAP2 POP POP JUMP JUMPDEST PUSH2 0x12E3 DUP1 PUSH3 0x196 PUSH0 CODECOPY PUSH0 RETURN INVALID PUSH1 0x80 PUSH1 0x40 MSTORE PUSH1 0x4 CALLDATASIZE LT PUSH2 0xA6 JUMPI PUSH0 CALLDATALOAD PUSH1 0xE0 SHR DUP1 PUSH4 0x590E1AE3 GT PUSH2 0x63 JUMPI DUP1 PUSH4 0x590E1AE3 EQ PUSH2 0x1B6 JUMPI DUP1 PUSH4 0x87A316DC EQ PUSH2 0x1CC JUMPI DUP1 PUSH4 0x8D68CF59 EQ PUSH2 0x1F6 JUMPI DUP1 PUSH4 0x953B8FB8 EQ PUSH2 0x200 JUMPI DUP1 PUSH4 0xC1597B33 EQ PUSH2 0x22A JUMPI DUP1 PUSH4 0xD845A4B3 EQ PUSH2 0x252 JUMPI PUSH2 0xA6 JUMP JUMPDEST DUP1 PUSH4 0x12065FE0 EQ PUSH2 0xAA JUMPI DUP1 PUSH4 0x1B16BB5C EQ PUSH2 0xD4 JUMPI DUP1 PUSH4 0x29DCB0CF EQ PUSH2 0xFC JUMPI DUP1 PUSH4 0x4034A539 EQ PUSH2 0x126 JUMPI DUP1 PUSH4 0x41A67B6F EQ PUSH2 0x162 JUMPI DUP1 PUSH4 0x481C6A75 EQ PUSH2 0x18C JUMPI JUMPDEST PUSH0 DUP1 REVERT JUMPDEST CALLVALUE DUP1 ISZERO PUSH2 0xB5 JUMPI PUSH0 DUP1 REVERT JUMPDEST POP PUSH2 0xBE PUSH2 0x291 JUMP JUMPDEST PUSH1 0x40 MLOAD PUSH2 0xCB SWAP2 SWAP1 PUSH2 0x8AB JUMP JUMPDEST PUSH1 0x40 MLOAD DUP1 SWAP2 SUB SWAP1 RETURN JUMPDEST CALLVALUE DUP1 ISZERO PUSH2 0xDF JUMPI PUSH0 DUP1 REVERT JUMPDEST POP PUSH2 0xFA PUSH1 0x4 DUP1 CALLDATASIZE SUB DUP2 ADD SWAP1 PUSH2 0xF5 SWAP2 SWAP1 PUSH2 0xA95 JUMP JUMPDEST PUSH2 0x298 JUMP JUMPDEST STOP JUMPDEST CALLVALUE DUP1 ISZERO PUSH2 0x107 JUMPI PUSH0 DUP1 REVERT JUMPDEST POP PUSH2 0x110 PUSH2 0x3D1 JUMP JUMPDEST PUSH1 0x40 MLOAD PUSH2 0x11D SWAP2 SWAP1 PUSH2 0x8AB JUMP JUMPDEST PUSH1 0x40 MLOAD DUP1 SWAP2 SUB SWAP1 RETURN JUMPDEST CALLVALUE DUP1 ISZERO PUSH2 0x131 JUMPI PUSH0 DUP1 REVERT JUMPDEST POP PUSH2 0x14C PUSH1 0x4 DUP1 CALLDATASIZE SUB DUP2 ADD SWAP1 PUSH2 0x147 SWAP2 SWAP1 PUSH2 0xB3C JUMP JUMPDEST PUSH2 0x3D7 JUMP JUMPDEST PUSH1 0x40 MLOAD PUSH2 0x159 SWAP2 SWAP1 PUSH2 0x8AB JUMP JUMPDEST PUSH1 0x40 MLOAD DUP1 SWAP2 SUB SWAP1 RETURN JUMPDEST CALLVALUE DUP1 ISZERO PUSH2 0x16D JUMPI PUSH0 DUP1 REVERT JUMPDEST POP PUSH2 0x176 PUSH2 0x3EB JUMP JUMPDEST PUSH1 0x40 MLOAD PUSH2 0x183 SWAP2 SWAP1 PUSH2 0x8AB JUMP JUMPDEST PUSH1 0x40 MLOAD DUP1 SWAP2 SUB SWAP1 RETURN JUMPDEST CALLVALUE DUP1 ISZERO PUSH2 0x197 JUMPI PUSH0 DUP1 REVERT JUMPDEST POP PUSH2 0x1A0 PUSH2 0x3F1 JUMP JUMPDEST PUSH1 0x40 MLOAD PUSH2 0x1AD SWAP2 SWAP1 PUSH2 0xB76 JUMP JUMPDEST PUSH1 0x40 MLOAD DUP1 SWAP2 SUB SWAP1 RETURN JUMPDEST CALLVALUE DUP1 ISZERO PUSH2 0x1C1 JUMPI PUSH0 DUP1 REVERT JUMPDEST POP PUSH2 0x1CA PUSH2 0x416 JUMP JUMPDEST STOP JUMPDEST CALLVALUE DUP1 ISZERO PUSH2 0x1D7 JUMPI PUSH0 DUP1 REVERT JUMPDEST POP PUSH2 0x1E0 PUSH2 0x52F JUMP JUMPDEST PUSH1 0x40 MLOAD PUSH2 0x1ED SWAP2 SWAP1 PUSH2 0x8AB JUMP JUMPDEST PUSH1 0x40 MLOAD DUP1 SWAP2 SUB SWAP1 RETURN JUMPDEST PUSH2 0x1FE PUSH2 0x535 JUMP JUMPDEST STOP JUMPDEST CALLVALUE DUP1 ISZERO PUSH2 0x20B JUMPI PUSH0 DUP1 REVERT JUMPDEST POP PUSH2 0x214 PUSH2 0x5E5 JUMP JUMPDEST PUSH1 0x40 MLOAD PUSH2 0x221 SWAP2 SWAP1 PUSH2 0x8AB JUMP JUMPDEST PUSH1 0x40 MLOAD DUP1 SWAP2 SUB SWAP1 RETURN JUMPDEST CALLVALUE DUP1 ISZERO PUSH2 0x235 JUMPI PUSH0 DUP1 REVERT JUMPDEST POP PUSH2 0x250 PUSH1 0x4 DUP1 CALLDATASIZE SUB DUP2 ADD SWAP1 PUSH2 0x24B SWAP2 SWAP1 PUSH2 0xB8F JUMP JUMPDEST PUSH2 0x5EB JUMP JUMPDEST STOP JUMPDEST CALLVALUE DUP1 ISZERO PUSH2 0x25D JUMPI PUSH0 DUP1 REVERT JUMPDEST POP PUSH2 0x278 PUSH1 0x4 DUP1 CALLDATASIZE SUB DUP2 ADD SWAP1 PUSH2 0x273 SWAP2 SWAP1 PUSH2 0xB8F JUMP JUMPDEST PUSH2 0x7B6 JUMP JUMPDEST PUSH1 0x40 MLOAD PUSH2 0x288 SWAP5 SWAP4 SWAP3 SWAP2 SWAP1 PUSH2 0xC5D JUMP JUMPDEST PUSH1 0x40 MLOAD DUP1 SWAP2 SUB SWAP1 RETURN JUMPDEST PUSH0 SELFBALANCE SWAP1 POP SWAP1 JUMP JUMPDEST PUSH1 0x1 PUSH0 SWAP1 SLOAD SWAP1 PUSH2 0x100 EXP SWAP1 DIV PUSH20 0xFFFFFFFFFFFFFFFFFFFFFFFFFFFFFFFFFFFFFFFF AND PUSH20 0xFFFFFFFFFFFFFFFFFFFFFFFFFFFFFFFFFFFFFFFF AND CALLER PUSH20 0xFFFFFFFFFFFFFFFFFFFFFFFFFFFFFFFFFFFFFFFF AND EQ PUSH2 0x327 JUMPI PUSH1 0x40 MLOAD PUSH32 0x8C379A000000000000000000000000000000000000000000000000000000000 DUP2 MSTORE PUSH1 0x4 ADD PUSH2 0x31E SWAP1 PUSH2 0xD17 JUMP JUMPDEST PUSH1 0x40 MLOAD DUP1 SWAP2 SUB SWAP1 REVERT JUMPDEST PUSH0 PUSH1 0x5 PUSH0 PUSH1 0x6 SLOAD DUP2 MSTORE PUSH1 0x20 ADD SWAP1 DUP2 MSTORE PUSH1 0x20 ADD PUSH0 KECCAK256 SWAP1 POP PUSH1 0x6 PUSH0 DUP2 SLOAD DUP1 SWAP3 SWAP2 SWAP1 PUSH2 0x34F SWAP1 PUSH2 0xD62 JUMP JUMPDEST SWAP2 SWAP1 POP SSTORE POP DUP4 DUP2 PUSH0 ADD SWAP1 DUP2 PUSH2 0x364 SWAP2 SWAP1 PUSH2 0xFA3 JUMP JUMPDEST POP DUP3 DUP2 PUSH1 0x1 ADD PUSH0 PUSH2 0x100 EXP DUP2 SLOAD DUP2 PUSH20 0xFFFFFFFFFFFFFFFFFFFFFFFFFFFFFFFFFFFFFFFF MUL NOT AND SWAP1 DUP4 PUSH20 0xFFFFFFFFFFFFFFFFFFFFFFFFFFFFFFFFFFFFFFFF AND MUL OR SWAP1 SSTORE POP DUP2 DUP2 PUSH1 0x2 ADD DUP2 SWAP1 SSTORE POP PUSH0 DUP2 PUSH1 0x3 ADD PUSH0 PUSH2 0x100 EXP DUP2 SLOAD DUP2 PUSH1 0xFF MUL NOT AND SWAP1 DUP4 ISZERO ISZERO MUL OR SWAP1 SSTORE POP POP POP POP POP JUMP JUMPDEST PUSH1 0x2 SLOAD DUP2 JUMP JUMPDEST PUSH0 PUSH1 0x20 MSTORE DUP1 PUSH0 MSTORE PUSH1 0x40 PUSH0 KECCAK256 PUSH0 SWAP2 POP SWAP1 POP SLOAD DUP2 JUMP JUMPDEST PUSH1 0x6 SLOAD DUP2 JUMP JUMPDEST PUSH1 0x1 PUSH0 SWAP1 SLOAD SWAP1 PUSH2 0x100 EXP SWAP1 DIV PUSH20 0xFFFFFFFFFFFFFFFFFFFFFFFFFFFFFFFFFFFFFFFF AND DUP2 JUMP JUMPDEST PUSH1 0x2 SLOAD TIMESTAMP LT DUP1 ISZERO PUSH2 0x42A JUMPI POP PUSH1 0x3 SLOAD PUSH1 0x4 SLOAD LT JUMPDEST PUSH2 0x469 JUMPI PUSH1 0x40 MLOAD PUSH32 0x8C379A000000000000000000000000000000000000000000000000000000000 DUP2 MSTORE PUSH1 0x4 ADD PUSH2 0x460 SWAP1 PUSH2 0x10BC JUMP JUMPDEST PUSH1 0x40 MLOAD DUP1 SWAP2 SUB SWAP1 REVERT JUMPDEST PUSH0 DUP1 PUSH0 CALLER PUSH20 0xFFFFFFFFFFFFFFFFFFFFFFFFFFFFFFFFFFFFFFFF AND PUSH20 0xFFFFFFFFFFFFFFFFFFFFFFFFFFFFFFFFFFFFFFFF AND DUP2 MSTORE PUSH1 0x20 ADD SWAP1 DUP2 MSTORE PUSH1 0x20 ADD PUSH0 KECCAK256 SLOAD SWAP1 POP PUSH0 DUP2 GT PUSH2 0x4EB JUMPI PUSH1 0x40 MLOAD PUSH32 0x8C379A000000000000000000000000000000000000000000000000000000000 DUP2 MSTORE PUSH1 0x4 ADD PUSH2 0x4E2 SWAP1 PUSH2 0x1124 JUMP JUMPDEST PUSH1 0x40 MLOAD DUP1 SWAP2 SUB SWAP1 REVERT JUMPDEST PUSH0 DUP1 PUSH0 CALLER PUSH20 0xFFFFFFFFFFFFFFFFFFFFFFFFFFFFFFFFFFFFFFFF AND PUSH20 0xFFFFFFFFFFFFFFFFFFFFFFFFFFFFFFFFFFFFFFFF AND DUP2 MSTORE PUSH1 0x20 ADD SWAP1 DUP2 MSTORE PUSH1 0x20 ADD PUSH0 KECCAK256 DUP2 SWAP1 SSTORE POP POP JUMP JUMPDEST PUSH1 0x4 SLOAD DUP2 JUMP JUMPDEST PUSH1 0x2 SLOAD TIMESTAMP LT PUSH2 0x579 JUMPI PUSH1 0x40 MLOAD PUSH32 0x8C379A000000000000000000000000000000000000000000000000000000000 DUP2 MSTORE PUSH1 0x4 ADD PUSH2 0x570 SWAP1 PUSH2 0x118C JUMP JUMPDEST PUSH1 0x40 MLOAD DUP1 SWAP2 SUB SWAP1 REVERT JUMPDEST CALLVALUE PUSH0 DUP1 CALLER PUSH20 0xFFFFFFFFFFFFFFFFFFFFFFFFFFFFFFFFFFFFFFFF AND PUSH20 0xFFFFFFFFFFFFFFFFFFFFFFFFFFFFFFFFFFFFFFFF AND DUP2 MSTORE PUSH1 0x20 ADD SWAP1 DUP2 MSTORE PUSH1 0x20 ADD PUSH0 KECCAK256 PUSH0 DUP3 DUP3 SLOAD PUSH2 0x5C4 SWAP2 SWAP1 PUSH2 0x11AA JUMP JUMPDEST SWAP3 POP POP DUP2 SWAP1 SSTORE POP CALLVALUE PUSH1 0x4 PUSH0 DUP3 DUP3 SLOAD PUSH2 0x5DC SWAP2 SWAP1 PUSH2 0x11AA JUMP JUMPDEST SWAP3 POP POP DUP2 SWAP1 SSTORE POP JUMP JUMPDEST PUSH1 0x3 SLOAD DUP2 JUMP JUMPDEST PUSH1 0x1 PUSH0 SWAP1 SLOAD SWAP1 PUSH2 0x100 EXP SWAP1 DIV PUSH20 0xFFFFFFFFFFFFFFFFFFFFFFFFFFFFFFFFFFFFFFFF AND PUSH20 0xFFFFFFFFFFFFFFFFFFFFFFFFFFFFFFFFFFFFFFFF AND CALLER PUSH20 0xFFFFFFFFFFFFFFFFFFFFFFFFFFFFFFFFFFFFFFFF AND EQ PUSH2 0x67A JUMPI PUSH1 0x40 MLOAD PUSH32 0x8C379A000000000000000000000000000000000000000000000000000000000 DUP2 MSTORE PUSH1 0x4 ADD PUSH2 0x671 SWAP1 PUSH2 0xD17 JUMP JUMPDEST PUSH1 0x40 MLOAD DUP1 SWAP2 SUB SWAP1 REVERT JUMPDEST PUSH1 0x3 SLOAD PUSH1 0x4 SLOAD LT ISZERO PUSH2 0x6C1 JUMPI PUSH1 0x40 MLOAD PUSH32 0x8C379A000000000000000000000000000000000000000000000000000000000 DUP2 MSTORE PUSH1 0x4 ADD PUSH2 0x6B8 SWAP1 PUSH2 0x1227 JUMP JUMPDEST PUSH1 0x40 MLOAD DUP1 SWAP2 SUB SWAP1 REVERT JUMPDEST PUSH0 PUSH1 0x5 PUSH0 DUP4 DUP2 MSTORE PUSH1 0x20 ADD SWAP1 DUP2 MSTORE PUSH1 0x20 ADD PUSH0 KECCAK256 SWAP1 POP PUSH0 ISZERO ISZERO DUP2 PUSH1 0x3 ADD PUSH0 SWAP1 SLOAD SWAP1 PUSH2 0x100 EXP SWAP1 DIV PUSH1 0xFF AND ISZERO ISZERO EQ PUSH2 0x72B JUMPI PUSH1 0x40 MLOAD PUSH32 0x8C379A000000000000000000000000000000000000000000000000000000000 DUP2 MSTORE PUSH1 0x4 ADD PUSH2 0x722 SWAP1 PUSH2 0x128F JUMP JUMPDEST PUSH1 0x40 MLOAD DUP1 SWAP2 SUB SWAP1 REVERT JUMPDEST DUP1 PUSH1 0x1 ADD PUSH0 SWAP1 SLOAD SWAP1 PUSH2 0x100 EXP SWAP1 DIV PUSH20 0xFFFFFFFFFFFFFFFFFFFFFFFFFFFFFFFFFFFFFFFF AND PUSH20 0xFFFFFFFFFFFFFFFFFFFFFFFFFFFFFFFFFFFFFFFF AND PUSH2 0x8FC DUP3 PUSH1 0x2 ADD SLOAD SWAP1 DUP2 ISZERO MUL SWAP1 PUSH1 0x40 MLOAD PUSH0 PUSH1 0x40 MLOAD DUP1 DUP4 SUB DUP2 DUP6 DUP9 DUP9 CALL SWAP4 POP POP POP POP ISZERO DUP1 ISZERO PUSH2 0x795 JUMPI RETURNDATASIZE PUSH0 DUP1 RETURNDATACOPY RETURNDATASIZE PUSH0 REVERT JUMPDEST POP PUSH1 0x1 DUP2 PUSH1 0x3 ADD PUSH0 PUSH2 0x100 EXP DUP2 SLOAD DUP2 PUSH1 0xFF MUL NOT AND SWAP1 DUP4 ISZERO ISZERO MUL OR SWAP1 SSTORE POP POP POP JUMP JUMPDEST PUSH1 0x5 PUSH1 0x20 MSTORE DUP1 PUSH0 MSTORE PUSH1 0x40 PUSH0 KECCAK256 PUSH0 SWAP2 POP SWAP1 POP DUP1 PUSH0 ADD DUP1 SLOAD PUSH2 0x7D5 SWAP1 PUSH2 0xDD6 JUMP JUMPDEST DUP1 PUSH1 0x1F ADD PUSH1 0x20 DUP1 SWAP2 DIV MUL PUSH1 0x20 ADD PUSH1 0x40 MLOAD SWAP1 DUP2 ADD PUSH1 0x40 MSTORE DUP1 SWAP3 SWAP2 SWAP1 DUP2 DUP2 MSTORE PUSH1 0x20 ADD DUP3 DUP1 SLOAD PUSH2 0x801 SWAP1 PUSH2 0xDD6 JUMP JUMPDEST DUP1 ISZERO PUSH2 0x84C JUMPI DUP1 PUSH1 0x1F LT PUSH2 0x823 JUMPI PUSH2 0x100 DUP1 DUP4 SLOAD DIV MUL DUP4 MSTORE SWAP2 PUSH1 0x20 ADD SWAP2 PUSH2 0x84C JUMP JUMPDEST DUP3 ADD SWAP2 SWAP1 PUSH0 MSTORE PUSH1 0x20 PUSH0 KECCAK256 SWAP1 JUMPDEST DUP2 SLOAD DUP2 MSTORE SWAP1 PUSH1 0x1 ADD SWAP1 PUSH1 0x20 ADD DUP1 DUP4 GT PUSH2 0x82F JUMPI DUP3 SWAP1 SUB PUSH1 0x1F AND DUP3 ADD SWAP2 JUMPDEST POP POP POP POP POP SWAP1 DUP1 PUSH1 0x1 ADD PUSH0 SWAP1 SLOAD SWAP1 PUSH2 0x100 EXP SWAP1 DIV PUSH20 0xFFFFFFFFFFFFFFFFFFFFFFFFFFFFFFFFFFFFFFFF AND SWAP1 DUP1 PUSH1 0x2 ADD SLOAD SWAP1 DUP1 PUSH1 0x3 ADD PUSH0 SWAP1 SLOAD SWAP1 PUSH2 0x100 EXP SWAP1 DIV PUSH1 0xFF AND SWAP1 POP DUP5 JUMP JUMPDEST PUSH0 DUP2 SWAP1 POP SWAP2 SWAP1 POP JUMP JUMPDEST PUSH2 0x8A5 DUP2 PUSH2 0x893 JUMP JUMPDEST DUP3 MSTORE POP POP JUMP JUMPDEST PUSH0 PUSH1 0x20 DUP3 ADD SWAP1 POP PUSH2 0x8BE PUSH0 DUP4 ADD DUP5 PUSH2 0x89C JUMP JUMPDEST SWAP3 SWAP2 POP POP JUMP JUMPDEST PUSH0 PUSH1 0x40 MLOAD SWAP1 POP SWAP1 JUMP JUMPDEST PUSH0 DUP1 REVERT JUMPDEST PUSH0 DUP1 REVERT JUMPDEST PUSH0 DUP1 REVERT JUMPDEST PUSH0 DUP1 REVERT JUMPDEST PUSH0 PUSH1 0x1F NOT PUSH1 0x1F DUP4 ADD AND SWAP1 POP SWAP2 SWAP1 POP JUMP JUMPDEST PUSH32 0x4E487B7100000000000000000000000000000000000000000000000000000000 PUSH0 MSTORE PUSH1 0x41 PUSH1 0x4 MSTORE PUSH1 0x24 PUSH0 REVERT JUMPDEST PUSH2 0x923 DUP3 PUSH2 0x8DD JUMP JUMPDEST DUP2 ADD DUP2 DUP2 LT PUSH8 0xFFFFFFFFFFFFFFFF DUP3 GT OR ISZERO PUSH2 0x942 JUMPI PUSH2 0x941 PUSH2 0x8ED JUMP JUMPDEST JUMPDEST DUP1 PUSH1 0x40 MSTORE POP POP POP JUMP JUMPDEST PUSH0 PUSH2 0x954 PUSH2 0x8C4 JUMP JUMPDEST SWAP1 POP PUSH2 0x960 DUP3 DUP3 PUSH2 0x91A JUMP JUMPDEST SWAP2 SWAP1 POP JUMP JUMPDEST PUSH0 PUSH8 0xFFFFFFFFFFFFFFFF DUP3 GT ISZERO PUSH2 0x97F JUMPI PUSH2 0x97E PUSH2 0x8ED JUMP JUMPDEST JUMPDEST PUSH2 0x988 DUP3 PUSH2 0x8DD JUMP JUMPDEST SWAP1 POP PUSH1 0x20 DUP2 ADD SWAP1 POP SWAP2 SWAP1 POP JUMP JUMPDEST DUP3 DUP2 DUP4 CALLDATACOPY PUSH0 DUP4 DUP4 ADD MSTORE POP POP POP JUMP JUMPDEST PUSH0 PUSH2 0x9B5 PUSH2 0x9B0 DUP5 PUSH2 0x965 JUMP JUMPDEST PUSH2 0x94B JUMP JUMPDEST SWAP1 POP DUP3 DUP2 MSTORE PUSH1 0x20 DUP2 ADD DUP5 DUP5 DUP5 ADD GT ISZERO PUSH2 0x9D1 JUMPI PUSH2 0x9D0 PUSH2 0x8D9 JUMP JUMPDEST JUMPDEST PUSH2 0x9DC DUP5 DUP3 DUP6 PUSH2 0x995 JUMP JUMPDEST POP SWAP4 SWAP3 POP POP POP JUMP JUMPDEST PUSH0 DUP3 PUSH1 0x1F DUP4 ADD SLT PUSH2 0x9F8 JUMPI PUSH2 0x9F7 PUSH2 0x8D5 JUMP JUMPDEST JUMPDEST DUP2 CALLDATALOAD PUSH2 0xA08 DUP5 DUP3 PUSH1 0x20 DUP7 ADD PUSH2 0x9A3 JUMP JUMPDEST SWAP2 POP POP SWAP3 SWAP2 POP POP JUMP JUMPDEST PUSH0 PUSH20 0xFFFFFFFFFFFFFFFFFFFFFFFFFFFFFFFFFFFFFFFF DUP3 AND SWAP1 POP SWAP2 SWAP1 POP JUMP JUMPDEST PUSH0 PUSH2 0xA3A DUP3 PUSH2 0xA11 JUMP JUMPDEST SWAP1 POP SWAP2 SWAP1 POP JUMP JUMPDEST PUSH2 0xA4A DUP2 PUSH2 0xA30 JUMP JUMPDEST DUP2 EQ PUSH2 0xA54 JUMPI PUSH0 DUP1 REVERT JUMPDEST POP JUMP JUMPDEST PUSH0 DUP2 CALLDATALOAD SWAP1 POP PUSH2 0xA65 DUP2 PUSH2 0xA41 JUMP JUMPDEST SWAP3 SWAP2 POP POP JUMP JUMPDEST PUSH2 0xA74 DUP2 PUSH2 0x893 JUMP JUMPDEST DUP2 EQ PUSH2 0xA7E JUMPI PUSH0 DUP1 REVERT JUMPDEST POP JUMP JUMPDEST PUSH0 DUP2 CALLDATALOAD SWAP1 POP PUSH2 0xA8F DUP2 PUSH2 0xA6B JUMP JUMPDEST SWAP3 SWAP2 POP POP JUMP JUMPDEST PUSH0 DUP1 PUSH0 PUSH1 0x60 DUP5 DUP7 SUB SLT ISZERO PUSH2 0xAAC JUMPI PUSH2 0xAAB PUSH2 0x8CD JUMP JUMPDEST JUMPDEST PUSH0 DUP5 ADD CALLDATALOAD PUSH8 0xFFFFFFFFFFFFFFFF DUP2 GT ISZERO PUSH2 0xAC9 JUMPI PUSH2 0xAC8 PUSH2 0x8D1 JUMP JUMPDEST JUMPDEST PUSH2 0xAD5 DUP7 DUP3 DUP8 ADD PUSH2 0x9E4 JUMP JUMPDEST SWAP4 POP POP PUSH1 0x20 PUSH2 0xAE6 DUP7 DUP3 DUP8 ADD PUSH2 0xA57 JUMP JUMPDEST SWAP3 POP POP PUSH1 0x40 PUSH2 0xAF7 DUP7 DUP3 DUP8 ADD PUSH2 0xA81 JUMP JUMPDEST SWAP2 POP POP SWAP3 POP SWAP3 POP SWAP3 JUMP JUMPDEST PUSH0 PUSH2 0xB0B DUP3 PUSH2 0xA11 JUMP JUMPDEST SWAP1 POP SWAP2 SWAP1 POP JUMP JUMPDEST PUSH2 0xB1B DUP2 PUSH2 0xB01 JUMP JUMPDEST DUP2 EQ PUSH2 0xB25 JUMPI PUSH0 DUP1 REVERT JUMPDEST POP JUMP JUMPDEST PUSH0 DUP2 CALLDATALOAD SWAP1 POP PUSH2 0xB36 DUP2 PUSH2 0xB12 JUMP JUMPDEST SWAP3 SWAP2 POP POP JUMP JUMPDEST PUSH0 PUSH1 0x20 DUP3 DUP5 SUB SLT ISZERO PUSH2 0xB51 JUMPI PUSH2 0xB50 PUSH2 0x8CD JUMP JUMPDEST JUMPDEST PUSH0 PUSH2 0xB5E DUP5 DUP3 DUP6 ADD PUSH2 0xB28 JUMP JUMPDEST SWAP2 POP POP SWAP3 SWAP2 POP POP JUMP JUMPDEST PUSH2 0xB70 DUP2 PUSH2 0xB01 JUMP JUMPDEST DUP3 MSTORE POP POP JUMP JUMPDEST PUSH0 PUSH1 0x20 DUP3 ADD SWAP1 POP PUSH2 0xB89 PUSH0 DUP4 ADD DUP5 PUSH2 0xB67 JUMP JUMPDEST SWAP3 SWAP2 POP POP JUMP JUMPDEST PUSH0 PUSH1 0x20 DUP3 DUP5 SUB SLT ISZERO PUSH2 0xBA4 JUMPI PUSH2 0xBA3 PUSH2 0x8CD JUMP JUMPDEST JUMPDEST PUSH0 PUSH2 0xBB1 DUP5 DUP3 DUP6 ADD PUSH2 0xA81 JUMP JUMPDEST SWAP2 POP POP SWAP3 SWAP2 POP POP JUMP JUMPDEST PUSH0 DUP2 MLOAD SWAP1 POP SWAP2 SWAP1 POP JUMP JUMPDEST PUSH0 DUP3 DUP3 MSTORE PUSH1 0x20 DUP3 ADD SWAP1 POP SWAP3 SWAP2 POP POP JUMP JUMPDEST PUSH0 JUMPDEST DUP4 DUP2 LT ISZERO PUSH2 0xBF1 JUMPI DUP1 DUP3 ADD MLOAD DUP2 DUP5 ADD MSTORE PUSH1 0x20 DUP2 ADD SWAP1 POP PUSH2 0xBD6 JUMP JUMPDEST PUSH0 DUP5 DUP5 ADD MSTORE POP POP POP POP JUMP JUMPDEST PUSH0 PUSH2 0xC06 DUP3 PUSH2 0xBBA JUMP JUMPDEST PUSH2 0xC10 DUP2 DUP6 PUSH2 0xBC4 JUMP JUMPDEST SWAP4 POP PUSH2 0xC20 DUP2 DUP6 PUSH1 0x20 DUP7 ADD PUSH2 0xBD4 JUMP JUMPDEST PUSH2 0xC29 DUP2 PUSH2 0x8DD JUMP JUMPDEST DUP5 ADD SWAP2 POP POP SWAP3 SWAP2 POP POP JUMP JUMPDEST PUSH2 0xC3D DUP2 PUSH2 0xA30 JUMP JUMPDEST DUP3 MSTORE POP POP JUMP JUMPDEST PUSH0 DUP2 ISZERO ISZERO SWAP1 POP SWAP2 SWAP1 POP JUMP JUMPDEST PUSH2 0xC57 DUP2 PUSH2 0xC43 JUMP JUMPDEST DUP3 MSTORE POP POP JUMP JUMPDEST PUSH0 PUSH1 0x80 DUP3 ADD SWAP1 POP DUP2 DUP2 SUB PUSH0 DUP4 ADD MSTORE PUSH2 0xC75 DUP2 DUP8 PUSH2 0xBFC JUMP JUMPDEST SWAP1 POP PUSH2 0xC84 PUSH1 0x20 DUP4 ADD DUP7 PUSH2 0xC34 JUMP JUMPDEST PUSH2 0xC91 PUSH1 0x40 DUP4 ADD DUP6 PUSH2 0x89C JUMP JUMPDEST PUSH2 0xC9E PUSH1 0x60 DUP4 ADD DUP5 PUSH2 0xC4E JUMP JUMPDEST SWAP6 SWAP5 POP POP POP POP POP JUMP JUMPDEST PUSH32 0x536F6C6F20656C2061646D696E6973747261646F722064656C20636F6E747261 PUSH0 DUP3 ADD MSTORE PUSH32 0x746F207075656465207265746F726172206C6F7320666F6E646F730000000000 PUSH1 0x20 DUP3 ADD MSTORE POP JUMP JUMPDEST PUSH0 PUSH2 0xD01 PUSH1 0x3B DUP4 PUSH2 0xBC4 JUMP JUMPDEST SWAP2 POP PUSH2 0xD0C DUP3 PUSH2 0xCA7 JUMP JUMPDEST PUSH1 0x40 DUP3 ADD SWAP1 POP SWAP2 SWAP1 POP JUMP JUMPDEST PUSH0 PUSH1 0x20 DUP3 ADD SWAP1 POP DUP2 DUP2 SUB PUSH0 DUP4 ADD MSTORE PUSH2 0xD2E DUP2 PUSH2 0xCF5 JUMP JUMPDEST SWAP1 POP SWAP2 SWAP1 POP JUMP JUMPDEST PUSH32 0x4E487B7100000000000000000000000000000000000000000000000000000000 PUSH0 MSTORE PUSH1 0x11 PUSH1 0x4 MSTORE PUSH1 0x24 PUSH0 REVERT JUMPDEST PUSH0 PUSH2 0xD6C DUP3 PUSH2 0x893 JUMP JUMPDEST SWAP2 POP PUSH32 0xFFFFFFFFFFFFFFFFFFFFFFFFFFFFFFFFFFFFFFFFFFFFFFFFFFFFFFFFFFFFFFFF DUP3 SUB PUSH2 0xD9E JUMPI PUSH2 0xD9D PUSH2 0xD35 JUMP JUMPDEST JUMPDEST PUSH1 0x1 DUP3 ADD SWAP1 POP SWAP2 SWAP1 POP JUMP JUMPDEST PUSH32 0x4E487B7100000000000000000000000000000000000000000000000000000000 PUSH0 MSTORE PUSH1 0x22 PUSH1 0x4 MSTORE PUSH1 0x24 PUSH0 REVERT JUMPDEST PUSH0 PUSH1 0x2 DUP3 DIV SWAP1 POP PUSH1 0x1 DUP3 AND DUP1 PUSH2 0xDED JUMPI PUSH1 0x7F DUP3 AND SWAP2 POP JUMPDEST PUSH1 0x20 DUP3 LT DUP2 SUB PUSH2 0xE00 JUMPI PUSH2 0xDFF PUSH2 0xDA9 JUMP JUMPDEST JUMPDEST POP SWAP2 SWAP1 POP JUMP JUMPDEST PUSH0 DUP2 SWAP1 POP DUP2 PUSH0 MSTORE PUSH1 0x20 PUSH0 KECCAK256 SWAP1 POP SWAP2 SWAP1 POP JUMP JUMPDEST PUSH0 PUSH1 0x20 PUSH1 0x1F DUP4 ADD DIV SWAP1 POP SWAP2 SWAP1 POP JUMP JUMPDEST PUSH0 DUP3 DUP3 SHL SWAP1 POP SWAP3 SWAP2 POP POP JUMP JUMPDEST PUSH0 PUSH1 0x8 DUP4 MUL PUSH2 0xE62 PUSH32 0xFFFFFFFFFFFFFFFFFFFFFFFFFFFFFFFFFFFFFFFFFFFFFFFFFFFFFFFFFFFFFFFF DUP3 PUSH2 0xE27 JUMP JUMPDEST PUSH2 0xE6C DUP7 DUP4 PUSH2 0xE27 JUMP JUMPDEST SWAP6 POP DUP1 NOT DUP5 AND SWAP4 POP DUP1 DUP7 AND DUP5 OR SWAP3 POP POP POP SWAP4 SWAP3 POP POP POP JUMP JUMPDEST PUSH0 DUP2 SWAP1 POP SWAP2 SWAP1 POP JUMP JUMPDEST PUSH0 PUSH2 0xEA7 PUSH2 0xEA2 PUSH2 0xE9D DUP5 PUSH2 0x893 JUMP JUMPDEST PUSH2 0xE84 JUMP JUMPDEST PUSH2 0x893 JUMP JUMPDEST SWAP1 POP SWAP2 SWAP1 POP JUMP JUMPDEST PUSH0 DUP2 SWAP1 POP SWAP2 SWAP1 POP JUMP JUMPDEST PUSH2 0xEC0 DUP4 PUSH2 0xE8D JUMP JUMPDEST PUSH2 0xED4 PUSH2 0xECC DUP3 PUSH2 0xEAE JUMP JUMPDEST DUP5 DUP5 SLOAD PUSH2 0xE33 JUMP JUMPDEST DUP3 SSTORE POP POP POP POP JUMP JUMPDEST PUSH0 SWAP1 JUMP JUMPDEST PUSH2 0xEE8 PUSH2 0xEDC JUMP JUMPDEST PUSH2 0xEF3 DUP2 DUP5 DUP5 PUSH2 0xEB7 JUMP JUMPDEST POP POP POP JUMP JUMPDEST JUMPDEST DUP2 DUP2 LT ISZERO PUSH2 0xF16 JUMPI PUSH2 0xF0B PUSH0 DUP3 PUSH2 0xEE0 JUMP JUMPDEST PUSH1 0x1 DUP2 ADD SWAP1 POP PUSH2 0xEF9 JUMP JUMPDEST POP POP JUMP JUMPDEST PUSH1 0x1F DUP3 GT ISZERO PUSH2 0xF5B JUMPI PUSH2 0xF2C DUP2 PUSH2 0xE06 JUMP JUMPDEST PUSH2 0xF35 DUP5 PUSH2 0xE18 JUMP JUMPDEST DUP2 ADD PUSH1 0x20 DUP6 LT ISZERO PUSH2 0xF44 JUMPI DUP2 SWAP1 POP JUMPDEST PUSH2 0xF58 PUSH2 0xF50 DUP6 PUSH2 0xE18 JUMP JUMPDEST DUP4 ADD DUP3 PUSH2 0xEF8 JUMP JUMPDEST POP POP JUMPDEST POP POP POP JUMP JUMPDEST PUSH0 DUP3 DUP3 SHR SWAP1 POP SWAP3 SWAP2 POP POP JUMP JUMPDEST PUSH0 PUSH2 0xF7B PUSH0 NOT DUP5 PUSH1 0x8 MUL PUSH2 0xF60 JUMP JUMPDEST NOT DUP1 DUP4 AND SWAP2 POP POP SWAP3 SWAP2 POP POP JUMP JUMPDEST PUSH0 PUSH2 0xF93 DUP4 DUP4 PUSH2 0xF6C JUMP JUMPDEST SWAP2 POP DUP3 PUSH1 0x2 MUL DUP3 OR SWAP1 POP SWAP3 SWAP2 POP POP JUMP JUMPDEST PUSH2 0xFAC DUP3 PUSH2 0xBBA JUMP JUMPDEST PUSH8 0xFFFFFFFFFFFFFFFF DUP2 GT ISZERO PUSH2 0xFC5 JUMPI PUSH2 0xFC4 PUSH2 0x8ED JUMP JUMPDEST JUMPDEST PUSH2 0xFCF DUP3 SLOAD PUSH2 0xDD6 JUMP JUMPDEST PUSH2 0xFDA DUP3 DUP3 DUP6 PUSH2 0xF1A JUMP JUMPDEST PUSH0 PUSH1 0x20 SWAP1 POP PUSH1 0x1F DUP4 GT PUSH1 0x1 DUP2 EQ PUSH2 0x100B JUMPI PUSH0 DUP5 ISZERO PUSH2 0xFF9 JUMPI DUP3 DUP8 ADD MLOAD SWAP1 POP JUMPDEST PUSH2 0x1003 DUP6 DUP3 PUSH2 0xF88 JUMP JUMPDEST DUP7 SSTORE POP PUSH2 0x106A JUMP JUMPDEST PUSH1 0x1F NOT DUP5 AND PUSH2 0x1019 DUP7 PUSH2 0xE06 JUMP JUMPDEST PUSH0 JUMPDEST DUP3 DUP2 LT ISZERO PUSH2 0x1040 JUMPI DUP5 DUP10 ADD MLOAD DUP3 SSTORE PUSH1 0x1 DUP3 ADD SWAP2 POP PUSH1 0x20 DUP6 ADD SWAP5 POP PUSH1 0x20 DUP2 ADD SWAP1 POP PUSH2 0x101B JUMP JUMPDEST DUP7 DUP4 LT ISZERO PUSH2 0x105D JUMPI DUP5 DUP10 ADD MLOAD PUSH2 0x1059 PUSH1 0x1F DUP10 AND DUP3 PUSH2 0xF6C JUMP JUMPDEST DUP4 SSTORE POP JUMPDEST PUSH1 0x1 PUSH1 0x2 DUP9 MUL ADD DUP9 SSTORE POP POP POP JUMPDEST POP POP POP POP POP POP JUMP JUMPDEST PUSH32 0x6E6F2073652063756D706C696F20656C206F626A657469766F00000000000000 PUSH0 DUP3 ADD MSTORE POP JUMP JUMPDEST PUSH0 PUSH2 0x10A6 PUSH1 0x19 DUP4 PUSH2 0xBC4 JUMP JUMPDEST SWAP2 POP PUSH2 0x10B1 DUP3 PUSH2 0x1072 JUMP JUMPDEST PUSH1 0x20 DUP3 ADD SWAP1 POP SWAP2 SWAP1 POP JUMP JUMPDEST PUSH0 PUSH1 0x20 DUP3 ADD SWAP1 POP DUP2 DUP2 SUB PUSH0 DUP4 ADD MSTORE PUSH2 0x10D3 DUP2 PUSH2 0x109A JUMP JUMPDEST SWAP1 POP SWAP2 SWAP1 POP JUMP JUMPDEST PUSH32 0x4E6F20707573697374652070617261206C612076616361000000000000000000 PUSH0 DUP3 ADD MSTORE POP JUMP JUMPDEST PUSH0 PUSH2 0x110E PUSH1 0x17 DUP4 PUSH2 0xBC4 JUMP JUMPDEST SWAP2 POP PUSH2 0x1119 DUP3 PUSH2 0x10DA JUMP JUMPDEST PUSH1 0x20 DUP3 ADD SWAP1 POP SWAP2 SWAP1 POP JUMP JUMPDEST PUSH0 PUSH1 0x20 DUP3 ADD SWAP1 POP DUP2 DUP2 SUB PUSH0 DUP4 ADD MSTORE PUSH2 0x113B DUP2 PUSH2 0x1102 JUMP JUMPDEST SWAP1 POP SWAP2 SWAP1 POP JUMP JUMPDEST PUSH32 0x5465726D696E6F20656C20646561646C696E6500000000000000000000000000 PUSH0 DUP3 ADD MSTORE POP JUMP JUMPDEST PUSH0 PUSH2 0x1176 PUSH1 0x13 DUP4 PUSH2 0xBC4 JUMP JUMPDEST SWAP2 POP PUSH2 0x1181 DUP3 PUSH2 0x1142 JUMP JUMPDEST PUSH1 0x20 DUP3 ADD SWAP1 POP SWAP2 SWAP1 POP JUMP JUMPDEST PUSH0 PUSH1 0x20 DUP3 ADD SWAP1 POP DUP2 DUP2 SUB PUSH0 DUP4 ADD MSTORE PUSH2 0x11A3 DUP2 PUSH2 0x116A JUMP JUMPDEST SWAP1 POP SWAP2 SWAP1 POP JUMP JUMPDEST PUSH0 PUSH2 0x11B4 DUP3 PUSH2 0x893 JUMP JUMPDEST SWAP2 POP PUSH2 0x11BF DUP4 PUSH2 0x893 JUMP JUMPDEST SWAP3 POP DUP3 DUP3 ADD SWAP1 POP DUP1 DUP3 GT ISZERO PUSH2 0x11D7 JUMPI PUSH2 0x11D6 PUSH2 0xD35 JUMP JUMPDEST JUMPDEST SWAP3 SWAP2 POP POP JUMP JUMPDEST PUSH32 0x4E6F2073652063756D706C696F206C61206D6574610000000000000000000000 PUSH0 DUP3 ADD MSTORE POP JUMP JUMPDEST PUSH0 PUSH2 0x1211 PUSH1 0x15 DUP4 PUSH2 0xBC4 JUMP JUMPDEST SWAP2 POP PUSH2 0x121C DUP3 PUSH2 0x11DD JUMP JUMPDEST PUSH1 0x20 DUP3 ADD SWAP1 POP SWAP2 SWAP1 POP JUMP JUMPDEST PUSH0 PUSH1 0x20 DUP3 ADD SWAP1 POP DUP2 DUP2 SUB PUSH0 DUP4 ADD MSTORE PUSH2 0x123E DUP2 PUSH2 0x1205 JUMP JUMPDEST SWAP1 POP SWAP2 SWAP1 POP JUMP JUMPDEST PUSH32 0x45737461207065746963696F6E206E6F2066756520636F6D706C657461646100 PUSH0 DUP3 ADD MSTORE POP JUMP JUMPDEST PUSH0 PUSH2 0x1279 PUSH1 0x1F DUP4 PUSH2 0xBC4 JUMP JUMPDEST SWAP2 POP PUSH2 0x1284 DUP3 PUSH2 0x1245 JUMP JUMPDEST PUSH1 0x20 DUP3 ADD SWAP1 POP SWAP2 SWAP1 POP JUMP JUMPDEST PUSH0 PUSH1 0x20 DUP3 ADD SWAP1 POP DUP2 DUP2 SUB PUSH0 DUP4 ADD MSTORE PUSH2 0x12A6 DUP2 PUSH2 0x126D JUMP JUMPDEST SWAP1 POP SWAP2 SWAP1 POP JUMP INVALID LOG2 PUSH5 0x6970667358 0x22 SLT KECCAK256 SWAP14 CALLDATALOAD 0xE3 SGT 0xCA PUSH15 0x28FBAB712DC609A2AB7D1FE90BEE1D CODECOPY 0xAE INVALID 0xDF PUSH30 0x878A47C38E8A64736F6C6343000818003300000000000000000000000000 "
		},
		"gasEstimates": {
			"creation": {
				"codeDepositCost": "967000",
				"executionCost": "infinite",
				"totalCost": "infinite"
			},
			"external": {
				"createRequest(string,address,uint256)": "infinite",
				"deadline()": "2470",
				"fundContributors(address)": "2868",
				"getBalance()": "335",
				"makePayament(uint256)": "infinite",
				"manager()": "2619",
				"numRequets()": "2514",
				"reaisedAmount()": "2447",
				"refund()": "13817",
				"request(uint256)": "infinite",
				"sendFunds()": "infinite",
				"targetAmount()": "2491"
			}
		},
		"methodIdentifiers": {
			"createRequest(string,address,uint256)": "1b16bb5c",
			"deadline()": "29dcb0cf",
			"fundContributors(address)": "4034a539",
			"getBalance()": "12065fe0",
			"makePayament(uint256)": "c1597b33",
			"manager()": "481c6a75",
			"numRequets()": "41a67b6f",
			"reaisedAmount()": "87a316dc",
			"refund()": "590e1ae3",
			"request(uint256)": "d845a4b3",
			"sendFunds()": "8d68cf59",
			"targetAmount()": "953b8fb8"
		}
	},
	"abi": [
		{
			"inputs": [
				{
					"internalType": "uint256",
					"name": "_targetAmount",
					"type": "uint256"
				},
				{
					"internalType": "uint256",
					"name": "_deadline",
					"type": "uint256"
				}
			],
			"stateMutability": "nonpayable",
			"type": "constructor"
		},
		{
			"inputs": [
				{
					"internalType": "string",
					"name": "_description",
					"type": "string"
				},
				{
					"internalType": "address payable",
					"name": "_recipient",
					"type": "address"
				},
				{
					"internalType": "uint256",
					"name": "_value",
					"type": "uint256"
				}
			],
			"name": "createRequest",
			"outputs": [],
			"stateMutability": "nonpayable",
			"type": "function"
		},
		{
			"inputs": [],
			"name": "deadline",
			"outputs": [
				{
					"internalType": "uint256",
					"name": "",
					"type": "uint256"
				}
			],
			"stateMutability": "view",
			"type": "function"
		},
		{
			"inputs": [
				{
					"internalType": "address",
					"name": "",
					"type": "address"
				}
			],
			"name": "fundContributors",
			"outputs": [
				{
					"internalType": "uint256",
					"name": "",
					"type": "uint256"
				}
			],
			"stateMutability": "view",
			"type": "function"
		},
		{
			"inputs": [],
			"name": "getBalance",
			"outputs": [
				{
					"internalType": "uint256",
					"name": "",
					"type": "uint256"
				}
			],
			"stateMutability": "view",
			"type": "function"
		},
		{
			"inputs": [
				{
					"internalType": "uint256",
					"name": "_requestNum",
					"type": "uint256"
				}
			],
			"name": "makePayament",
			"outputs": [],
			"stateMutability": "nonpayable",
			"type": "function"
		},
		{
			"inputs": [],
			"name": "manager",
			"outputs": [
				{
					"internalType": "address",
					"name": "",
					"type": "address"
				}
			],
			"stateMutability": "view",
			"type": "function"
		},
		{
			"inputs": [],
			"name": "numRequets",
			"outputs": [
				{
					"internalType": "uint256",
					"name": "",
					"type": "uint256"
				}
			],
			"stateMutability": "view",
			"type": "function"
		},
		{
			"inputs": [],
			"name": "reaisedAmount",
			"outputs": [
				{
					"internalType": "uint256",
					"name": "",
					"type": "uint256"
				}
			],
			"stateMutability": "view",
			"type": "function"
		},
		{
			"inputs": [],
			"name": "refund",
			"outputs": [],
			"stateMutability": "nonpayable",
			"type": "function"
		},
		{
			"inputs": [
				{
					"internalType": "uint256",
					"name": "",
					"type": "uint256"
				}
			],
			"name": "request",
			"outputs": [
				{
					"internalType": "string",
					"name": "description",
					"type": "string"
				},
				{
					"internalType": "address payable",
					"name": "recipient",
					"type": "address"
				},
				{
					"internalType": "uint256",
					"name": "value",
					"type": "uint256"
				},
				{
					"internalType": "bool",
					"name": "completed",
					"type": "bool"
				}
			],
			"stateMutability": "view",
			"type": "function"
		},
		{
			"inputs": [],
			"name": "sendFunds",
			"outputs": [],
			"stateMutability": "payable",
			"type": "function"
		},
		{
			"inputs": [],
			"name": "targetAmount",
			"outputs": [
				{
					"internalType": "uint256",
					"name": "",
					"type": "uint256"
				}
			],
			"stateMutability": "view",
			"type": "function"
		}
	]
}