{
	"data": {
		"bytecode": {
			"linkReferences": {},
			"object": "608060405234801561000f575f80fd5b506101508061001d5f395ff3fe608060405234801561000f575f80fd5b5060043610610029575f3560e01c80639f4d545c1461002d575b5f80fd5b610035610037565b005b5f5b600a811015610062576003810315610055576005810315610062575b8080600101915050610039565b505f805b600a82101561009957818061007a906100d3565b9250506127108211610099578080610091906100d3565b915050610066565b5050565b7f4e487b71000000000000000000000000000000000000000000000000000000005f52601160045260245ffd5b5f819050919050565b5f6100dd826100ca565b91507fffffffffffffffffffffffffffffffffffffffffffffffffffffffffffffffff820361010f5761010e61009d565b5b60018201905091905056fea2646970667358221220141a074c040c6b2ed471f38b9593cddd0f62e16fe2dd83b07c86e444a86d35d564736f6c63430008180033",
			"opcodes": "PUSH1 0x80 PUSH1 0x40 MSTORE CALLVALUE DUP1 ISZERO PUSH2 0xF JUMPI PUSH0 DUP1 REVERT JUMPDEST POP PUSH2 0x150 DUP1 PUSH2 0x1D PUSH0 CODECOPY PUSH0 RETURN INVALID PUSH1 0x80 PUSH1 0x40 MSTORE CALLVALUE DUP1 ISZERO PUSH2 0xF JUMPI PUSH0 DUP1 REVERT JUMPDEST POP PUSH1 0x4 CALLDATASIZE LT PUSH2 0x29 JUMPI PUSH0 CALLDATALOAD PUSH1 0xE0 SHR DUP1 PUSH4 0x9F4D545C EQ PUSH2 0x2D JUMPI JUMPDEST PUSH0 DUP1 REVERT JUMPDEST PUSH2 0x35 PUSH2 0x37 JUMP JUMPDEST STOP JUMPDEST PUSH0 JUMPDEST PUSH1 0xA DUP2 LT ISZERO PUSH2 0x62 JUMPI PUSH1 0x3 DUP2 SUB ISZERO PUSH2 0x55 JUMPI PUSH1 0x5 DUP2 SUB ISZERO PUSH2 0x62 JUMPI JUMPDEST DUP1 DUP1 PUSH1 0x1 ADD SWAP2 POP POP PUSH2 0x39 JUMP JUMPDEST POP PUSH0 DUP1 JUMPDEST PUSH1 0xA DUP3 LT ISZERO PUSH2 0x99 JUMPI DUP2 DUP1 PUSH2 0x7A SWAP1 PUSH2 0xD3 JUMP JUMPDEST SWAP3 POP POP PUSH2 0x2710 DUP3 GT PUSH2 0x99 JUMPI DUP1 DUP1 PUSH2 0x91 SWAP1 PUSH2 0xD3 JUMP JUMPDEST SWAP2 POP POP PUSH2 0x66 JUMP JUMPDEST POP POP JUMP JUMPDEST PUSH32 0x4E487B7100000000000000000000000000000000000000000000000000000000 PUSH0 MSTORE PUSH1 0x11 PUSH1 0x4 MSTORE PUSH1 0x24 PUSH0 REVERT JUMPDEST PUSH0 DUP2 SWAP1 POP SWAP2 SWAP1 POP JUMP JUMPDEST PUSH0 PUSH2 0xDD DUP3 PUSH2 0xCA JUMP JUMPDEST SWAP2 POP PUSH32 0xFFFFFFFFFFFFFFFFFFFFFFFFFFFFFFFFFFFFFFFFFFFFFFFFFFFFFFFFFFFFFFFF DUP3 SUB PUSH2 0x10F JUMPI PUSH2 0x10E PUSH2 0x9D JUMP JUMPDEST JUMPDEST PUSH1 0x1 DUP3 ADD SWAP1 POP SWAP2 SWAP1 POP JUMP INVALID LOG2 PUSH5 0x6970667358 0x22 SLT KECCAK256 EQ BYTE SMOD 0x4C DIV 0xC PUSH12 0x2ED471F38B9593CDDD0F62E1 PUSH16 0xE2DD83B07C86E444A86D35D564736F6C PUSH4 0x43000818 STOP CALLER "
		},
		"gasEstimates": {
			"creation": {
				"codeDepositCost": "67200",
				"executionCost": "115",
				"totalCost": "67315"
			},
			"external": {
				"Loop()": "infinite"
			}
		},
		"methodIdentifiers": {
			"Loop()": "9f4d545c"
		}
	},
	"abi": [
		{
			"inputs": [],
			"name": "Loop",
			"outputs": [],
			"stateMutability": "pure",
			"type": "function"
		}
	]
}